{
	"Midas_V1.2/LPToken.sol": {
		"LPToken": {
			"abi": [
				{
					"inputs": [
						{
							"internalType": "address",
							"name": "_factory",
							"type": "address"
						}
					],
					"stateMutability": "nonpayable",
					"type": "constructor"
				},
				{
					"anonymous": false,
					"inputs": [
						{
							"indexed": true,
							"internalType": "address",
							"name": "owner",
							"type": "address"
						},
						{
							"indexed": true,
							"internalType": "address",
							"name": "spender",
							"type": "address"
						},
						{
							"indexed": true,
							"internalType": "uint256",
							"name": "id",
							"type": "uint256"
						}
					],
					"name": "Approval",
					"type": "event"
				},
				{
					"anonymous": false,
					"inputs": [
						{
							"indexed": true,
							"internalType": "address",
							"name": "owner",
							"type": "address"
						},
						{
							"indexed": true,
							"internalType": "address",
							"name": "operator",
							"type": "address"
						},
						{
							"indexed": false,
							"internalType": "bool",
							"name": "approved",
							"type": "bool"
						}
					],
					"name": "ApprovalForAll",
					"type": "event"
				},
				{
					"anonymous": false,
					"inputs": [
						{
							"indexed": true,
							"internalType": "address",
							"name": "from",
							"type": "address"
						},
						{
							"indexed": true,
							"internalType": "address",
							"name": "to",
							"type": "address"
						},
						{
							"indexed": true,
							"internalType": "uint256",
							"name": "id",
							"type": "uint256"
						}
					],
					"name": "Transfer",
					"type": "event"
				},
				{
					"inputs": [
						{
							"internalType": "address",
							"name": "spender",
							"type": "address"
						},
						{
							"internalType": "uint256",
							"name": "id",
							"type": "uint256"
						}
					],
					"name": "approve",
					"outputs": [],
					"stateMutability": "nonpayable",
					"type": "function"
				},
				{
					"inputs": [
						{
							"internalType": "address",
							"name": "owner",
							"type": "address"
						}
					],
					"name": "balanceOf",
					"outputs": [
						{
							"internalType": "uint256",
							"name": "",
							"type": "uint256"
						}
					],
					"stateMutability": "view",
					"type": "function"
				},
				{
					"inputs": [
						{
							"internalType": "uint256",
							"name": "tokenId",
							"type": "uint256"
						}
					],
					"name": "burn",
					"outputs": [],
					"stateMutability": "nonpayable",
					"type": "function"
				},
				{
					"inputs": [],
					"name": "factory",
					"outputs": [
						{
							"internalType": "address",
							"name": "",
							"type": "address"
						}
					],
					"stateMutability": "view",
					"type": "function"
				},
				{
					"inputs": [
						{
							"internalType": "uint256",
							"name": "",
							"type": "uint256"
						}
					],
					"name": "getApproved",
					"outputs": [
						{
							"internalType": "address",
							"name": "",
							"type": "address"
						}
					],
					"stateMutability": "view",
					"type": "function"
				},
				{
					"inputs": [
						{
							"internalType": "uint128",
							"name": "tokenId",
							"type": "uint128"
						}
					],
					"name": "getReserves",
					"outputs": [
						{
							"internalType": "uint128",
							"name": "xReserves",
							"type": "uint128"
						},
						{
							"internalType": "uint128",
							"name": "yReserves",
							"type": "uint128"
						}
					],
					"stateMutability": "view",
					"type": "function"
				},
				{
					"inputs": [
						{
							"internalType": "address",
							"name": "_pair",
							"type": "address"
						},
						{
							"internalType": "address",
							"name": "_tokenX",
							"type": "address"
						},
						{
							"internalType": "address",
							"name": "_tokenY",
							"type": "address"
						},
						{
							"internalType": "string",
							"name": "_name",
							"type": "string"
						},
						{
							"internalType": "string",
							"name": "_symbol",
							"type": "string"
						}
					],
					"name": "initialize",
					"outputs": [],
					"stateMutability": "nonpayable",
					"type": "function"
				},
				{
					"inputs": [],
					"name": "initialized",
					"outputs": [
						{
							"internalType": "bool",
							"name": "",
							"type": "bool"
						}
					],
					"stateMutability": "view",
					"type": "function"
				},
				{
					"inputs": [
						{
							"internalType": "address",
							"name": "",
							"type": "address"
						},
						{
							"internalType": "address",
							"name": "",
							"type": "address"
						}
					],
					"name": "isApprovedForAll",
					"outputs": [
						{
							"internalType": "bool",
							"name": "",
							"type": "bool"
						}
					],
					"stateMutability": "view",
					"type": "function"
				},
				{
					"inputs": [
						{
							"internalType": "address",
							"name": "to",
							"type": "address"
						},
						{
							"internalType": "uint256",
							"name": "tokenId",
							"type": "uint256"
						}
					],
					"name": "mint",
					"outputs": [],
					"stateMutability": "nonpayable",
					"type": "function"
				},
				{
					"inputs": [],
					"name": "name",
					"outputs": [
						{
							"internalType": "string",
							"name": "",
							"type": "string"
						}
					],
					"stateMutability": "view",
					"type": "function"
				},
				{
					"inputs": [
						{
							"internalType": "uint256",
							"name": "id",
							"type": "uint256"
						}
					],
					"name": "ownerOf",
					"outputs": [
						{
							"internalType": "address",
							"name": "owner",
							"type": "address"
						}
					],
					"stateMutability": "view",
					"type": "function"
				},
				{
					"inputs": [],
					"name": "pair",
					"outputs": [
						{
							"internalType": "address",
							"name": "",
							"type": "address"
						}
					],
					"stateMutability": "view",
					"type": "function"
				},
				{
					"inputs": [
						{
							"internalType": "address",
							"name": "from",
							"type": "address"
						},
						{
							"internalType": "address",
							"name": "to",
							"type": "address"
						},
						{
							"internalType": "uint256",
							"name": "id",
							"type": "uint256"
						}
					],
					"name": "safeTransferFrom",
					"outputs": [],
					"stateMutability": "nonpayable",
					"type": "function"
				},
				{
					"inputs": [
						{
							"internalType": "address",
							"name": "from",
							"type": "address"
						},
						{
							"internalType": "address",
							"name": "to",
							"type": "address"
						},
						{
							"internalType": "uint256",
							"name": "id",
							"type": "uint256"
						},
						{
							"internalType": "bytes",
							"name": "data",
							"type": "bytes"
						}
					],
					"name": "safeTransferFrom",
					"outputs": [],
					"stateMutability": "nonpayable",
					"type": "function"
				},
				{
					"inputs": [
						{
							"internalType": "address",
							"name": "operator",
							"type": "address"
						},
						{
							"internalType": "bool",
							"name": "approved",
							"type": "bool"
						}
					],
					"name": "setApprovalForAll",
					"outputs": [],
					"stateMutability": "nonpayable",
					"type": "function"
				},
				{
					"inputs": [
						{
							"internalType": "bytes4",
							"name": "interfaceId",
							"type": "bytes4"
						}
					],
					"name": "supportsInterface",
					"outputs": [
						{
							"internalType": "bool",
							"name": "",
							"type": "bool"
						}
					],
					"stateMutability": "view",
					"type": "function"
				},
				{
					"inputs": [],
					"name": "symbol",
					"outputs": [
						{
							"internalType": "string",
							"name": "",
							"type": "string"
						}
					],
					"stateMutability": "view",
					"type": "function"
				},
				{
					"inputs": [
						{
							"internalType": "uint256",
							"name": "tokenId",
							"type": "uint256"
						}
					],
					"name": "tokenURI",
					"outputs": [
						{
							"internalType": "string",
							"name": "",
							"type": "string"
						}
					],
					"stateMutability": "view",
					"type": "function"
				},
				{
					"inputs": [],
					"name": "tokenX",
					"outputs": [
						{
							"internalType": "address",
							"name": "",
							"type": "address"
						}
					],
					"stateMutability": "view",
					"type": "function"
				},
				{
					"inputs": [],
					"name": "tokenY",
					"outputs": [
						{
							"internalType": "address",
							"name": "",
							"type": "address"
						}
					],
					"stateMutability": "view",
					"type": "function"
				},
				{
					"inputs": [
						{
							"internalType": "address",
							"name": "from",
							"type": "address"
						},
						{
							"internalType": "address",
							"name": "to",
							"type": "address"
						},
						{
							"internalType": "uint256",
							"name": "id",
							"type": "uint256"
						}
					],
					"name": "transferFrom",
					"outputs": [],
					"stateMutability": "nonpayable",
					"type": "function"
				}
			],
			"devdoc": {
				"author": "midaswap",
				"kind": "dev",
				"methods": {},
				"title": "Midas LP Token",
				"version": 1
			},
			"evm": {
				"assembly": "    /* \"Midas_V1.2/LPToken.sol\":328:2484  contract LPToken is ERC721 {... */\n  mstore(0x40, 0xa0)\n    /* \"Midas_V1.2/LPToken.sol\":750:844  constructor(address _factory) {... */\n  callvalue\n  dup1\n  iszero\n  tag_1\n  jumpi\n  0x00\n  dup1\n  revert\ntag_1:\n  pop\n  mload(0x40)\n  sub(codesize, bytecodeSize)\n  dup1\n  bytecodeSize\n  dup4\n  codecopy\n  dup2\n  add\n  0x40\n  dup2\n  swap1\n  mstore\n  tag_2\n  swap2\n  tag_3\n  jump\t// in\ntag_2:\n  sub(shl(0xa0, 0x01), 0x01)\n    /* \"Midas_V1.2/LPToken.sol\":790:808  factory = _factory */\n  and\n  0x80\n  mstore\n    /* \"Midas_V1.2/LPToken.sol\":818:829  initialized */\n  0x08\n    /* \"Midas_V1.2/LPToken.sol\":818:837  initialized = false */\n  dup1\n  sload\n  not(shl(0xa0, 0xff))\n  and\n  swap1\n  sstore\n    /* \"Midas_V1.2/LPToken.sol\":328:2484  contract LPToken is ERC721 {... */\n  jump(tag_7)\n    /* \"#utility.yul\":14:304   */\ntag_3:\n    /* \"#utility.yul\":84:90   */\n  0x00\n    /* \"#utility.yul\":137:139   */\n  0x20\n    /* \"#utility.yul\":125:134   */\n  dup3\n    /* \"#utility.yul\":116:123   */\n  dup5\n    /* \"#utility.yul\":112:135   */\n  sub\n    /* \"#utility.yul\":108:140   */\n  slt\n    /* \"#utility.yul\":105:157   */\n  iszero\n  tag_9\n  jumpi\n    /* \"#utility.yul\":153:154   */\n  0x00\n    /* \"#utility.yul\":150:151   */\n  dup1\n    /* \"#utility.yul\":143:155   */\n  revert\n    /* \"#utility.yul\":105:157   */\ntag_9:\n    /* \"#utility.yul\":179:195   */\n  dup2\n  mload\n  sub(shl(0xa0, 0x01), 0x01)\n    /* \"#utility.yul\":224:255   */\n  dup2\n  and\n    /* \"#utility.yul\":214:256   */\n  dup2\n  eq\n    /* \"#utility.yul\":204:274   */\n  tag_10\n  jumpi\n    /* \"#utility.yul\":270:271   */\n  0x00\n    /* \"#utility.yul\":267:268   */\n  dup1\n    /* \"#utility.yul\":260:272   */\n  revert\n    /* \"#utility.yul\":204:274   */\ntag_10:\n    /* \"#utility.yul\":293:298   */\n  swap4\n    /* \"#utility.yul\":14:304   */\n  swap3\n  pop\n  pop\n  pop\n  jump\t// out\ntag_7:\n    /* \"Midas_V1.2/LPToken.sol\":328:2484  contract LPToken is ERC721 {... */\n  mload(0x80)\n  codecopy(0x00, dataOffset(sub_0), dataSize(sub_0))\n  0x00\n  assignImmutable(\"0x1cca6d2cec39a0e1e2f69c2ebe2dc3f8c1e03db413c5d1c3e31cdca41ddbc4f2\")\n  return(0x00, dataSize(sub_0))\nstop\n\nsub_0: assembly {\n        /* \"Midas_V1.2/LPToken.sol\":328:2484  contract LPToken is ERC721 {... */\n      mstore(0x40, 0x80)\n      callvalue\n      dup1\n      iszero\n      tag_1\n      jumpi\n      0x00\n      dup1\n      revert\n    tag_1:\n      pop\n      jumpi(tag_2, lt(calldatasize, 0x04))\n      shr(0xe0, calldataload(0x00))\n      dup1\n      0x70a08231\n      gt\n      tag_25\n      jumpi\n      dup1\n      0xa8aa1b31\n      gt\n      tag_26\n      jumpi\n      dup1\n      0xa8aa1b31\n      eq\n      tag_19\n      jumpi\n      dup1\n      0xb7d19fc4\n      eq\n      tag_20\n      jumpi\n      dup1\n      0xb88d4fde\n      eq\n      tag_21\n      jumpi\n      dup1\n      0xc45a0155\n      eq\n      tag_22\n      jumpi\n      dup1\n      0xc87b56dd\n      eq\n      tag_23\n      jumpi\n      dup1\n      0xe985e9c5\n      eq\n      tag_24\n      jumpi\n      0x00\n      dup1\n      revert\n    tag_26:\n      dup1\n      0x70a08231\n      eq\n      tag_14\n      jumpi\n      dup1\n      0x83b43589\n      eq\n      tag_15\n      jumpi\n      dup1\n      0x95d89b41\n      eq\n      tag_16\n      jumpi\n      dup1\n      0x9abe9dfb\n      eq\n      tag_17\n      jumpi\n      dup1\n      0xa22cb465\n      eq\n      tag_18\n      jumpi\n      0x00\n      dup1\n      revert\n    tag_25:\n      dup1\n      0x16dc165b\n      gt\n      tag_27\n      jumpi\n      dup1\n      0x16dc165b\n      eq\n      tag_8\n      jumpi\n      dup1\n      0x23b872dd\n      eq\n      tag_9\n      jumpi\n      dup1\n      0x40c10f19\n      eq\n      tag_10\n      jumpi\n      dup1\n      0x42842e0e\n      eq\n      tag_11\n      jumpi\n      dup1\n      0x42966c68\n      eq\n      tag_12\n      jumpi\n      dup1\n      0x6352211e\n      eq\n      tag_13\n      jumpi\n      0x00\n      dup1\n      revert\n    tag_27:\n      dup1\n      0x01ffc9a7\n      eq\n      tag_3\n      jumpi\n      dup1\n      0x06fdde03\n      eq\n      tag_4\n      jumpi\n      dup1\n      0x081812fc\n      eq\n      tag_5\n      jumpi\n      dup1\n      0x095ea7b3\n      eq\n      tag_6\n      jumpi\n      dup1\n      0x158ef93e\n      eq\n      tag_7\n      jumpi\n    tag_2:\n      0x00\n      dup1\n      revert\n        /* \"Midas_V1.2/libraries/ERC721.sol\":4869:5218  function supportsInterface(... */\n    tag_3:\n      tag_28\n      tag_29\n      calldatasize\n      0x04\n      tag_30\n      jump\t// in\n    tag_29:\n      tag_31\n      jump\t// in\n    tag_28:\n      mload(0x40)\n        /* \"#utility.yul\":565:579   */\n      swap1\n      iszero\n        /* \"#utility.yul\":558:580   */\n      iszero\n        /* \"#utility.yul\":540:581   */\n      dup2\n      mstore\n        /* \"#utility.yul\":528:530   */\n      0x20\n        /* \"#utility.yul\":513:531   */\n      add\n        /* \"Midas_V1.2/libraries/ERC721.sol\":4869:5218  function supportsInterface(... */\n    tag_32:\n      mload(0x40)\n      dup1\n      swap2\n      sub\n      swap1\n      return\n        /* \"Midas_V1.2/LPToken.sol\":362:380  string public name */\n    tag_4:\n      tag_34\n      tag_35\n      jump\t// in\n    tag_34:\n      mload(0x40)\n      tag_32\n      swap2\n      swap1\n      tag_37\n      jump\t// in\n        /* \"Midas_V1.2/libraries/ERC721.sol\":1882:1928  mapping(uint256 => address) public getApproved */\n    tag_5:\n      tag_38\n      tag_39\n      calldatasize\n      0x04\n      tag_40\n      jump\t// in\n    tag_39:\n      mstore(0x20, 0x02)\n      0x00\n      swap1\n      dup2\n      mstore\n      0x40\n      swap1\n      keccak256\n      sload\n      sub(shl(0xa0, 0x01), 0x01)\n      and\n      dup2\n      jump\n    tag_38:\n      mload(0x40)\n      sub(shl(0xa0, 0x01), 0x01)\n        /* \"#utility.yul\":1592:1624   */\n      swap1\n      swap2\n      and\n        /* \"#utility.yul\":1574:1625   */\n      dup2\n      mstore\n        /* \"#utility.yul\":1562:1564   */\n      0x20\n        /* \"#utility.yul\":1547:1565   */\n      add\n        /* \"Midas_V1.2/libraries/ERC721.sol\":1882:1928  mapping(uint256 => address) public getApproved */\n      tag_32\n        /* \"#utility.yul\":1428:1631   */\n      jump\n        /* \"Midas_V1.2/libraries/ERC721.sol\":2376:2692  function approve(address spender, uint256 id) public virtual {... */\n    tag_6:\n      tag_44\n      tag_45\n      calldatasize\n      0x04\n      tag_46\n      jump\t// in\n    tag_45:\n      tag_47\n      jump\t// in\n    tag_44:\n      stop\n        /* \"Midas_V1.2/LPToken.sol\":720:743  bool public initialized */\n    tag_7:\n      sload(0x08)\n      tag_28\n      swap1\n      shl(0xa0, 0x01)\n      swap1\n      div\n      0xff\n      and\n      dup2\n      jump\n        /* \"Midas_V1.2/LPToken.sol\":605:626  address public tokenX */\n    tag_8:\n      sload(0x07)\n      tag_38\n      swap1\n      sub(shl(0xa0, 0x01), 0x01)\n      and\n      dup2\n      jump\n        /* \"Midas_V1.2/libraries/ERC721.sol\":2907:3650  function transferFrom(address from, address to, uint256 id) public virtual {... */\n    tag_9:\n      tag_44\n      tag_55\n      calldatasize\n      0x04\n      tag_56\n      jump\t// in\n    tag_55:\n      tag_57\n      jump\t// in\n        /* \"Midas_V1.2/LPToken.sol\":1917:2049  function mint(address to, uint256 tokenId) external virtual {... */\n    tag_10:\n      tag_44\n      tag_59\n      calldatasize\n      0x04\n      tag_46\n      jump\t// in\n    tag_59:\n      tag_60\n      jump\t// in\n        /* \"Midas_V1.2/libraries/ERC721.sol\":3656:4150  function safeTransferFrom(... */\n    tag_11:\n      tag_44\n      tag_62\n      calldatasize\n      0x04\n      tag_56\n      jump\t// in\n    tag_62:\n      tag_63\n      jump\t// in\n        /* \"Midas_V1.2/LPToken.sol\":2055:2171  function burn(uint256 tokenId) external virtual {... */\n    tag_12:\n      tag_44\n      tag_65\n      calldatasize\n      0x04\n      tag_40\n      jump\t// in\n    tag_65:\n      tag_66\n      jump\t// in\n        /* \"Midas_V1.2/libraries/ERC721.sol\":1365:1514  function ownerOf(uint256 id) public view virtual returns (address owner) {... */\n    tag_13:\n      tag_38\n      tag_68\n      calldatasize\n      0x04\n      tag_40\n      jump\t// in\n    tag_68:\n      tag_69\n      jump\t// in\n        /* \"Midas_V1.2/libraries/ERC721.sol\":1520:1688  function balanceOf(address owner) public view virtual returns (uint256) {... */\n    tag_14:\n      tag_71\n      tag_72\n      calldatasize\n      0x04\n      tag_73\n      jump\t// in\n    tag_72:\n      tag_74\n      jump\t// in\n    tag_71:\n      mload(0x40)\n        /* \"#utility.yul\":2743:2768   */\n      swap1\n      dup2\n      mstore\n        /* \"#utility.yul\":2731:2733   */\n      0x20\n        /* \"#utility.yul\":2716:2734   */\n      add\n        /* \"Midas_V1.2/libraries/ERC721.sol\":1520:1688  function balanceOf(address owner) public view virtual returns (uint256) {... */\n      tag_32\n        /* \"#utility.yul\":2597:2774   */\n      jump\n        /* \"Midas_V1.2/LPToken.sol\":851:1267  function initialize(... */\n    tag_15:\n      tag_44\n      tag_78\n      calldatasize\n      0x04\n      tag_79\n      jump\t// in\n    tag_78:\n      tag_80\n      jump\t// in\n        /* \"Midas_V1.2/LPToken.sol\":386:406  string public symbol */\n    tag_16:\n      tag_34\n      tag_82\n      jump\t// in\n        /* \"Midas_V1.2/LPToken.sol\":2292:2482  function getReserves(uint128 tokenId) external view virtual returns (uint128 xReserves, uint128 yReserves) {... */\n    tag_17:\n      tag_84\n      tag_85\n      calldatasize\n      0x04\n      tag_86\n      jump\t// in\n    tag_85:\n      tag_87\n      jump\t// in\n    tag_84:\n      0x40\n      dup1\n      mload\n      sub(shl(0x80, 0x01), 0x01)\n        /* \"#utility.yul\":4700:4715   */\n      swap4\n      dup5\n      and\n        /* \"#utility.yul\":4682:4716   */\n      dup2\n      mstore\n        /* \"#utility.yul\":4752:4767   */\n      swap3\n      swap1\n      swap2\n      and\n        /* \"#utility.yul\":4747:4749   */\n      0x20\n        /* \"#utility.yul\":4732:4750   */\n      dup4\n      add\n        /* \"#utility.yul\":4725:4768   */\n      mstore\n        /* \"#utility.yul\":4617:4635   */\n      add\n        /* \"Midas_V1.2/LPToken.sol\":2292:2482  function getReserves(uint128 tokenId) external view virtual returns (uint128 xReserves, uint128 yReserves) {... */\n      tag_32\n        /* \"#utility.yul\":4470:4774   */\n      jump\n        /* \"Midas_V1.2/libraries/ERC721.sol\":2698:2901  function setApprovalForAll(address operator, bool approved) public virtual {... */\n    tag_18:\n      tag_44\n      tag_91\n      calldatasize\n      0x04\n      tag_92\n      jump\t// in\n    tag_91:\n      tag_93\n      jump\t// in\n        /* \"Midas_V1.2/LPToken.sol\":557:576  address public pair */\n    tag_19:\n      sload(0x06)\n      tag_38\n      swap1\n      sub(shl(0xa0, 0x01), 0x01)\n      and\n      dup2\n      jump\n        /* \"Midas_V1.2/LPToken.sol\":655:676  address public tokenY */\n    tag_20:\n      sload(0x08)\n      tag_38\n      swap1\n      sub(shl(0xa0, 0x01), 0x01)\n      and\n      dup2\n      jump\n        /* \"Midas_V1.2/libraries/ERC721.sol\":4156:4681  function safeTransferFrom(... */\n    tag_21:\n      tag_44\n      tag_101\n      calldatasize\n      0x04\n      tag_102\n      jump\t// in\n    tag_101:\n      tag_103\n      jump\t// in\n        /* \"Midas_V1.2/LPToken.sol\":499:531  address public immutable factory */\n    tag_22:\n      tag_38\n      immutable(\"0x1cca6d2cec39a0e1e2f69c2ebe2dc3f8c1e03db413c5d1c3e31cdca41ddbc4f2\")\n      dup2\n      jump\n        /* \"Midas_V1.2/LPToken.sol\":1273:1911  function tokenURI(uint256 tokenId)... */\n    tag_23:\n      tag_34\n      tag_108\n      calldatasize\n      0x04\n      tag_40\n      jump\t// in\n    tag_108:\n      tag_109\n      jump\t// in\n        /* \"Midas_V1.2/libraries/ERC721.sol\":1935:2003  mapping(address => mapping(address => bool)) public isApprovedForAll */\n    tag_24:\n      tag_28\n      tag_112\n      calldatasize\n      0x04\n      tag_113\n      jump\t// in\n    tag_112:\n      0x03\n      0x20\n      swap1\n      dup2\n      mstore\n      0x00\n      swap3\n      dup4\n      mstore\n      0x40\n      dup1\n      dup5\n      keccak256\n      swap1\n      swap2\n      mstore\n      swap1\n      dup3\n      mstore\n      swap1\n      keccak256\n      sload\n      0xff\n      and\n      dup2\n      jump\n        /* \"Midas_V1.2/libraries/ERC721.sol\":4869:5218  function supportsInterface(... */\n    tag_31:\n        /* \"Midas_V1.2/libraries/ERC721.sol\":4959:4963  bool */\n      0x00\n      shl(0xe0, 0x01ffc9a7)\n      not(sub(shl(0xe0, 0x01), 0x01))\n        /* \"Midas_V1.2/libraries/ERC721.sol\":4994:5019  interfaceId == 0x01ffc9a7 */\n      dup4\n      and\n      eq\n      dup1\n        /* \"Midas_V1.2/libraries/ERC721.sol\":4994:5094  interfaceId == 0x01ffc9a7 || // ERC165 Interface ID for ERC165... */\n      tag_117\n      jumpi\n      pop\n      shl(0xe0, 0x80ac58cd)\n      not(sub(shl(0xe0, 0x01), 0x01))\n        /* \"Midas_V1.2/libraries/ERC721.sol\":5069:5094  interfaceId == 0x80ac58cd */\n      dup4\n      and\n      eq\n        /* \"Midas_V1.2/libraries/ERC721.sol\":4994:5094  interfaceId == 0x01ffc9a7 || // ERC165 Interface ID for ERC165... */\n    tag_117:\n        /* \"Midas_V1.2/libraries/ERC721.sol\":4994:5169  interfaceId == 0x01ffc9a7 || // ERC165 Interface ID for ERC165... */\n      dup1\n      tag_118\n      jumpi\n      pop\n      shl(0xe0, 0x5b5e139f)\n      not(sub(shl(0xe0, 0x01), 0x01))\n        /* \"Midas_V1.2/libraries/ERC721.sol\":5144:5169  interfaceId == 0x5b5e139f */\n      dup4\n      and\n      eq\n        /* \"Midas_V1.2/libraries/ERC721.sol\":4994:5169  interfaceId == 0x01ffc9a7 || // ERC165 Interface ID for ERC165... */\n    tag_118:\n        /* \"Midas_V1.2/libraries/ERC721.sol\":4975:5169  return... */\n      swap3\n        /* \"Midas_V1.2/libraries/ERC721.sol\":4869:5218  function supportsInterface(... */\n      swap2\n      pop\n      pop\n      jump\t// out\n        /* \"Midas_V1.2/LPToken.sol\":362:380  string public name */\n    tag_35:\n      0x04\n      dup1\n      sload\n      tag_119\n      swap1\n      tag_120\n      jump\t// in\n    tag_119:\n      dup1\n      0x1f\n      add\n      0x20\n      dup1\n      swap2\n      div\n      mul\n      0x20\n      add\n      mload(0x40)\n      swap1\n      dup2\n      add\n      0x40\n      mstore\n      dup1\n      swap3\n      swap2\n      swap1\n      dup2\n      dup2\n      mstore\n      0x20\n      add\n      dup3\n      dup1\n      sload\n      tag_121\n      swap1\n      tag_120\n      jump\t// in\n    tag_121:\n      dup1\n      iszero\n      tag_122\n      jumpi\n      dup1\n      0x1f\n      lt\n      tag_123\n      jumpi\n      0x0100\n      dup1\n      dup4\n      sload\n      div\n      mul\n      dup4\n      mstore\n      swap2\n      0x20\n      add\n      swap2\n      jump(tag_122)\n    tag_123:\n      dup3\n      add\n      swap2\n      swap1\n      0x00\n      mstore\n      keccak256(0x00, 0x20)\n      swap1\n    tag_124:\n      dup2\n      sload\n      dup2\n      mstore\n      swap1\n      0x01\n      add\n      swap1\n      0x20\n      add\n      dup1\n      dup4\n      gt\n      tag_124\n      jumpi\n      dup3\n      swap1\n      sub\n      0x1f\n      and\n      dup3\n      add\n      swap2\n    tag_122:\n      pop\n      pop\n      pop\n      pop\n      pop\n      dup2\n      jump\t// out\n        /* \"Midas_V1.2/libraries/ERC721.sol\":2376:2692  function approve(address spender, uint256 id) public virtual {... */\n    tag_47:\n        /* \"Midas_V1.2/libraries/ERC721.sol\":2447:2460  address owner */\n      0x00\n        /* \"Midas_V1.2/libraries/ERC721.sol\":2463:2475  _ownerOf[id] */\n      dup2\n      dup2\n      mstore\n      0x20\n      dup2\n      swap1\n      mstore\n      0x40\n      swap1\n      keccak256\n      sload\n      sub(shl(0xa0, 0x01), 0x01)\n      and\n        /* \"Midas_V1.2/libraries/ERC721.sol\":2507:2517  msg.sender */\n      caller\n        /* \"Midas_V1.2/libraries/ERC721.sol\":2507:2526  msg.sender == owner */\n      dup2\n      eq\n      dup1\n        /* \"Midas_V1.2/libraries/ERC721.sol\":2507:2565  msg.sender == owner || isApprovedForAll[owner][msg.sender] */\n      tag_126\n      jumpi\n      pop\n      sub(shl(0xa0, 0x01), 0x01)\n        /* \"Midas_V1.2/libraries/ERC721.sol\":2530:2553  isApprovedForAll[owner] */\n      dup2\n      and\n      0x00\n      swap1\n      dup2\n      mstore\n        /* \"Midas_V1.2/libraries/ERC721.sol\":2530:2546  isApprovedForAll */\n      0x03\n        /* \"Midas_V1.2/libraries/ERC721.sol\":2530:2553  isApprovedForAll[owner] */\n      0x20\n      swap1\n      dup2\n      mstore\n      0x40\n      dup1\n      dup4\n      keccak256\n        /* \"Midas_V1.2/libraries/ERC721.sol\":2554:2564  msg.sender */\n      caller\n        /* \"Midas_V1.2/libraries/ERC721.sol\":2530:2565  isApprovedForAll[owner][msg.sender] */\n      dup5\n      mstore\n      swap1\n      swap2\n      mstore\n      swap1\n      keccak256\n      sload\n      0xff\n      and\n        /* \"Midas_V1.2/libraries/ERC721.sol\":2507:2565  msg.sender == owner || isApprovedForAll[owner][msg.sender] */\n    tag_126:\n        /* \"Midas_V1.2/libraries/ERC721.sol\":2486:2605  require(... */\n      tag_127\n      jumpi\n      mload(0x40)\n      shl(0xe5, 0x461bcd)\n      dup2\n      mstore\n      0x04\n      add\n      tag_128\n      swap1\n      tag_129\n      jump\t// in\n    tag_128:\n      mload(0x40)\n      dup1\n      swap2\n      sub\n      swap1\n      revert\n    tag_127:\n        /* \"Midas_V1.2/libraries/ERC721.sol\":2616:2631  getApproved[id] */\n      0x00\n      dup3\n      dup2\n      mstore\n        /* \"Midas_V1.2/libraries/ERC721.sol\":2616:2627  getApproved */\n      0x02\n        /* \"Midas_V1.2/libraries/ERC721.sol\":2616:2631  getApproved[id] */\n      0x20\n      mstore\n      0x40\n      dup1\n      dup3\n      keccak256\n        /* \"Midas_V1.2/libraries/ERC721.sol\":2616:2641  getApproved[id] = spender */\n      dup1\n      sload\n      not(sub(shl(0xa0, 0x01), 0x01))\n      and\n      sub(shl(0xa0, 0x01), 0x01)\n      dup8\n      dup2\n      and\n      swap2\n      dup3\n      or\n      swap1\n      swap3\n      sstore\n        /* \"Midas_V1.2/libraries/ERC721.sol\":2657:2685  Approval(owner, spender, id) */\n      swap2\n      mload\n        /* \"Midas_V1.2/libraries/ERC721.sol\":2616:2631  getApproved[id] */\n      dup6\n      swap4\n        /* \"Midas_V1.2/libraries/ERC721.sol\":2657:2685  Approval(owner, spender, id) */\n      swap2\n      dup6\n      and\n      swap2\n      0x8c5be1e5ebec7d5bd14f71427d1e84f3dd0314c0f7b2291e5b200ac8c7c3b925\n      swap2\n      log4\n        /* \"Midas_V1.2/libraries/ERC721.sol\":2437:2692  {... */\n      pop\n        /* \"Midas_V1.2/libraries/ERC721.sol\":2376:2692  function approve(address spender, uint256 id) public virtual {... */\n      pop\n      pop\n      jump\t// out\n        /* \"Midas_V1.2/libraries/ERC721.sol\":2907:3650  function transferFrom(address from, address to, uint256 id) public virtual {... */\n    tag_57:\n        /* \"Midas_V1.2/libraries/ERC721.sol\":3008:3016  _ownerOf */\n      0x00\n        /* \"Midas_V1.2/libraries/ERC721.sol\":3008:3020  _ownerOf[id] */\n      dup2\n      dup2\n      mstore\n      0x20\n      dup2\n      swap1\n      mstore\n      0x40\n      swap1\n      keccak256\n      sload\n      sub(shl(0xa0, 0x01), 0x01)\n        /* \"Midas_V1.2/libraries/ERC721.sol\":3000:3020  from == _ownerOf[id] */\n      dup5\n      dup2\n      and\n        /* \"Midas_V1.2/libraries/ERC721.sol\":3008:3020  _ownerOf[id] */\n      swap2\n      and\n        /* \"Midas_V1.2/libraries/ERC721.sol\":3000:3020  from == _ownerOf[id] */\n      eq\n        /* \"Midas_V1.2/libraries/ERC721.sol\":2992:3035  require(from == _ownerOf[id], \"WRONG_FROM\") */\n      tag_131\n      jumpi\n      mload(0x40)\n      shl(0xe5, 0x461bcd)\n      dup2\n      mstore\n        /* \"#utility.yul\":6958:6960   */\n      0x20\n        /* \"Midas_V1.2/libraries/ERC721.sol\":2992:3035  require(from == _ownerOf[id], \"WRONG_FROM\") */\n      0x04\n      dup3\n      add\n        /* \"#utility.yul\":6940:6961   */\n      mstore\n        /* \"#utility.yul\":6997:6999   */\n      0x0a\n        /* \"#utility.yul\":6977:6995   */\n      0x24\n      dup3\n      add\n        /* \"#utility.yul\":6970:7000   */\n      mstore\n      shl(0xb0, 0x57524f4e475f46524f4d)\n        /* \"#utility.yul\":7016:7034   */\n      0x44\n      dup3\n      add\n        /* \"#utility.yul\":7009:7049   */\n      mstore\n        /* \"#utility.yul\":7066:7084   */\n      0x64\n      add\n        /* \"Midas_V1.2/libraries/ERC721.sol\":2992:3035  require(from == _ownerOf[id], \"WRONG_FROM\") */\n      tag_128\n        /* \"#utility.yul\":6756:7090   */\n      jump\n        /* \"Midas_V1.2/libraries/ERC721.sol\":2992:3035  require(from == _ownerOf[id], \"WRONG_FROM\") */\n    tag_131:\n      sub(shl(0xa0, 0x01), 0x01)\n        /* \"Midas_V1.2/libraries/ERC721.sol\":3054:3070  to != address(0) */\n      dup3\n      and\n        /* \"Midas_V1.2/libraries/ERC721.sol\":3046:3092  require(to != address(0), \"INVALID_RECIPIENT\") */\n      tag_134\n      jumpi\n      mload(0x40)\n      shl(0xe5, 0x461bcd)\n      dup2\n      mstore\n      0x04\n      add\n      tag_128\n      swap1\n      tag_136\n      jump\t// in\n    tag_134:\n        /* \"Midas_V1.2/libraries/ERC721.sol\":3124:3134  msg.sender */\n      caller\n      sub(shl(0xa0, 0x01), 0x01)\n        /* \"Midas_V1.2/libraries/ERC721.sol\":3124:3142  msg.sender == from */\n      dup5\n      and\n      eq\n      dup1\n        /* \"Midas_V1.2/libraries/ERC721.sol\":3124:3196  msg.sender == from ||... */\n      tag_137\n      jumpi\n      pop\n      sub(shl(0xa0, 0x01), 0x01)\n        /* \"Midas_V1.2/libraries/ERC721.sol\":3162:3184  isApprovedForAll[from] */\n      dup4\n      and\n      0x00\n      swap1\n      dup2\n      mstore\n        /* \"Midas_V1.2/libraries/ERC721.sol\":3162:3178  isApprovedForAll */\n      0x03\n        /* \"Midas_V1.2/libraries/ERC721.sol\":3162:3184  isApprovedForAll[from] */\n      0x20\n      swap1\n      dup2\n      mstore\n      0x40\n      dup1\n      dup4\n      keccak256\n        /* \"Midas_V1.2/libraries/ERC721.sol\":3185:3195  msg.sender */\n      caller\n        /* \"Midas_V1.2/libraries/ERC721.sol\":3162:3196  isApprovedForAll[from][msg.sender] */\n      dup5\n      mstore\n      swap1\n      swap2\n      mstore\n      swap1\n      keccak256\n      sload\n      0xff\n      and\n        /* \"Midas_V1.2/libraries/ERC721.sol\":3124:3196  msg.sender == from ||... */\n    tag_137:\n        /* \"Midas_V1.2/libraries/ERC721.sol\":3124:3245  msg.sender == from ||... */\n      dup1\n      tag_138\n      jumpi\n      pop\n        /* \"Midas_V1.2/libraries/ERC721.sol\":3230:3245  getApproved[id] */\n      0x00\n      dup2\n      dup2\n      mstore\n        /* \"Midas_V1.2/libraries/ERC721.sol\":3230:3241  getApproved */\n      0x02\n        /* \"Midas_V1.2/libraries/ERC721.sol\":3230:3245  getApproved[id] */\n      0x20\n      mstore\n      0x40\n      swap1\n      keccak256\n      sload\n      sub(shl(0xa0, 0x01), 0x01)\n      and\n        /* \"Midas_V1.2/libraries/ERC721.sol\":3216:3226  msg.sender */\n      caller\n        /* \"Midas_V1.2/libraries/ERC721.sol\":3216:3245  msg.sender == getApproved[id] */\n      eq\n        /* \"Midas_V1.2/libraries/ERC721.sol\":3124:3245  msg.sender == from ||... */\n    tag_138:\n        /* \"Midas_V1.2/libraries/ERC721.sol\":3103:3285  require(... */\n      tag_139\n      jumpi\n      mload(0x40)\n      shl(0xe5, 0x461bcd)\n      dup2\n      mstore\n      0x04\n      add\n      tag_128\n      swap1\n      tag_129\n      jump\t// in\n    tag_139:\n      sub(shl(0xa0, 0x01), 0x01)\n        /* \"Midas_V1.2/libraries/ERC721.sol\":3485:3501  _balanceOf[from] */\n      dup1\n      dup5\n      and\n      0x00\n      dup2\n      dup2\n      mstore\n        /* \"Midas_V1.2/libraries/ERC721.sol\":3485:3495  _balanceOf */\n      0x01\n        /* \"Midas_V1.2/libraries/ERC721.sol\":3485:3501  _balanceOf[from] */\n      0x20\n      dup2\n      dup2\n      mstore\n      0x40\n      dup1\n      dup5\n      keccak256\n        /* \"Midas_V1.2/libraries/ERC721.sol\":3485:3503  _balanceOf[from]-- */\n      dup1\n      sload\n      not(0x00)\n      add\n      swap1\n      sstore\n        /* \"Midas_V1.2/libraries/ERC721.sol\":3518:3532  _balanceOf[to] */\n      swap5\n      dup8\n      and\n      dup1\n      dup5\n      mstore\n      dup6\n      dup5\n      keccak256\n        /* \"Midas_V1.2/libraries/ERC721.sol\":3518:3534  _balanceOf[to]++ */\n      dup1\n      sload\n      swap1\n      swap4\n      add\n      swap1\n      swap3\n      sstore\n        /* \"Midas_V1.2/libraries/ERC721.sol\":3555:3567  _ownerOf[id] */\n      dup6\n      dup4\n      mstore\n      dup3\n      dup2\n      mstore\n      dup5\n      dup4\n      keccak256\n        /* \"Midas_V1.2/libraries/ERC721.sol\":3555:3572  _ownerOf[id] = to */\n      dup1\n      sload\n      not(sub(shl(0xa0, 0x01), 0x01))\n      swap1\n      dup2\n      and\n      dup5\n      or\n      swap1\n      swap2\n      sstore\n        /* \"Midas_V1.2/libraries/ERC721.sol\":3590:3601  getApproved */\n      0x02\n        /* \"Midas_V1.2/libraries/ERC721.sol\":3590:3605  getApproved[id] */\n      swap1\n      swap2\n      mstore\n      dup5\n      dup4\n      keccak256\n        /* \"Midas_V1.2/libraries/ERC721.sol\":3583:3605  delete getApproved[id] */\n      dup1\n      sload\n      swap1\n      swap2\n      and\n      swap1\n      sstore\n        /* \"Midas_V1.2/libraries/ERC721.sol\":3621:3643  Transfer(from, to, id) */\n      swap3\n      mload\n        /* \"Midas_V1.2/libraries/ERC721.sol\":3564:3566  id */\n      dup5\n      swap4\n        /* \"Midas_V1.2/libraries/ERC721.sol\":3518:3532  _balanceOf[to] */\n      swap3\n        /* \"Midas_V1.2/libraries/ERC721.sol\":3485:3501  _balanceOf[from] */\n      swap2\n      0x00\n      dup1\n      mload\n      0x20\n      data_ada389e1fc24a8587c776340efb91b36e675792ab631816100d55df0b5cf3cbc\n      dup4\n      codecopy\n      dup2\n      mload\n      swap2\n      mstore\n        /* \"Midas_V1.2/libraries/ERC721.sol\":3621:3643  Transfer(from, to, id) */\n      swap2\n      log4\n        /* \"Midas_V1.2/libraries/ERC721.sol\":2907:3650  function transferFrom(address from, address to, uint256 id) public virtual {... */\n      pop\n      pop\n      pop\n      jump\t// out\n        /* \"Midas_V1.2/LPToken.sol\":1917:2049  function mint(address to, uint256 tokenId) external virtual {... */\n    tag_60:\n        /* \"Midas_V1.2/LPToken.sol\":2009:2013  pair */\n      and(sub(shl(0xa0, 0x01), 0x01), sload(0x06))\n        /* \"Midas_V1.2/LPToken.sol\":1995:2005  msg.sender */\n      caller\n        /* \"Midas_V1.2/LPToken.sol\":1995:2013  msg.sender == pair */\n      eq\n        /* \"Midas_V1.2/LPToken.sol\":1987:2014  require(msg.sender == pair) */\n      tag_142\n      jumpi\n      0x00\n      dup1\n      revert\n    tag_142:\n        /* \"Midas_V1.2/LPToken.sol\":2024:2042  _mint(to, tokenId) */\n      tag_143\n        /* \"Midas_V1.2/LPToken.sol\":2030:2032  to */\n      dup3\n        /* \"Midas_V1.2/LPToken.sol\":2034:2041  tokenId */\n      dup3\n        /* \"Midas_V1.2/LPToken.sol\":2024:2029  _mint */\n      tag_144\n        /* \"Midas_V1.2/LPToken.sol\":2024:2042  _mint(to, tokenId) */\n      jump\t// in\n    tag_143:\n        /* \"Midas_V1.2/LPToken.sol\":1917:2049  function mint(address to, uint256 tokenId) external virtual {... */\n      pop\n      pop\n      jump\t// out\n        /* \"Midas_V1.2/libraries/ERC721.sol\":3656:4150  function safeTransferFrom(... */\n    tag_63:\n        /* \"Midas_V1.2/libraries/ERC721.sol\":3775:3801  transferFrom(from, to, id) */\n      tag_146\n        /* \"Midas_V1.2/libraries/ERC721.sol\":3788:3792  from */\n      dup4\n        /* \"Midas_V1.2/libraries/ERC721.sol\":3794:3796  to */\n      dup4\n        /* \"Midas_V1.2/libraries/ERC721.sol\":3798:3800  id */\n      dup4\n        /* \"Midas_V1.2/libraries/ERC721.sol\":3775:3787  transferFrom */\n      tag_57\n        /* \"Midas_V1.2/libraries/ERC721.sol\":3775:3801  transferFrom(from, to, id) */\n      jump\t// in\n    tag_146:\n      sub(shl(0xa0, 0x01), 0x01)\n        /* \"Midas_V1.2/libraries/ERC721.sol\":3833:3847  to.code.length */\n      dup3\n      and\n      extcodesize\n        /* \"Midas_V1.2/libraries/ERC721.sol\":3833:3852  to.code.length == 0 */\n      iszero\n      dup1\n        /* \"Midas_V1.2/libraries/ERC721.sol\":3833:4101  to.code.length == 0 ||... */\n      tag_147\n      jumpi\n      pop\n        /* \"Midas_V1.2/libraries/ERC721.sol\":3872:4036  ERC721TokenReceiver(to).onERC721Received(... */\n      mload(0x40)\n      shl(0xe1, 0x0a85bd01)\n      dup1\n      dup3\n      mstore\n        /* \"Midas_V1.2/libraries/ERC721.sol\":3934:3944  msg.sender */\n      caller\n        /* \"Midas_V1.2/libraries/ERC721.sol\":3872:4036  ERC721TokenReceiver(to).onERC721Received(... */\n      0x04\n      dup4\n      add\n        /* \"#utility.yul\":7746:7780   */\n      mstore\n      sub(shl(0xa0, 0x01), 0x01)\n        /* \"#utility.yul\":7816:7831   */\n      dup6\n      dup2\n      and\n        /* \"#utility.yul\":7796:7814   */\n      0x24\n      dup5\n      add\n        /* \"#utility.yul\":7789:7832   */\n      mstore\n        /* \"#utility.yul\":7848:7866   */\n      0x44\n      dup4\n      add\n        /* \"#utility.yul\":7841:7875   */\n      dup5\n      swap1\n      mstore\n        /* \"#utility.yul\":7911:7914   */\n      0x80\n        /* \"#utility.yul\":7891:7909   */\n      0x64\n      dup5\n      add\n        /* \"#utility.yul\":7884:7915   */\n      mstore\n      0x00\n        /* \"#utility.yul\":7931:7950   */\n      0x84\n      dup5\n      add\n        /* \"#utility.yul\":7924:7954   */\n      mstore\n        /* \"Midas_V1.2/libraries/ERC721.sol\":4056:4101  ERC721TokenReceiver.onERC721Received.selector */\n      swap1\n      swap2\n        /* \"Midas_V1.2/libraries/ERC721.sol\":3872:3912  ERC721TokenReceiver(to).onERC721Received */\n      swap1\n      dup5\n      and\n      swap1\n        /* \"Midas_V1.2/libraries/ERC721.sol\":4056:4101  ERC721TokenReceiver.onERC721Received.selector */\n      0x150b7a02\n      swap1\n        /* \"#utility.yul\":7971:7990   */\n      0xa4\n      add\n        /* \"Midas_V1.2/libraries/ERC721.sol\":3872:4036  ERC721TokenReceiver(to).onERC721Received(... */\n      0x20\n      mload(0x40)\n      dup1\n      dup4\n      sub\n      dup2\n      0x00\n      dup8\n      gas\n      call\n      iszero\n      dup1\n      iszero\n      tag_151\n      jumpi\n      returndatasize\n      0x00\n      dup1\n      returndatacopy\n      revert(0x00, returndatasize)\n    tag_151:\n      pop\n      pop\n      pop\n      pop\n      mload(0x40)\n      returndatasize\n      not(0x1f)\n      0x1f\n      dup3\n      add\n      and\n      dup3\n      add\n      dup1\n      0x40\n      mstore\n      pop\n      dup2\n      add\n      swap1\n      tag_152\n      swap2\n      swap1\n      tag_153\n      jump\t// in\n    tag_152:\n      not(sub(shl(0xe0, 0x01), 0x01))\n        /* \"Midas_V1.2/libraries/ERC721.sol\":3872:4101  ERC721TokenReceiver(to).onERC721Received(... */\n      and\n      eq\n        /* \"Midas_V1.2/libraries/ERC721.sol\":3833:4101  to.code.length == 0 ||... */\n    tag_147:\n        /* \"Midas_V1.2/libraries/ERC721.sol\":3812:4143  require(... */\n      tag_154\n      jumpi\n      mload(0x40)\n      shl(0xe5, 0x461bcd)\n      dup2\n      mstore\n      0x04\n      add\n      tag_128\n      swap1\n      tag_156\n      jump\t// in\n    tag_154:\n        /* \"Midas_V1.2/libraries/ERC721.sol\":3656:4150  function safeTransferFrom(... */\n      pop\n      pop\n      pop\n      jump\t// out\n        /* \"Midas_V1.2/LPToken.sol\":2055:2171  function burn(uint256 tokenId) external virtual {... */\n    tag_66:\n        /* \"Midas_V1.2/LPToken.sol\":2135:2139  pair */\n      and(sub(shl(0xa0, 0x01), 0x01), sload(0x06))\n        /* \"Midas_V1.2/LPToken.sol\":2121:2131  msg.sender */\n      caller\n        /* \"Midas_V1.2/LPToken.sol\":2121:2139  msg.sender == pair */\n      eq\n        /* \"Midas_V1.2/LPToken.sol\":2113:2140  require(msg.sender == pair) */\n      tag_158\n      jumpi\n      0x00\n      dup1\n      revert\n    tag_158:\n        /* \"Midas_V1.2/LPToken.sol\":2150:2164  _burn(tokenId) */\n      tag_159\n        /* \"Midas_V1.2/LPToken.sol\":2156:2163  tokenId */\n      dup2\n        /* \"Midas_V1.2/LPToken.sol\":2150:2155  _burn */\n      tag_160\n        /* \"Midas_V1.2/LPToken.sol\":2150:2164  _burn(tokenId) */\n      jump\t// in\n    tag_159:\n        /* \"Midas_V1.2/LPToken.sol\":2055:2171  function burn(uint256 tokenId) external virtual {... */\n      pop\n      jump\t// out\n        /* \"Midas_V1.2/libraries/ERC721.sol\":1365:1514  function ownerOf(uint256 id) public view virtual returns (address owner) {... */\n    tag_69:\n        /* \"Midas_V1.2/libraries/ERC721.sol\":1423:1436  address owner */\n      0x00\n        /* \"Midas_V1.2/libraries/ERC721.sol\":1465:1477  _ownerOf[id] */\n      dup2\n      dup2\n      mstore\n      0x20\n      dup2\n      swap1\n      mstore\n      0x40\n      swap1\n      keccak256\n      sload\n      sub(shl(0xa0, 0x01), 0x01)\n      and\n        /* \"Midas_V1.2/libraries/ERC721.sol\":1456:1492  (owner = _ownerOf[id]) != address(0) */\n      dup1\n        /* \"Midas_V1.2/libraries/ERC721.sol\":1448:1507  require((owner = _ownerOf[id]) != address(0), \"NOT_MINTED\") */\n      tag_162\n      jumpi\n      mload(0x40)\n      shl(0xe5, 0x461bcd)\n      dup2\n      mstore\n      0x04\n      add\n      tag_128\n      swap1\n      tag_164\n      jump\t// in\n    tag_162:\n        /* \"Midas_V1.2/libraries/ERC721.sol\":1365:1514  function ownerOf(uint256 id) public view virtual returns (address owner) {... */\n      swap2\n      swap1\n      pop\n      jump\t// out\n        /* \"Midas_V1.2/libraries/ERC721.sol\":1520:1688  function balanceOf(address owner) public view virtual returns (uint256) {... */\n    tag_74:\n        /* \"Midas_V1.2/libraries/ERC721.sol\":1583:1590  uint256 */\n      0x00\n      sub(shl(0xa0, 0x01), 0x01)\n        /* \"Midas_V1.2/libraries/ERC721.sol\":1610:1629  owner != address(0) */\n      dup3\n      and\n        /* \"Midas_V1.2/libraries/ERC721.sol\":1602:1646  require(owner != address(0), \"ZERO_ADDRESS\") */\n      tag_166\n      jumpi\n      mload(0x40)\n      shl(0xe5, 0x461bcd)\n      dup2\n      mstore\n        /* \"#utility.yul\":9141:9143   */\n      0x20\n        /* \"Midas_V1.2/libraries/ERC721.sol\":1602:1646  require(owner != address(0), \"ZERO_ADDRESS\") */\n      0x04\n      dup3\n      add\n        /* \"#utility.yul\":9123:9144   */\n      mstore\n        /* \"#utility.yul\":9180:9182   */\n      0x0c\n        /* \"#utility.yul\":9160:9178   */\n      0x24\n      dup3\n      add\n        /* \"#utility.yul\":9153:9183   */\n      mstore\n      shl(0xa0, 0x5a45524f5f41444452455353)\n        /* \"#utility.yul\":9199:9217   */\n      0x44\n      dup3\n      add\n        /* \"#utility.yul\":9192:9234   */\n      mstore\n        /* \"#utility.yul\":9251:9269   */\n      0x64\n      add\n        /* \"Midas_V1.2/libraries/ERC721.sol\":1602:1646  require(owner != address(0), \"ZERO_ADDRESS\") */\n      tag_128\n        /* \"#utility.yul\":8939:9275   */\n      jump\n        /* \"Midas_V1.2/libraries/ERC721.sol\":1602:1646  require(owner != address(0), \"ZERO_ADDRESS\") */\n    tag_166:\n      pop\n      sub(shl(0xa0, 0x01), 0x01)\n        /* \"Midas_V1.2/libraries/ERC721.sol\":1664:1681  _balanceOf[owner] */\n      and\n      0x00\n      swap1\n      dup2\n      mstore\n        /* \"Midas_V1.2/libraries/ERC721.sol\":1664:1674  _balanceOf */\n      0x01\n        /* \"Midas_V1.2/libraries/ERC721.sol\":1664:1681  _balanceOf[owner] */\n      0x20\n      mstore\n      0x40\n      swap1\n      keccak256\n      sload\n      swap1\n        /* \"Midas_V1.2/libraries/ERC721.sol\":1520:1688  function balanceOf(address owner) public view virtual returns (uint256) {... */\n      jump\t// out\n        /* \"Midas_V1.2/LPToken.sol\":851:1267  function initialize(... */\n    tag_80:\n        /* \"Midas_V1.2/LPToken.sol\":1049:1059  msg.sender */\n      caller\n      sub(shl(0xa0, 0x01), 0x01)\n        /* \"Midas_V1.2/LPToken.sol\":1063:1070  factory */\n      immutable(\"0x1cca6d2cec39a0e1e2f69c2ebe2dc3f8c1e03db413c5d1c3e31cdca41ddbc4f2\")\n        /* \"Midas_V1.2/LPToken.sol\":1049:1070  msg.sender == factory */\n      and\n      eq\n        /* \"Midas_V1.2/LPToken.sol\":1041:1071  require(msg.sender == factory) */\n      tag_170\n      jumpi\n      0x00\n      dup1\n      revert\n    tag_170:\n        /* \"Midas_V1.2/LPToken.sol\":1089:1100  initialized */\n      sload(0x08)\n      shl(0xa0, 0x01)\n      swap1\n      div\n      0xff\n      and\n        /* \"Midas_V1.2/LPToken.sol\":1089:1109  initialized == false */\n      iszero\n        /* \"Midas_V1.2/LPToken.sol\":1081:1110  require(initialized == false) */\n      tag_171\n      jumpi\n      0x00\n      dup1\n      revert\n    tag_171:\n        /* \"Midas_V1.2/LPToken.sol\":1120:1124  pair */\n      0x06\n        /* \"Midas_V1.2/LPToken.sol\":1120:1132  pair = _pair */\n      dup1\n      sload\n      sub(shl(0xa0, 0x01), 0x01)\n      dup1\n      dup11\n      and\n      not(sub(shl(0xa0, 0x01), 0x01))\n      swap3\n      dup4\n      and\n      or\n      swap1\n      swap3\n      sstore\n        /* \"Midas_V1.2/LPToken.sol\":1142:1148  tokenX */\n      0x07\n        /* \"Midas_V1.2/LPToken.sol\":1142:1158  tokenX = _tokenX */\n      dup1\n      sload\n      dup10\n      dup5\n      and\n      swap1\n      dup4\n      and\n      or\n      swap1\n      sstore\n        /* \"Midas_V1.2/LPToken.sol\":1168:1174  tokenY */\n      0x08\n        /* \"Midas_V1.2/LPToken.sol\":1168:1184  tokenY = _tokenY */\n      dup1\n      sload\n      swap3\n      dup9\n      and\n      swap3\n      swap1\n      swap2\n      and\n      swap2\n      swap1\n      swap2\n      or\n      swap1\n      sstore\n        /* \"Midas_V1.2/LPToken.sol\":1194:1206  name = _name */\n      tag_172\n        /* \"Midas_V1.2/LPToken.sol\":1194:1198  name */\n      0x04\n        /* \"Midas_V1.2/LPToken.sol\":1201:1206  _name */\n      dup6\n      dup6\n        /* \"Midas_V1.2/LPToken.sol\":1194:1206  name = _name */\n      tag_173\n      jump\t// in\n    tag_172:\n      pop\n        /* \"Midas_V1.2/LPToken.sol\":1216:1232  symbol = _symbol */\n      tag_174\n        /* \"Midas_V1.2/LPToken.sol\":1216:1222  symbol */\n      0x05\n        /* \"Midas_V1.2/LPToken.sol\":1225:1232  _symbol */\n      dup4\n      dup4\n        /* \"Midas_V1.2/LPToken.sol\":1216:1232  symbol = _symbol */\n      tag_173\n      jump\t// in\n    tag_174:\n      pop\n      pop\n        /* \"Midas_V1.2/LPToken.sol\":1242:1253  initialized */\n      0x08\n        /* \"Midas_V1.2/LPToken.sol\":1242:1260  initialized = true */\n      dup1\n      sload\n      not(shl(0xa0, 0xff))\n      and\n      shl(0xa0, 0x01)\n      or\n      swap1\n      sstore\n      pop\n      pop\n      pop\n      pop\n      pop\n      pop\n        /* \"Midas_V1.2/LPToken.sol\":851:1267  function initialize(... */\n      jump\t// out\n        /* \"Midas_V1.2/LPToken.sol\":386:406  string public symbol */\n    tag_82:\n      0x05\n      dup1\n      sload\n      tag_119\n      swap1\n      tag_120\n      jump\t// in\n        /* \"Midas_V1.2/LPToken.sol\":2292:2482  function getReserves(uint128 tokenId) external view virtual returns (uint128 xReserves, uint128 yReserves) {... */\n    tag_87:\n        /* \"Midas_V1.2/LPToken.sol\":2448:2452  pair */\n      sload(0x06)\n        /* \"Midas_V1.2/LPToken.sol\":2434:2475  IMidasPair721(pair).getLpReserve(tokenId) */\n      mload(0x40)\n      shl(0xe0, 0xeef1c5f5)\n      dup2\n      mstore\n      sub(shl(0x80, 0x01), 0x01)\n        /* \"#utility.yul\":9444:9476   */\n      dup4\n      and\n        /* \"Midas_V1.2/LPToken.sol\":2434:2475  IMidasPair721(pair).getLpReserve(tokenId) */\n      0x04\n      dup3\n      add\n        /* \"#utility.yul\":9426:9477   */\n      mstore\n        /* \"Midas_V1.2/LPToken.sol\":2361:2378  uint128 xReserves */\n      0x00\n      swap2\n      dup3\n      swap2\n      sub(shl(0xa0, 0x01), 0x01)\n        /* \"Midas_V1.2/LPToken.sol\":2448:2452  pair */\n      swap1\n      swap2\n      and\n      swap1\n        /* \"Midas_V1.2/LPToken.sol\":2434:2466  IMidasPair721(pair).getLpReserve */\n      0xeef1c5f5\n      swap1\n        /* \"#utility.yul\":9399:9417   */\n      0x24\n      add\n        /* \"Midas_V1.2/LPToken.sol\":2434:2475  IMidasPair721(pair).getLpReserve(tokenId) */\n      0x40\n      dup1\n      mload\n      dup1\n      dup4\n      sub\n      dup2\n      dup7\n      gas\n      staticcall\n      iszero\n      dup1\n      iszero\n      tag_184\n      jumpi\n      returndatasize\n      0x00\n      dup1\n      returndatacopy\n      revert(0x00, returndatasize)\n    tag_184:\n      pop\n      pop\n      pop\n      pop\n      mload(0x40)\n      returndatasize\n      not(0x1f)\n      0x1f\n      dup3\n      add\n      and\n      dup3\n      add\n      dup1\n      0x40\n      mstore\n      pop\n      dup2\n      add\n      swap1\n      tag_185\n      swap2\n      swap1\n      tag_186\n      jump\t// in\n    tag_185:\n        /* \"Midas_V1.2/LPToken.sol\":2409:2475  (xReserves, yReserves) = IMidasPair721(pair).getLpReserve(tokenId) */\n      swap1\n      swap5\n      swap1\n      swap4\n      pop\n        /* \"Midas_V1.2/LPToken.sol\":2292:2482  function getReserves(uint128 tokenId) external view virtual returns (uint128 xReserves, uint128 yReserves) {... */\n      swap2\n      pop\n      pop\n      jump\t// out\n        /* \"Midas_V1.2/libraries/ERC721.sol\":2698:2901  function setApprovalForAll(address operator, bool approved) public virtual {... */\n    tag_93:\n        /* \"Midas_V1.2/libraries/ERC721.sol\":2800:2810  msg.sender */\n      caller\n        /* \"Midas_V1.2/libraries/ERC721.sol\":2783:2811  isApprovedForAll[msg.sender] */\n      0x00\n      dup2\n      dup2\n      mstore\n        /* \"Midas_V1.2/libraries/ERC721.sol\":2783:2799  isApprovedForAll */\n      0x03\n        /* \"Midas_V1.2/libraries/ERC721.sol\":2783:2811  isApprovedForAll[msg.sender] */\n      0x20\n      swap1\n      dup2\n      mstore\n      0x40\n      dup1\n      dup4\n      keccak256\n      sub(shl(0xa0, 0x01), 0x01)\n        /* \"Midas_V1.2/libraries/ERC721.sol\":2783:2821  isApprovedForAll[msg.sender][operator] */\n      dup8\n      and\n      dup1\n      dup6\n      mstore\n      swap1\n      dup4\n      mstore\n      swap3\n      dup2\n      swap1\n      keccak256\n        /* \"Midas_V1.2/libraries/ERC721.sol\":2783:2832  isApprovedForAll[msg.sender][operator] = approved */\n      dup1\n      sload\n      not(0xff)\n      and\n      dup7\n      iszero\n      iszero\n      swap1\n      dup2\n      or\n      swap1\n      swap2\n      sstore\n        /* \"Midas_V1.2/libraries/ERC721.sol\":2848:2894  ApprovalForAll(msg.sender, operator, approved) */\n      swap1\n      mload\n        /* \"#utility.yul\":540:581   */\n      swap1\n      dup2\n      mstore\n        /* \"Midas_V1.2/libraries/ERC721.sol\":2783:2821  isApprovedForAll[msg.sender][operator] */\n      swap2\n      swap3\n        /* \"Midas_V1.2/libraries/ERC721.sol\":2800:2810  msg.sender */\n      swap2\n        /* \"Midas_V1.2/libraries/ERC721.sol\":2848:2894  ApprovalForAll(msg.sender, operator, approved) */\n      0x17307eab39ab6107e8899845ad3d59bd9653f200f220920489ca2b5937696c31\n      swap2\n        /* \"#utility.yul\":513:531   */\n      add\n        /* \"Midas_V1.2/libraries/ERC721.sol\":2848:2894  ApprovalForAll(msg.sender, operator, approved) */\n      mload(0x40)\n      dup1\n      swap2\n      sub\n      swap1\n      log3\n        /* \"Midas_V1.2/libraries/ERC721.sol\":2698:2901  function setApprovalForAll(address operator, bool approved) public virtual {... */\n      pop\n      pop\n      jump\t// out\n        /* \"Midas_V1.2/libraries/ERC721.sol\":4156:4681  function safeTransferFrom(... */\n    tag_103:\n        /* \"Midas_V1.2/libraries/ERC721.sol\":4304:4330  transferFrom(from, to, id) */\n      tag_190\n        /* \"Midas_V1.2/libraries/ERC721.sol\":4317:4321  from */\n      dup6\n        /* \"Midas_V1.2/libraries/ERC721.sol\":4323:4325  to */\n      dup6\n        /* \"Midas_V1.2/libraries/ERC721.sol\":4327:4329  id */\n      dup6\n        /* \"Midas_V1.2/libraries/ERC721.sol\":4304:4316  transferFrom */\n      tag_57\n        /* \"Midas_V1.2/libraries/ERC721.sol\":4304:4330  transferFrom(from, to, id) */\n      jump\t// in\n    tag_190:\n      sub(shl(0xa0, 0x01), 0x01)\n        /* \"Midas_V1.2/libraries/ERC721.sol\":4362:4376  to.code.length */\n      dup5\n      and\n      extcodesize\n        /* \"Midas_V1.2/libraries/ERC721.sol\":4362:4381  to.code.length == 0 */\n      iszero\n      dup1\n        /* \"Midas_V1.2/libraries/ERC721.sol\":4362:4632  to.code.length == 0 ||... */\n      tag_191\n      jumpi\n      pop\n        /* \"Midas_V1.2/libraries/ERC721.sol\":4401:4567  ERC721TokenReceiver(to).onERC721Received(... */\n      mload(0x40)\n      shl(0xe1, 0x0a85bd01)\n      dup1\n      dup3\n      mstore\n        /* \"Midas_V1.2/libraries/ERC721.sol\":4587:4632  ERC721TokenReceiver.onERC721Received.selector */\n      swap1\n      sub(shl(0xa0, 0x01), 0x01)\n        /* \"Midas_V1.2/libraries/ERC721.sol\":4401:4441  ERC721TokenReceiver(to).onERC721Received */\n      dup7\n      and\n      swap1\n        /* \"Midas_V1.2/libraries/ERC721.sol\":4587:4632  ERC721TokenReceiver.onERC721Received.selector */\n      0x150b7a02\n      swap1\n        /* \"Midas_V1.2/libraries/ERC721.sol\":4401:4567  ERC721TokenReceiver(to).onERC721Received(... */\n      tag_192\n      swap1\n        /* \"Midas_V1.2/libraries/ERC721.sol\":4463:4473  msg.sender */\n      caller\n      swap1\n        /* \"Midas_V1.2/libraries/ERC721.sol\":4495:4499  from */\n      dup11\n      swap1\n        /* \"Midas_V1.2/libraries/ERC721.sol\":4521:4523  id */\n      dup10\n      swap1\n        /* \"Midas_V1.2/libraries/ERC721.sol\":4545:4549  data */\n      dup10\n      swap1\n      dup10\n      swap1\n        /* \"Midas_V1.2/libraries/ERC721.sol\":4401:4567  ERC721TokenReceiver(to).onERC721Received(... */\n      0x04\n      add\n      tag_193\n      jump\t// in\n    tag_192:\n      0x20\n      mload(0x40)\n      dup1\n      dup4\n      sub\n      dup2\n      0x00\n      dup8\n      gas\n      call\n      iszero\n      dup1\n      iszero\n      tag_195\n      jumpi\n      returndatasize\n      0x00\n      dup1\n      returndatacopy\n      revert(0x00, returndatasize)\n    tag_195:\n      pop\n      pop\n      pop\n      pop\n      mload(0x40)\n      returndatasize\n      not(0x1f)\n      0x1f\n      dup3\n      add\n      and\n      dup3\n      add\n      dup1\n      0x40\n      mstore\n      pop\n      dup2\n      add\n      swap1\n      tag_196\n      swap2\n      swap1\n      tag_153\n      jump\t// in\n    tag_196:\n      not(sub(shl(0xe0, 0x01), 0x01))\n        /* \"Midas_V1.2/libraries/ERC721.sol\":4401:4632  ERC721TokenReceiver(to).onERC721Received(... */\n      and\n      eq\n        /* \"Midas_V1.2/libraries/ERC721.sol\":4362:4632  to.code.length == 0 ||... */\n    tag_191:\n        /* \"Midas_V1.2/libraries/ERC721.sol\":4341:4674  require(... */\n      tag_197\n      jumpi\n      mload(0x40)\n      shl(0xe5, 0x461bcd)\n      dup2\n      mstore\n      0x04\n      add\n      tag_128\n      swap1\n      tag_156\n      jump\t// in\n    tag_197:\n        /* \"Midas_V1.2/libraries/ERC721.sol\":4156:4681  function safeTransferFrom(... */\n      pop\n      pop\n      pop\n      pop\n      pop\n      jump\t// out\n        /* \"Midas_V1.2/LPToken.sol\":1273:1911  function tokenURI(uint256 tokenId)... */\n    tag_109:\n        /* \"Midas_V1.2/LPToken.sol\":1452:1453  0 */\n      0x00\n        /* \"Midas_V1.2/LPToken.sol\":1423:1440  _ownerOf[tokenId] */\n      dup2\n      dup2\n      mstore\n      0x20\n      dup2\n      swap1\n      mstore\n      0x40\n      swap1\n      keccak256\n      sload\n        /* \"Midas_V1.2/LPToken.sol\":1386:1399  string memory */\n      0x60\n      swap1\n      sub(shl(0xa0, 0x01), 0x01)\n        /* \"Midas_V1.2/LPToken.sol\":1423:1440  _ownerOf[tokenId] */\n      and\n        /* \"Midas_V1.2/LPToken.sol\":1415:1455  require(_ownerOf[tokenId] != address(0)) */\n      tag_200\n      jumpi\n      0x00\n      dup1\n      revert\n    tag_200:\n        /* \"Midas_V1.2/LPToken.sol\":1465:1486  string memory baseURI */\n      0x00\n        /* \"Midas_V1.2/LPToken.sol\":1489:1499  _baseURI() */\n      tag_201\n        /* \"Midas_V1.2/LPToken.sol\":2253:2279  return \"www.midaswap.org/\" */\n      0x40\n      dup1\n      mload\n      dup1\n      dup3\n      add\n      swap1\n      swap2\n      mstore\n      0x11\n      dup2\n      mstore\n      shl(0x78, 0x7777772e6d696461737761702e6f72672f)\n      0x20\n      dup3\n      add\n      mstore\n      swap1\n        /* \"Midas_V1.2/LPToken.sol\":2177:2286  function _baseURI() internal view virtual returns (string memory) {... */\n      jump\n        /* \"Midas_V1.2/LPToken.sol\":1489:1499  _baseURI() */\n    tag_201:\n        /* \"Midas_V1.2/LPToken.sol\":1465:1499  string memory baseURI = _baseURI() */\n      swap1\n      pop\n        /* \"Midas_V1.2/LPToken.sol\":1552:1553  0 */\n      0x00\n        /* \"Midas_V1.2/LPToken.sol\":1534:1541  baseURI */\n      dup2\n        /* \"Midas_V1.2/LPToken.sol\":1528:1549  bytes(baseURI).length */\n      mload\n        /* \"Midas_V1.2/LPToken.sol\":1528:1553  bytes(baseURI).length > 0 */\n      gt\n        /* \"Midas_V1.2/LPToken.sol\":1528:1904  bytes(baseURI).length > 0... */\n      tag_203\n      jumpi\n      mload(0x40)\n      dup1\n      0x20\n      add\n      0x40\n      mstore\n      dup1\n      0x00\n      dup2\n      mstore\n      pop\n      jump(tag_204)\n    tag_203:\n        /* \"Midas_V1.2/LPToken.sol\":1675:1681  tokenX */\n      sload(0x07)\n        /* \"Midas_V1.2/LPToken.sol\":1642:1649  baseURI */\n      dup2\n      swap1\n        /* \"Midas_V1.2/LPToken.sol\":1675:1695  tokenX.toHexString() */\n      tag_205\n      swap1\n      sub(shl(0xa0, 0x01), 0x01)\n        /* \"Midas_V1.2/LPToken.sol\":1675:1681  tokenX */\n      and\n        /* \"Midas_V1.2/LPToken.sol\":1675:1693  tokenX.toHexString */\n      tag_206\n        /* \"Midas_V1.2/LPToken.sol\":1675:1695  tokenX.toHexString() */\n      jump\t// in\n    tag_205:\n        /* \"Midas_V1.2/LPToken.sol\":1750:1756  tokenY */\n      sload(0x08)\n        /* \"Midas_V1.2/LPToken.sol\":1750:1770  tokenY.toHexString() */\n      tag_207\n      swap1\n      sub(shl(0xa0, 0x01), 0x01)\n        /* \"Midas_V1.2/LPToken.sol\":1750:1756  tokenY */\n      and\n        /* \"Midas_V1.2/LPToken.sol\":1750:1768  tokenY.toHexString */\n      tag_206\n        /* \"Midas_V1.2/LPToken.sol\":1750:1770  tokenY.toHexString() */\n      jump\t// in\n    tag_207:\n        /* \"Midas_V1.2/LPToken.sol\":1825:1843  tokenId.toString() */\n      tag_208\n        /* \"Midas_V1.2/LPToken.sol\":1825:1832  tokenId */\n      dup7\n        /* \"Midas_V1.2/LPToken.sol\":1825:1841  tokenId.toString */\n      tag_209\n        /* \"Midas_V1.2/LPToken.sol\":1825:1843  tokenId.toString() */\n      jump\t// in\n    tag_208:\n        /* \"Midas_V1.2/LPToken.sol\":1600:1865  abi.encodePacked(... */\n      add(0x20, mload(0x40))\n      tag_210\n      swap5\n      swap4\n      swap3\n      swap2\n      swap1\n      tag_211\n      jump\t// in\n    tag_210:\n      mload(0x40)\n      0x20\n      dup2\n      dup4\n      sub\n      sub\n      dup2\n      mstore\n      swap1\n      0x40\n      mstore\n        /* \"Midas_V1.2/LPToken.sol\":1528:1904  bytes(baseURI).length > 0... */\n    tag_204:\n        /* \"Midas_V1.2/LPToken.sol\":1509:1904  return... */\n      swap4\n        /* \"Midas_V1.2/LPToken.sol\":1273:1911  function tokenURI(uint256 tokenId)... */\n      swap3\n      pop\n      pop\n      pop\n      jump\t// out\n        /* \"Midas_V1.2/libraries/ERC721.sol\":5412:5783  function _mint(address to, uint256 id) internal virtual {... */\n    tag_144:\n      sub(shl(0xa0, 0x01), 0x01)\n        /* \"Midas_V1.2/libraries/ERC721.sol\":5486:5502  to != address(0) */\n      dup3\n      and\n        /* \"Midas_V1.2/libraries/ERC721.sol\":5478:5524  require(to != address(0), \"INVALID_RECIPIENT\") */\n      tag_213\n      jumpi\n      mload(0x40)\n      shl(0xe5, 0x461bcd)\n      dup2\n      mstore\n      0x04\n      add\n      tag_128\n      swap1\n      tag_136\n      jump\t// in\n    tag_213:\n        /* \"Midas_V1.2/libraries/ERC721.sol\":5567:5568  0 */\n      0x00\n        /* \"Midas_V1.2/libraries/ERC721.sol\":5543:5555  _ownerOf[id] */\n      dup2\n      dup2\n      mstore\n      0x20\n      dup2\n      swap1\n      mstore\n      0x40\n      swap1\n      keccak256\n      sload\n      sub(shl(0xa0, 0x01), 0x01)\n      and\n        /* \"Midas_V1.2/libraries/ERC721.sol\":5543:5569  _ownerOf[id] == address(0) */\n      iszero\n        /* \"Midas_V1.2/libraries/ERC721.sol\":5535:5588  require(_ownerOf[id] == address(0), \"ALREADY_MINTED\") */\n      tag_215\n      jumpi\n      mload(0x40)\n      shl(0xe5, 0x461bcd)\n      dup2\n      mstore\n        /* \"#utility.yul\":11906:11908   */\n      0x20\n        /* \"Midas_V1.2/libraries/ERC721.sol\":5535:5588  require(_ownerOf[id] == address(0), \"ALREADY_MINTED\") */\n      0x04\n      dup3\n      add\n        /* \"#utility.yul\":11888:11909   */\n      mstore\n        /* \"#utility.yul\":11945:11947   */\n      0x0e\n        /* \"#utility.yul\":11925:11943   */\n      0x24\n      dup3\n      add\n        /* \"#utility.yul\":11918:11948   */\n      mstore\n      shl(0x92, 0x1053149150511657d35253951151)\n        /* \"#utility.yul\":11964:11982   */\n      0x44\n      dup3\n      add\n        /* \"#utility.yul\":11957:12001   */\n      mstore\n        /* \"#utility.yul\":12018:12036   */\n      0x64\n      add\n        /* \"Midas_V1.2/libraries/ERC721.sol\":5535:5588  require(_ownerOf[id] == address(0), \"ALREADY_MINTED\") */\n      tag_128\n        /* \"#utility.yul\":11704:12042   */\n      jump\n        /* \"Midas_V1.2/libraries/ERC721.sol\":5535:5588  require(_ownerOf[id] == address(0), \"ALREADY_MINTED\") */\n    tag_215:\n      sub(shl(0xa0, 0x01), 0x01)\n        /* \"Midas_V1.2/libraries/ERC721.sol\":5678:5692  _balanceOf[to] */\n      dup3\n      and\n      0x00\n      dup2\n      dup2\n      mstore\n        /* \"Midas_V1.2/libraries/ERC721.sol\":5678:5688  _balanceOf */\n      0x01\n        /* \"Midas_V1.2/libraries/ERC721.sol\":5678:5692  _balanceOf[to] */\n      0x20\n      dup2\n      dup2\n      mstore\n      0x40\n      dup1\n      dup5\n      keccak256\n        /* \"Midas_V1.2/libraries/ERC721.sol\":5678:5694  _balanceOf[to]++ */\n      dup1\n      sload\n      swap1\n      swap4\n      add\n      swap1\n      swap3\n      sstore\n        /* \"Midas_V1.2/libraries/ERC721.sol\":5715:5727  _ownerOf[id] */\n      dup5\n      dup4\n      mstore\n      dup3\n      swap1\n      mstore\n      dup1\n      dup3\n      keccak256\n        /* \"Midas_V1.2/libraries/ERC721.sol\":5715:5732  _ownerOf[id] = to */\n      dup1\n      sload\n      not(sub(shl(0xa0, 0x01), 0x01))\n      and\n      dup5\n      or\n      swap1\n      sstore\n        /* \"Midas_V1.2/libraries/ERC721.sol\":5748:5776  Transfer(address(0), to, id) */\n      mload\n        /* \"Midas_V1.2/libraries/ERC721.sol\":5724:5726  id */\n      dup4\n      swap3\n        /* \"Midas_V1.2/libraries/ERC721.sol\":5678:5692  _balanceOf[to] */\n      swap2\n      swap1\n      0x00\n      dup1\n      mload\n      0x20\n      data_ada389e1fc24a8587c776340efb91b36e675792ab631816100d55df0b5cf3cbc\n      dup4\n      codecopy\n      dup2\n      mload\n      swap2\n      mstore\n        /* \"Midas_V1.2/libraries/ERC721.sol\":5748:5776  Transfer(address(0), to, id) */\n      swap1\n        /* \"Midas_V1.2/libraries/ERC721.sol\":5678:5692  _balanceOf[to] */\n      dup3\n      swap1\n        /* \"Midas_V1.2/libraries/ERC721.sol\":5748:5776  Transfer(address(0), to, id) */\n      log4\n        /* \"Midas_V1.2/libraries/ERC721.sol\":5412:5783  function _mint(address to, uint256 id) internal virtual {... */\n      pop\n      pop\n      jump\t// out\n        /* \"Midas_V1.2/libraries/ERC721.sol\":5789:6160  function _burn(uint256 id) internal virtual {... */\n    tag_160:\n        /* \"Midas_V1.2/libraries/ERC721.sol\":5843:5856  address owner */\n      0x00\n        /* \"Midas_V1.2/libraries/ERC721.sol\":5859:5871  _ownerOf[id] */\n      dup2\n      dup2\n      mstore\n      0x20\n      dup2\n      swap1\n      mstore\n      0x40\n      swap1\n      keccak256\n      sload\n      sub(shl(0xa0, 0x01), 0x01)\n      and\n        /* \"Midas_V1.2/libraries/ERC721.sol\":5890:5909  owner != address(0) */\n      dup1\n        /* \"Midas_V1.2/libraries/ERC721.sol\":5882:5924  require(owner != address(0), \"NOT_MINTED\") */\n      tag_219\n      jumpi\n      mload(0x40)\n      shl(0xe5, 0x461bcd)\n      dup2\n      mstore\n      0x04\n      add\n      tag_128\n      swap1\n      tag_164\n      jump\t// in\n    tag_219:\n      sub(shl(0xa0, 0x01), 0x01)\n        /* \"Midas_V1.2/libraries/ERC721.sol\":6014:6031  _balanceOf[owner] */\n      dup2\n      and\n      0x00\n      dup2\n      dup2\n      mstore\n        /* \"Midas_V1.2/libraries/ERC721.sol\":6014:6024  _balanceOf */\n      0x01\n        /* \"Midas_V1.2/libraries/ERC721.sol\":6014:6031  _balanceOf[owner] */\n      0x20\n      swap1\n      dup2\n      mstore\n      0x40\n      dup1\n      dup4\n      keccak256\n        /* \"Midas_V1.2/libraries/ERC721.sol\":6014:6033  _balanceOf[owner]-- */\n      dup1\n      sload\n      not(0x00)\n      add\n      swap1\n      sstore\n        /* \"Midas_V1.2/libraries/ERC721.sol\":6061:6073  _ownerOf[id] */\n      dup6\n      dup4\n      mstore\n      dup3\n      dup3\n      mstore\n      dup1\n      dup4\n      keccak256\n        /* \"Midas_V1.2/libraries/ERC721.sol\":6054:6073  delete _ownerOf[id] */\n      dup1\n      sload\n      not(sub(shl(0xa0, 0x01), 0x01))\n      swap1\n      dup2\n      and\n      swap1\n      swap2\n      sstore\n        /* \"Midas_V1.2/libraries/ERC721.sol\":6091:6102  getApproved */\n      0x02\n        /* \"Midas_V1.2/libraries/ERC721.sol\":6091:6106  getApproved[id] */\n      swap1\n      swap3\n      mstore\n      dup1\n      dup4\n      keccak256\n        /* \"Midas_V1.2/libraries/ERC721.sol\":6084:6106  delete getApproved[id] */\n      dup1\n      sload\n      swap1\n      swap3\n      and\n      swap1\n      swap2\n      sstore\n        /* \"Midas_V1.2/libraries/ERC721.sol\":6122:6153  Transfer(owner, address(0), id) */\n      mload\n        /* \"Midas_V1.2/libraries/ERC721.sol\":6070:6072  id */\n      dup5\n      swap3\n        /* \"Midas_V1.2/libraries/ERC721.sol\":6014:6031  _balanceOf[owner] */\n      swap1\n      0x00\n      dup1\n      mload\n      0x20\n      data_ada389e1fc24a8587c776340efb91b36e675792ab631816100d55df0b5cf3cbc\n      dup4\n      codecopy\n      dup2\n      mload\n      swap2\n      mstore\n        /* \"Midas_V1.2/libraries/ERC721.sol\":6122:6153  Transfer(owner, address(0), id) */\n      swap1\n        /* \"Midas_V1.2/libraries/ERC721.sol\":6014:6031  _balanceOf[owner] */\n      dup4\n      swap1\n        /* \"Midas_V1.2/libraries/ERC721.sol\":6122:6153  Transfer(owner, address(0), id) */\n      log4\n        /* \"Midas_V1.2/libraries/ERC721.sol\":5833:6160  {... */\n      pop\n        /* \"Midas_V1.2/libraries/ERC721.sol\":5789:6160  function _burn(uint256 id) internal virtual {... */\n      pop\n      jump\t// out\n        /* \"Midas_V1.2/libraries/Strings.sol\":2144:2293  function toHexString(address addr) internal pure returns (string memory) {... */\n    tag_206:\n        /* \"Midas_V1.2/libraries/Strings.sol\":2202:2215  string memory */\n      0x60\n        /* \"Midas_V1.2/libraries/Strings.sol\":2234:2286  toHexString(uint256(uint160(addr)), _ADDRESS_LENGTH) */\n      tag_118\n      sub(shl(0xa0, 0x01), 0x01)\n        /* \"Midas_V1.2/libraries/Strings.sol\":2246:2268  uint256(uint160(addr)) */\n      dup4\n      and\n        /* \"Midas_V1.2/libraries/Strings.sol\":285:287  20 */\n      0x14\n        /* \"Midas_V1.2/libraries/Strings.sol\":2234:2245  toHexString */\n      tag_224\n        /* \"Midas_V1.2/libraries/Strings.sol\":2234:2286  toHexString(uint256(uint160(addr)), _ADDRESS_LENGTH) */\n      jump\t// in\n        /* \"Midas_V1.2/libraries/Strings.sol\":389:1120  function toString(uint256 value) internal pure returns (string memory) {... */\n    tag_209:\n        /* \"Midas_V1.2/libraries/Strings.sol\":445:458  string memory */\n      0x60\n        /* \"Midas_V1.2/libraries/Strings.sol\":494:508  uint256 length */\n      0x00\n        /* \"Midas_V1.2/libraries/Strings.sol\":531:543  log10(value) */\n      tag_226\n        /* \"Midas_V1.2/libraries/Strings.sol\":537:542  value */\n      dup4\n        /* \"Midas_V1.2/libraries/Strings.sol\":531:536  log10 */\n      tag_227\n        /* \"Midas_V1.2/libraries/Strings.sol\":531:543  log10(value) */\n      jump\t// in\n    tag_226:\n        /* \"Midas_V1.2/libraries/Strings.sol\":546:547  1 */\n      0x01\n        /* \"Midas_V1.2/libraries/Strings.sol\":531:547  log10(value) + 1 */\n      add\n        /* \"Midas_V1.2/libraries/Strings.sol\":522:547  length = log10(value) + 1 */\n      swap1\n      pop\n        /* \"Midas_V1.2/libraries/Strings.sol\":561:581  string memory buffer */\n      0x60\n        /* \"Midas_V1.2/libraries/Strings.sol\":615:621  length */\n      dup2\n        /* \"Midas_V1.2/libraries/Strings.sol\":604:622  new string(length) */\n      0xffffffffffffffff\n      dup2\n      gt\n      iszero\n      tag_229\n      jumpi\n      tag_229\n      tag_230\n      jump\t// in\n    tag_229:\n      mload(0x40)\n      swap1\n      dup1\n      dup3\n      mstore\n      dup1\n      0x1f\n      add\n      not(0x1f)\n      and\n      0x20\n      add\n      dup3\n      add\n      0x40\n      mstore\n      dup1\n      iszero\n      tag_231\n      jumpi\n      0x20\n      dup3\n      add\n      dup2\n      dup1\n      calldatasize\n      dup4\n      calldatacopy\n      add\n      swap1\n      pop\n    tag_231:\n      pop\n        /* \"Midas_V1.2/libraries/Strings.sol\":595:622  buffer = new string(length) */\n      swap1\n      pop\n        /* \"Midas_V1.2/libraries/Strings.sol\":742:770  add(buffer, add(32, length)) */\n      dup2\n      dup2\n      add\n        /* \"Midas_V1.2/libraries/Strings.sol\":758:760  32 */\n      0x20\n        /* \"Midas_V1.2/libraries/Strings.sol\":742:770  add(buffer, add(32, length)) */\n      add\n        /* \"Midas_V1.2/libraries/Strings.sol\":797:1077  while (true) {... */\n    tag_232:\n      not(0x00)\n        /* \"Midas_V1.2/libraries/Strings.sol\":828:833  ptr-- */\n      add\n      shl(0x81, 0x181899199a1a9b1b9c1cb0b131b232b3)\n        /* \"Midas_V1.2/libraries/Strings.sol\":962:964  10 */\n      0x0a\n        /* \"Midas_V1.2/libraries/Strings.sol\":951:965  mod(value, 10) */\n      dup7\n      mod\n        /* \"Midas_V1.2/libraries/Strings.sol\":946:976  byte(mod(value, 10), _SYMBOLS) */\n      byte\n        /* \"Midas_V1.2/libraries/Strings.sol\":828:833  ptr-- */\n      dup2\n        /* \"Midas_V1.2/libraries/Strings.sol\":933:977  mstore8(ptr, byte(mod(value, 10), _SYMBOLS)) */\n      mstore8\n        /* \"Midas_V1.2/libraries/Strings.sol\":1021:1023  10 */\n      0x0a\n        /* \"Midas_V1.2/libraries/Strings.sol\":1012:1023  value /= 10 */\n      dup6\n      div\n      swap5\n      pop\n        /* \"Midas_V1.2/libraries/Strings.sol\":1045:1055  value == 0 */\n      dup5\n        /* \"Midas_V1.2/libraries/Strings.sol\":1041:1062  if (value == 0) break */\n      tag_237\n      jumpi\n        /* \"Midas_V1.2/libraries/Strings.sol\":1057:1062  break */\n      jump(tag_233)\n        /* \"Midas_V1.2/libraries/Strings.sol\":1041:1062  if (value == 0) break */\n    tag_237:\n        /* \"Midas_V1.2/libraries/Strings.sol\":797:1077  while (true) {... */\n      jump(tag_232)\n    tag_233:\n      pop\n        /* \"Midas_V1.2/libraries/Strings.sol\":1097:1103  buffer */\n      swap4\n        /* \"Midas_V1.2/libraries/Strings.sol\":389:1120  function toString(uint256 value) internal pure returns (string memory) {... */\n      swap3\n      pop\n      pop\n      pop\n      jump\t// out\n        /* \"Midas_V1.2/libraries/Strings.sol\":1517:1992  function toHexString(... */\n    tag_224:\n        /* \"Midas_V1.2/libraries/Strings.sol\":1614:1627  string memory */\n      0x60\n      dup1\n        /* \"Midas_V1.2/libraries/Strings.sol\":1687:1697  2 * length */\n      tag_239\n        /* \"Midas_V1.2/libraries/Strings.sol\":1691:1697  length */\n      dup4\n        /* \"Midas_V1.2/libraries/Strings.sol\":1687:1688  2 */\n      0x02\n        /* \"Midas_V1.2/libraries/Strings.sol\":1687:1697  2 * length */\n      tag_240\n      jump\t// in\n    tag_239:\n        /* \"Midas_V1.2/libraries/Strings.sol\":1687:1701  2 * length + 2 */\n      tag_241\n      swap1\n        /* \"Midas_V1.2/libraries/Strings.sol\":1700:1701  2 */\n      0x02\n        /* \"Midas_V1.2/libraries/Strings.sol\":1687:1701  2 * length + 2 */\n      tag_242\n      jump\t// in\n    tag_241:\n        /* \"Midas_V1.2/libraries/Strings.sol\":1677:1702  new bytes(2 * length + 2) */\n      0xffffffffffffffff\n      dup2\n      gt\n      iszero\n      tag_244\n      jumpi\n      tag_244\n      tag_230\n      jump\t// in\n    tag_244:\n      mload(0x40)\n      swap1\n      dup1\n      dup3\n      mstore\n      dup1\n      0x1f\n      add\n      not(0x1f)\n      and\n      0x20\n      add\n      dup3\n      add\n      0x40\n      mstore\n      dup1\n      iszero\n      tag_245\n      jumpi\n      0x20\n      dup3\n      add\n      dup2\n      dup1\n      calldatasize\n      dup4\n      calldatacopy\n      add\n      swap1\n      pop\n    tag_245:\n      pop\n        /* \"Midas_V1.2/libraries/Strings.sol\":1668:1702  buffer = new bytes(2 * length + 2) */\n      swap1\n      pop\n      shl(0xfc, 0x03)\n        /* \"Midas_V1.2/libraries/Strings.sol\":1712:1718  buffer */\n      dup2\n        /* \"Midas_V1.2/libraries/Strings.sol\":1719:1720  0 */\n      0x00\n        /* \"Midas_V1.2/libraries/Strings.sol\":1712:1721  buffer[0] */\n      dup2\n      mload\n      dup2\n      lt\n      tag_247\n      jumpi\n      tag_247\n      tag_248\n      jump\t// in\n    tag_247:\n      0x20\n      add\n      add\n        /* \"Midas_V1.2/libraries/Strings.sol\":1712:1727  buffer[0] = \"0\" */\n      swap1\n      not(sub(shl(0xf8, 0x01), 0x01))\n      and\n      swap1\n      dup2\n      0x00\n      byte\n      swap1\n      mstore8\n      pop\n      shl(0xfb, 0x0f)\n        /* \"Midas_V1.2/libraries/Strings.sol\":1737:1743  buffer */\n      dup2\n        /* \"Midas_V1.2/libraries/Strings.sol\":1744:1745  1 */\n      0x01\n        /* \"Midas_V1.2/libraries/Strings.sol\":1737:1746  buffer[1] */\n      dup2\n      mload\n      dup2\n      lt\n      tag_250\n      jumpi\n      tag_250\n      tag_248\n      jump\t// in\n    tag_250:\n      0x20\n      add\n      add\n        /* \"Midas_V1.2/libraries/Strings.sol\":1737:1752  buffer[1] = \"x\" */\n      swap1\n      not(sub(shl(0xf8, 0x01), 0x01))\n      and\n      swap1\n      dup2\n      0x00\n      byte\n      swap1\n      mstore8\n      pop\n        /* \"Midas_V1.2/libraries/Strings.sol\":1767:1776  uint256 i */\n      0x00\n        /* \"Midas_V1.2/libraries/Strings.sol\":1779:1789  2 * length */\n      tag_254\n        /* \"Midas_V1.2/libraries/Strings.sol\":1783:1789  length */\n      dup5\n        /* \"Midas_V1.2/libraries/Strings.sol\":1779:1780  2 */\n      0x02\n        /* \"Midas_V1.2/libraries/Strings.sol\":1779:1789  2 * length */\n      tag_240\n      jump\t// in\n    tag_254:\n        /* \"Midas_V1.2/libraries/Strings.sol\":1779:1793  2 * length + 1 */\n      tag_255\n      swap1\n        /* \"Midas_V1.2/libraries/Strings.sol\":1792:1793  1 */\n      0x01\n        /* \"Midas_V1.2/libraries/Strings.sol\":1779:1793  2 * length + 1 */\n      tag_242\n      jump\t// in\n    tag_255:\n        /* \"Midas_V1.2/libraries/Strings.sol\":1767:1793  uint256 i = 2 * length + 1 */\n      swap1\n      pop\n        /* \"Midas_V1.2/libraries/Strings.sol\":1762:1890  for (uint256 i = 2 * length + 1; i > 1; --i) {... */\n    tag_251:\n        /* \"Midas_V1.2/libraries/Strings.sol\":1799:1800  1 */\n      0x01\n        /* \"Midas_V1.2/libraries/Strings.sol\":1795:1796  i */\n      dup2\n        /* \"Midas_V1.2/libraries/Strings.sol\":1795:1800  i > 1 */\n      gt\n        /* \"Midas_V1.2/libraries/Strings.sol\":1762:1890  for (uint256 i = 2 * length + 1; i > 1; --i) {... */\n      iszero\n      tag_252\n      jumpi\n      shl(0x81, 0x181899199a1a9b1b9c1cb0b131b232b3)\n        /* \"Midas_V1.2/libraries/Strings.sol\":1842:1847  value */\n      dup6\n        /* \"Midas_V1.2/libraries/Strings.sol\":1850:1853  0xf */\n      0x0f\n        /* \"Midas_V1.2/libraries/Strings.sol\":1842:1853  value & 0xf */\n      and\n        /* \"Midas_V1.2/libraries/Strings.sol\":1833:1854  _SYMBOLS[value & 0xf] */\n      0x10\n      dup2\n      lt\n      tag_257\n      jumpi\n      tag_257\n      tag_248\n      jump\t// in\n    tag_257:\n      byte\n      0xf8\n      shl\n        /* \"Midas_V1.2/libraries/Strings.sol\":1821:1827  buffer */\n      dup3\n        /* \"Midas_V1.2/libraries/Strings.sol\":1828:1829  i */\n      dup3\n        /* \"Midas_V1.2/libraries/Strings.sol\":1821:1830  buffer[i] */\n      dup2\n      mload\n      dup2\n      lt\n      tag_259\n      jumpi\n      tag_259\n      tag_248\n      jump\t// in\n    tag_259:\n      0x20\n      add\n      add\n        /* \"Midas_V1.2/libraries/Strings.sol\":1821:1854  buffer[i] = _SYMBOLS[value & 0xf] */\n      swap1\n      not(sub(shl(0xf8, 0x01), 0x01))\n      and\n      swap1\n      dup2\n      0x00\n      byte\n      swap1\n      mstore8\n      pop\n        /* \"Midas_V1.2/libraries/Strings.sol\":1878:1879  4 */\n      0x04\n        /* \"Midas_V1.2/libraries/Strings.sol\":1868:1879  value >>= 4 */\n      swap5\n      swap1\n      swap5\n      shr\n      swap4\n        /* \"Midas_V1.2/libraries/Strings.sol\":1802:1805  --i */\n      tag_260\n      dup2\n      tag_261\n      jump\t// in\n    tag_260:\n      swap1\n      pop\n        /* \"Midas_V1.2/libraries/Strings.sol\":1762:1890  for (uint256 i = 2 * length + 1; i > 1; --i) {... */\n      jump(tag_251)\n    tag_252:\n      pop\n        /* \"Midas_V1.2/libraries/Strings.sol\":1907:1917  value == 0 */\n      dup4\n      iszero\n        /* \"Midas_V1.2/libraries/Strings.sol\":1899:1954  require(value == 0, \"Strings: hex length insufficient\") */\n      tag_204\n      jumpi\n      mload(0x40)\n      shl(0xe5, 0x461bcd)\n      dup2\n      mstore\n        /* \"#utility.yul\":13224:13226   */\n      0x20\n        /* \"Midas_V1.2/libraries/Strings.sol\":1899:1954  require(value == 0, \"Strings: hex length insufficient\") */\n      0x04\n      dup3\n      add\n        /* \"#utility.yul\":13206:13227   */\n      dup2\n      swap1\n      mstore\n        /* \"#utility.yul\":13243:13261   */\n      0x24\n      dup3\n      add\n        /* \"#utility.yul\":13236:13266   */\n      mstore\n        /* \"#utility.yul\":13302:13336   */\n      0x537472696e67733a20686578206c656e67746820696e73756666696369656e74\n        /* \"#utility.yul\":13282:13300   */\n      0x44\n      dup3\n      add\n        /* \"#utility.yul\":13275:13337   */\n      mstore\n        /* \"#utility.yul\":13354:13372   */\n      0x64\n      add\n        /* \"Midas_V1.2/libraries/Strings.sol\":1899:1954  require(value == 0, \"Strings: hex length insufficient\") */\n      tag_128\n        /* \"#utility.yul\":13022:13378   */\n      jump\n        /* \"Midas_V1.2/libraries/Strings.sol\":2418:3330  function log10(uint256 value) internal pure returns (uint256) {... */\n    tag_227:\n        /* \"Midas_V1.2/libraries/Strings.sol\":2471:2478  uint256 */\n      0x00\n        /* \"Midas_V1.2/libraries/Strings.sol\":2490:2504  uint256 result */\n      dup1\n      shl(0x40, 0x184f03e93ff9f4daa797ed6e38ed64bf6a1f01)\n        /* \"Midas_V1.2/libraries/Strings.sol\":2542:2547  value */\n      dup4\n        /* \"Midas_V1.2/libraries/Strings.sol\":2542:2559  value >= 10 ** 64 */\n      lt\n        /* \"Midas_V1.2/libraries/Strings.sol\":2538:2641  if (value >= 10 ** 64) {... */\n      tag_266\n      jumpi\n      shl(0x40, 0x184f03e93ff9f4daa797ed6e38ed64bf6a1f01)\n        /* \"Midas_V1.2/libraries/Strings.sol\":2579:2596  value /= 10 ** 64 */\n      dup4\n      div\n      swap3\n      pop\n        /* \"Midas_V1.2/libraries/Strings.sol\":2624:2626  64 */\n      0x40\n        /* \"Midas_V1.2/libraries/Strings.sol\":2614:2626  result += 64 */\n      add\n        /* \"Midas_V1.2/libraries/Strings.sol\":2538:2641  if (value >= 10 ** 64) {... */\n    tag_266:\n        /* \"Midas_V1.2/libraries/Strings.sol\":2667:2675  10 ** 32 */\n      0x04ee2d6d415b85acef8100000000\n        /* \"Midas_V1.2/libraries/Strings.sol\":2658:2663  value */\n      dup4\n        /* \"Midas_V1.2/libraries/Strings.sol\":2658:2675  value >= 10 ** 32 */\n      lt\n        /* \"Midas_V1.2/libraries/Strings.sol\":2654:2757  if (value >= 10 ** 32) {... */\n      tag_269\n      jumpi\n        /* \"Midas_V1.2/libraries/Strings.sol\":2704:2712  10 ** 32 */\n      0x04ee2d6d415b85acef8100000000\n        /* \"Midas_V1.2/libraries/Strings.sol\":2695:2712  value /= 10 ** 32 */\n      dup4\n      div\n      swap3\n      pop\n        /* \"Midas_V1.2/libraries/Strings.sol\":2740:2742  32 */\n      0x20\n        /* \"Midas_V1.2/libraries/Strings.sol\":2730:2742  result += 32 */\n      add\n        /* \"Midas_V1.2/libraries/Strings.sol\":2654:2757  if (value >= 10 ** 32) {... */\n    tag_269:\n        /* \"Midas_V1.2/libraries/Strings.sol\":2783:2791  10 ** 16 */\n      0x2386f26fc10000\n        /* \"Midas_V1.2/libraries/Strings.sol\":2774:2779  value */\n      dup4\n        /* \"Midas_V1.2/libraries/Strings.sol\":2774:2791  value >= 10 ** 16 */\n      lt\n        /* \"Midas_V1.2/libraries/Strings.sol\":2770:2873  if (value >= 10 ** 16) {... */\n      tag_272\n      jumpi\n        /* \"Midas_V1.2/libraries/Strings.sol\":2820:2828  10 ** 16 */\n      0x2386f26fc10000\n        /* \"Midas_V1.2/libraries/Strings.sol\":2811:2828  value /= 10 ** 16 */\n      dup4\n      div\n      swap3\n      pop\n        /* \"Midas_V1.2/libraries/Strings.sol\":2856:2858  16 */\n      0x10\n        /* \"Midas_V1.2/libraries/Strings.sol\":2846:2858  result += 16 */\n      add\n        /* \"Midas_V1.2/libraries/Strings.sol\":2770:2873  if (value >= 10 ** 16) {... */\n    tag_272:\n        /* \"Midas_V1.2/libraries/Strings.sol\":2899:2906  10 ** 8 */\n      0x05f5e100\n        /* \"Midas_V1.2/libraries/Strings.sol\":2890:2895  value */\n      dup4\n        /* \"Midas_V1.2/libraries/Strings.sol\":2890:2906  value >= 10 ** 8 */\n      lt\n        /* \"Midas_V1.2/libraries/Strings.sol\":2886:2986  if (value >= 10 ** 8) {... */\n      tag_275\n      jumpi\n        /* \"Midas_V1.2/libraries/Strings.sol\":2935:2942  10 ** 8 */\n      0x05f5e100\n        /* \"Midas_V1.2/libraries/Strings.sol\":2926:2942  value /= 10 ** 8 */\n      dup4\n      div\n      swap3\n      pop\n        /* \"Midas_V1.2/libraries/Strings.sol\":2970:2971  8 */\n      0x08\n        /* \"Midas_V1.2/libraries/Strings.sol\":2960:2971  result += 8 */\n      add\n        /* \"Midas_V1.2/libraries/Strings.sol\":2886:2986  if (value >= 10 ** 8) {... */\n    tag_275:\n        /* \"Midas_V1.2/libraries/Strings.sol\":3012:3019  10 ** 4 */\n      0x2710\n        /* \"Midas_V1.2/libraries/Strings.sol\":3003:3008  value */\n      dup4\n        /* \"Midas_V1.2/libraries/Strings.sol\":3003:3019  value >= 10 ** 4 */\n      lt\n        /* \"Midas_V1.2/libraries/Strings.sol\":2999:3099  if (value >= 10 ** 4) {... */\n      tag_278\n      jumpi\n        /* \"Midas_V1.2/libraries/Strings.sol\":3048:3055  10 ** 4 */\n      0x2710\n        /* \"Midas_V1.2/libraries/Strings.sol\":3039:3055  value /= 10 ** 4 */\n      dup4\n      div\n      swap3\n      pop\n        /* \"Midas_V1.2/libraries/Strings.sol\":3083:3084  4 */\n      0x04\n        /* \"Midas_V1.2/libraries/Strings.sol\":3073:3084  result += 4 */\n      add\n        /* \"Midas_V1.2/libraries/Strings.sol\":2999:3099  if (value >= 10 ** 4) {... */\n    tag_278:\n        /* \"Midas_V1.2/libraries/Strings.sol\":3125:3132  10 ** 2 */\n      0x64\n        /* \"Midas_V1.2/libraries/Strings.sol\":3116:3121  value */\n      dup4\n        /* \"Midas_V1.2/libraries/Strings.sol\":3116:3132  value >= 10 ** 2 */\n      lt\n        /* \"Midas_V1.2/libraries/Strings.sol\":3112:3212  if (value >= 10 ** 2) {... */\n      tag_281\n      jumpi\n        /* \"Midas_V1.2/libraries/Strings.sol\":3161:3168  10 ** 2 */\n      0x64\n        /* \"Midas_V1.2/libraries/Strings.sol\":3152:3168  value /= 10 ** 2 */\n      dup4\n      div\n      swap3\n      pop\n        /* \"Midas_V1.2/libraries/Strings.sol\":3196:3197  2 */\n      0x02\n        /* \"Midas_V1.2/libraries/Strings.sol\":3186:3197  result += 2 */\n      add\n        /* \"Midas_V1.2/libraries/Strings.sol\":3112:3212  if (value >= 10 ** 2) {... */\n    tag_281:\n        /* \"Midas_V1.2/libraries/Strings.sol\":3238:3245  10 ** 1 */\n      0x0a\n        /* \"Midas_V1.2/libraries/Strings.sol\":3229:3234  value */\n      dup4\n        /* \"Midas_V1.2/libraries/Strings.sol\":3229:3245  value >= 10 ** 1 */\n      lt\n        /* \"Midas_V1.2/libraries/Strings.sol\":3225:3291  if (value >= 10 ** 1) {... */\n      tag_118\n      jumpi\n        /* \"Midas_V1.2/libraries/Strings.sol\":3275:3276  1 */\n      0x01\n        /* \"Midas_V1.2/libraries/Strings.sol\":3265:3276  result += 1 */\n      add\n        /* \"Midas_V1.2/libraries/Strings.sol\":3317:3323  result */\n      swap3\n        /* \"Midas_V1.2/libraries/Strings.sol\":2418:3330  function log10(uint256 value) internal pure returns (uint256) {... */\n      swap2\n      pop\n      pop\n      jump\t// out\n    tag_173:\n      dup3\n      dup1\n      sload\n      tag_285\n      swap1\n      tag_120\n      jump\t// in\n    tag_285:\n      swap1\n      0x00\n      mstore\n      keccak256(0x00, 0x20)\n      swap1\n      0x1f\n      add\n      0x20\n      swap1\n      div\n      dup2\n      add\n      swap3\n      dup3\n      tag_287\n      jumpi\n      0x00\n      dup6\n      sstore\n      jump(tag_290)\n    tag_287:\n      dup3\n      0x1f\n      lt\n      tag_288\n      jumpi\n      dup3\n      dup1\n      add\n      not(0xff)\n      dup3\n      calldataload\n      and\n      or\n      dup6\n      sstore\n      jump(tag_290)\n    tag_288:\n      dup3\n      dup1\n      add\n      0x01\n      add\n      dup6\n      sstore\n      dup3\n      iszero\n      tag_290\n      jumpi\n      swap2\n      dup3\n      add\n    tag_289:\n      dup3\n      dup2\n      gt\n      iszero\n      tag_290\n      jumpi\n      dup3\n      calldataload\n      dup3\n      sstore\n      swap2\n      0x20\n      add\n      swap2\n      swap1\n      0x01\n      add\n      swap1\n      jump(tag_289)\n    tag_290:\n      pop\n      tag_291\n      swap3\n      swap2\n      pop\n      tag_292\n      jump\t// in\n    tag_291:\n      pop\n      swap1\n      jump\t// out\n    tag_292:\n    tag_293:\n      dup1\n      dup3\n      gt\n      iszero\n      tag_291\n      jumpi\n      0x00\n      dup2\n      sstore\n      0x01\n      add\n      jump(tag_293)\n        /* \"#utility.yul\":14:145   */\n    tag_295:\n      not(sub(shl(0xe0, 0x01), 0x01))\n        /* \"#utility.yul\":88:120   */\n      dup2\n      and\n        /* \"#utility.yul\":78:121   */\n      dup2\n      eq\n        /* \"#utility.yul\":68:139   */\n      tag_159\n      jumpi\n        /* \"#utility.yul\":135:136   */\n      0x00\n        /* \"#utility.yul\":132:133   */\n      dup1\n        /* \"#utility.yul\":125:137   */\n      revert\n        /* \"#utility.yul\":150:395   */\n    tag_30:\n        /* \"#utility.yul\":208:214   */\n      0x00\n        /* \"#utility.yul\":261:263   */\n      0x20\n        /* \"#utility.yul\":249:258   */\n      dup3\n        /* \"#utility.yul\":240:247   */\n      dup5\n        /* \"#utility.yul\":236:259   */\n      sub\n        /* \"#utility.yul\":232:264   */\n      slt\n        /* \"#utility.yul\":229:281   */\n      iszero\n      tag_305\n      jumpi\n        /* \"#utility.yul\":277:278   */\n      0x00\n        /* \"#utility.yul\":274:275   */\n      dup1\n        /* \"#utility.yul\":267:279   */\n      revert\n        /* \"#utility.yul\":229:281   */\n    tag_305:\n        /* \"#utility.yul\":316:325   */\n      dup2\n        /* \"#utility.yul\":303:326   */\n      calldataload\n        /* \"#utility.yul\":335:365   */\n      tag_204\n        /* \"#utility.yul\":359:364   */\n      dup2\n        /* \"#utility.yul\":335:365   */\n      tag_295\n      jump\t// in\n        /* \"#utility.yul\":592:850   */\n    tag_296:\n        /* \"#utility.yul\":664:665   */\n      0x00\n        /* \"#utility.yul\":674:787   */\n    tag_309:\n        /* \"#utility.yul\":688:694   */\n      dup4\n        /* \"#utility.yul\":685:686   */\n      dup2\n        /* \"#utility.yul\":682:695   */\n      lt\n        /* \"#utility.yul\":674:787   */\n      iszero\n      tag_311\n      jumpi\n        /* \"#utility.yul\":764:775   */\n      dup2\n      dup2\n      add\n        /* \"#utility.yul\":758:776   */\n      mload\n        /* \"#utility.yul\":745:756   */\n      dup4\n      dup3\n      add\n        /* \"#utility.yul\":738:777   */\n      mstore\n        /* \"#utility.yul\":710:712   */\n      0x20\n        /* \"#utility.yul\":703:713   */\n      add\n        /* \"#utility.yul\":674:787   */\n      jump(tag_309)\n    tag_311:\n        /* \"#utility.yul\":805:811   */\n      dup4\n        /* \"#utility.yul\":802:803   */\n      dup2\n        /* \"#utility.yul\":799:812   */\n      gt\n        /* \"#utility.yul\":796:844   */\n      iszero\n      tag_312\n      jumpi\n        /* \"#utility.yul\":840:841   */\n      0x00\n        /* \"#utility.yul\":831:837   */\n      dup5\n        /* \"#utility.yul\":826:829   */\n      dup5\n        /* \"#utility.yul\":822:838   */\n      add\n        /* \"#utility.yul\":815:842   */\n      mstore\n        /* \"#utility.yul\":796:844   */\n    tag_312:\n      pop\n        /* \"#utility.yul\":592:850   */\n      pop\n      pop\n      pop\n      jump\t// out\n        /* \"#utility.yul\":855:1238   */\n    tag_37:\n        /* \"#utility.yul\":1004:1006   */\n      0x20\n        /* \"#utility.yul\":993:1002   */\n      dup2\n        /* \"#utility.yul\":986:1007   */\n      mstore\n        /* \"#utility.yul\":967:971   */\n      0x00\n        /* \"#utility.yul\":1036:1042   */\n      dup3\n        /* \"#utility.yul\":1030:1043   */\n      mload\n        /* \"#utility.yul\":1079:1085   */\n      dup1\n        /* \"#utility.yul\":1074:1076   */\n      0x20\n        /* \"#utility.yul\":1063:1072   */\n      dup5\n        /* \"#utility.yul\":1059:1077   */\n      add\n        /* \"#utility.yul\":1052:1086   */\n      mstore\n        /* \"#utility.yul\":1095:1161   */\n      tag_314\n        /* \"#utility.yul\":1154:1160   */\n      dup2\n        /* \"#utility.yul\":1149:1151   */\n      0x40\n        /* \"#utility.yul\":1138:1147   */\n      dup6\n        /* \"#utility.yul\":1134:1152   */\n      add\n        /* \"#utility.yul\":1129:1131   */\n      0x20\n        /* \"#utility.yul\":1121:1127   */\n      dup8\n        /* \"#utility.yul\":1117:1132   */\n      add\n        /* \"#utility.yul\":1095:1161   */\n      tag_296\n      jump\t// in\n    tag_314:\n        /* \"#utility.yul\":1222:1224   */\n      0x1f\n        /* \"#utility.yul\":1201:1216   */\n      add\n      not(0x1f)\n        /* \"#utility.yul\":1197:1226   */\n      and\n        /* \"#utility.yul\":1182:1227   */\n      swap2\n      swap1\n      swap2\n      add\n        /* \"#utility.yul\":1229:1231   */\n      0x40\n        /* \"#utility.yul\":1178:1232   */\n      add\n      swap3\n        /* \"#utility.yul\":855:1238   */\n      swap2\n      pop\n      pop\n      jump\t// out\n        /* \"#utility.yul\":1243:1423   */\n    tag_40:\n        /* \"#utility.yul\":1302:1308   */\n      0x00\n        /* \"#utility.yul\":1355:1357   */\n      0x20\n        /* \"#utility.yul\":1343:1352   */\n      dup3\n        /* \"#utility.yul\":1334:1341   */\n      dup5\n        /* \"#utility.yul\":1330:1353   */\n      sub\n        /* \"#utility.yul\":1326:1358   */\n      slt\n        /* \"#utility.yul\":1323:1375   */\n      iszero\n      tag_316\n      jumpi\n        /* \"#utility.yul\":1371:1372   */\n      0x00\n        /* \"#utility.yul\":1368:1369   */\n      dup1\n        /* \"#utility.yul\":1361:1373   */\n      revert\n        /* \"#utility.yul\":1323:1375   */\n    tag_316:\n      pop\n        /* \"#utility.yul\":1394:1417   */\n      calldataload\n      swap2\n        /* \"#utility.yul\":1243:1423   */\n      swap1\n      pop\n      jump\t// out\n        /* \"#utility.yul\":1636:1809   */\n    tag_297:\n        /* \"#utility.yul\":1704:1724   */\n      dup1\n      calldataload\n      sub(shl(0xa0, 0x01), 0x01)\n        /* \"#utility.yul\":1753:1784   */\n      dup2\n      and\n        /* \"#utility.yul\":1743:1785   */\n      dup2\n      eq\n        /* \"#utility.yul\":1733:1803   */\n      tag_162\n      jumpi\n        /* \"#utility.yul\":1799:1800   */\n      0x00\n        /* \"#utility.yul\":1796:1797   */\n      dup1\n        /* \"#utility.yul\":1789:1801   */\n      revert\n        /* \"#utility.yul\":1814:2068   */\n    tag_46:\n        /* \"#utility.yul\":1882:1888   */\n      0x00\n        /* \"#utility.yul\":1890:1896   */\n      dup1\n        /* \"#utility.yul\":1943:1945   */\n      0x40\n        /* \"#utility.yul\":1931:1940   */\n      dup4\n        /* \"#utility.yul\":1922:1929   */\n      dup6\n        /* \"#utility.yul\":1918:1941   */\n      sub\n        /* \"#utility.yul\":1914:1946   */\n      slt\n        /* \"#utility.yul\":1911:1963   */\n      iszero\n      tag_321\n      jumpi\n        /* \"#utility.yul\":1959:1960   */\n      0x00\n        /* \"#utility.yul\":1956:1957   */\n      dup1\n        /* \"#utility.yul\":1949:1961   */\n      revert\n        /* \"#utility.yul\":1911:1963   */\n    tag_321:\n        /* \"#utility.yul\":1982:2011   */\n      tag_322\n        /* \"#utility.yul\":2001:2010   */\n      dup4\n        /* \"#utility.yul\":1982:2011   */\n      tag_297\n      jump\t// in\n    tag_322:\n        /* \"#utility.yul\":1972:2011   */\n      swap5\n        /* \"#utility.yul\":2058:2060   */\n      0x20\n        /* \"#utility.yul\":2043:2061   */\n      swap4\n      swap1\n      swap4\n      add\n        /* \"#utility.yul\":2030:2062   */\n      calldataload\n      swap4\n      pop\n      pop\n      pop\n        /* \"#utility.yul\":1814:2068   */\n      jump\t// out\n        /* \"#utility.yul\":2073:2401   */\n    tag_56:\n        /* \"#utility.yul\":2150:2156   */\n      0x00\n        /* \"#utility.yul\":2158:2164   */\n      dup1\n        /* \"#utility.yul\":2166:2172   */\n      0x00\n        /* \"#utility.yul\":2219:2221   */\n      0x60\n        /* \"#utility.yul\":2207:2216   */\n      dup5\n        /* \"#utility.yul\":2198:2205   */\n      dup7\n        /* \"#utility.yul\":2194:2217   */\n      sub\n        /* \"#utility.yul\":2190:2222   */\n      slt\n        /* \"#utility.yul\":2187:2239   */\n      iszero\n      tag_324\n      jumpi\n        /* \"#utility.yul\":2235:2236   */\n      0x00\n        /* \"#utility.yul\":2232:2233   */\n      dup1\n        /* \"#utility.yul\":2225:2237   */\n      revert\n        /* \"#utility.yul\":2187:2239   */\n    tag_324:\n        /* \"#utility.yul\":2258:2287   */\n      tag_325\n        /* \"#utility.yul\":2277:2286   */\n      dup5\n        /* \"#utility.yul\":2258:2287   */\n      tag_297\n      jump\t// in\n    tag_325:\n        /* \"#utility.yul\":2248:2287   */\n      swap3\n      pop\n        /* \"#utility.yul\":2306:2344   */\n      tag_326\n        /* \"#utility.yul\":2340:2342   */\n      0x20\n        /* \"#utility.yul\":2329:2338   */\n      dup6\n        /* \"#utility.yul\":2325:2343   */\n      add\n        /* \"#utility.yul\":2306:2344   */\n      tag_297\n      jump\t// in\n    tag_326:\n        /* \"#utility.yul\":2296:2344   */\n      swap2\n      pop\n        /* \"#utility.yul\":2391:2393   */\n      0x40\n        /* \"#utility.yul\":2380:2389   */\n      dup5\n        /* \"#utility.yul\":2376:2394   */\n      add\n        /* \"#utility.yul\":2363:2395   */\n      calldataload\n        /* \"#utility.yul\":2353:2395   */\n      swap1\n      pop\n        /* \"#utility.yul\":2073:2401   */\n      swap3\n      pop\n      swap3\n      pop\n      swap3\n      jump\t// out\n        /* \"#utility.yul\":2406:2592   */\n    tag_73:\n        /* \"#utility.yul\":2465:2471   */\n      0x00\n        /* \"#utility.yul\":2518:2520   */\n      0x20\n        /* \"#utility.yul\":2506:2515   */\n      dup3\n        /* \"#utility.yul\":2497:2504   */\n      dup5\n        /* \"#utility.yul\":2493:2516   */\n      sub\n        /* \"#utility.yul\":2489:2521   */\n      slt\n        /* \"#utility.yul\":2486:2538   */\n      iszero\n      tag_328\n      jumpi\n        /* \"#utility.yul\":2534:2535   */\n      0x00\n        /* \"#utility.yul\":2531:2532   */\n      dup1\n        /* \"#utility.yul\":2524:2536   */\n      revert\n        /* \"#utility.yul\":2486:2538   */\n    tag_328:\n        /* \"#utility.yul\":2557:2586   */\n      tag_204\n        /* \"#utility.yul\":2576:2585   */\n      dup3\n        /* \"#utility.yul\":2557:2586   */\n      tag_297\n      jump\t// in\n        /* \"#utility.yul\":2779:3127   */\n    tag_298:\n        /* \"#utility.yul\":2831:2839   */\n      0x00\n        /* \"#utility.yul\":2841:2847   */\n      dup1\n        /* \"#utility.yul\":2895:2898   */\n      dup4\n        /* \"#utility.yul\":2888:2892   */\n      0x1f\n        /* \"#utility.yul\":2880:2886   */\n      dup5\n        /* \"#utility.yul\":2876:2893   */\n      add\n        /* \"#utility.yul\":2872:2899   */\n      slt\n        /* \"#utility.yul\":2862:2917   */\n      tag_332\n      jumpi\n        /* \"#utility.yul\":2913:2914   */\n      0x00\n        /* \"#utility.yul\":2910:2911   */\n      dup1\n        /* \"#utility.yul\":2903:2915   */\n      revert\n        /* \"#utility.yul\":2862:2917   */\n    tag_332:\n      pop\n        /* \"#utility.yul\":2936:2956   */\n      dup2\n      calldataload\n        /* \"#utility.yul\":2979:2997   */\n      0xffffffffffffffff\n        /* \"#utility.yul\":2968:2998   */\n      dup2\n      gt\n        /* \"#utility.yul\":2965:3015   */\n      iszero\n      tag_333\n      jumpi\n        /* \"#utility.yul\":3011:3012   */\n      0x00\n        /* \"#utility.yul\":3008:3009   */\n      dup1\n        /* \"#utility.yul\":3001:3013   */\n      revert\n        /* \"#utility.yul\":2965:3015   */\n    tag_333:\n        /* \"#utility.yul\":3048:3052   */\n      0x20\n        /* \"#utility.yul\":3040:3046   */\n      dup4\n        /* \"#utility.yul\":3036:3053   */\n      add\n        /* \"#utility.yul\":3024:3053   */\n      swap2\n      pop\n        /* \"#utility.yul\":3100:3103   */\n      dup4\n        /* \"#utility.yul\":3093:3097   */\n      0x20\n        /* \"#utility.yul\":3084:3090   */\n      dup3\n        /* \"#utility.yul\":3076:3082   */\n      dup6\n        /* \"#utility.yul\":3072:3091   */\n      add\n        /* \"#utility.yul\":3068:3098   */\n      add\n        /* \"#utility.yul\":3065:3104   */\n      gt\n        /* \"#utility.yul\":3062:3121   */\n      iszero\n      tag_334\n      jumpi\n        /* \"#utility.yul\":3117:3118   */\n      0x00\n        /* \"#utility.yul\":3114:3115   */\n      dup1\n        /* \"#utility.yul\":3107:3119   */\n      revert\n        /* \"#utility.yul\":3062:3121   */\n    tag_334:\n        /* \"#utility.yul\":2779:3127   */\n      swap3\n      pop\n      swap3\n      swap1\n      pop\n      jump\t// out\n        /* \"#utility.yul\":3132:4077   */\n    tag_79:\n        /* \"#utility.yul\":3251:3257   */\n      0x00\n        /* \"#utility.yul\":3259:3265   */\n      dup1\n        /* \"#utility.yul\":3267:3273   */\n      0x00\n        /* \"#utility.yul\":3275:3281   */\n      dup1\n        /* \"#utility.yul\":3283:3289   */\n      0x00\n        /* \"#utility.yul\":3291:3297   */\n      dup1\n        /* \"#utility.yul\":3299:3305   */\n      0x00\n        /* \"#utility.yul\":3352:3355   */\n      0xa0\n        /* \"#utility.yul\":3340:3349   */\n      dup9\n        /* \"#utility.yul\":3331:3338   */\n      dup11\n        /* \"#utility.yul\":3327:3350   */\n      sub\n        /* \"#utility.yul\":3323:3356   */\n      slt\n        /* \"#utility.yul\":3320:3373   */\n      iszero\n      tag_336\n      jumpi\n        /* \"#utility.yul\":3369:3370   */\n      0x00\n        /* \"#utility.yul\":3366:3367   */\n      dup1\n        /* \"#utility.yul\":3359:3371   */\n      revert\n        /* \"#utility.yul\":3320:3373   */\n    tag_336:\n        /* \"#utility.yul\":3392:3421   */\n      tag_337\n        /* \"#utility.yul\":3411:3420   */\n      dup9\n        /* \"#utility.yul\":3392:3421   */\n      tag_297\n      jump\t// in\n    tag_337:\n        /* \"#utility.yul\":3382:3421   */\n      swap7\n      pop\n        /* \"#utility.yul\":3440:3478   */\n      tag_338\n        /* \"#utility.yul\":3474:3476   */\n      0x20\n        /* \"#utility.yul\":3463:3472   */\n      dup10\n        /* \"#utility.yul\":3459:3477   */\n      add\n        /* \"#utility.yul\":3440:3478   */\n      tag_297\n      jump\t// in\n    tag_338:\n        /* \"#utility.yul\":3430:3478   */\n      swap6\n      pop\n        /* \"#utility.yul\":3497:3535   */\n      tag_339\n        /* \"#utility.yul\":3531:3533   */\n      0x40\n        /* \"#utility.yul\":3520:3529   */\n      dup10\n        /* \"#utility.yul\":3516:3534   */\n      add\n        /* \"#utility.yul\":3497:3535   */\n      tag_297\n      jump\t// in\n    tag_339:\n        /* \"#utility.yul\":3487:3535   */\n      swap5\n      pop\n        /* \"#utility.yul\":3586:3588   */\n      0x60\n        /* \"#utility.yul\":3575:3584   */\n      dup9\n        /* \"#utility.yul\":3571:3589   */\n      add\n        /* \"#utility.yul\":3558:3590   */\n      calldataload\n        /* \"#utility.yul\":3609:3627   */\n      0xffffffffffffffff\n        /* \"#utility.yul\":3650:3652   */\n      dup1\n        /* \"#utility.yul\":3642:3648   */\n      dup3\n        /* \"#utility.yul\":3639:3653   */\n      gt\n        /* \"#utility.yul\":3636:3670   */\n      iszero\n      tag_340\n      jumpi\n        /* \"#utility.yul\":3666:3667   */\n      0x00\n        /* \"#utility.yul\":3663:3664   */\n      dup1\n        /* \"#utility.yul\":3656:3668   */\n      revert\n        /* \"#utility.yul\":3636:3670   */\n    tag_340:\n        /* \"#utility.yul\":3705:3764   */\n      tag_341\n        /* \"#utility.yul\":3756:3763   */\n      dup12\n        /* \"#utility.yul\":3747:3753   */\n      dup4\n        /* \"#utility.yul\":3736:3745   */\n      dup13\n        /* \"#utility.yul\":3732:3754   */\n      add\n        /* \"#utility.yul\":3705:3764   */\n      tag_298\n      jump\t// in\n    tag_341:\n        /* \"#utility.yul\":3783:3791   */\n      swap1\n      swap7\n      pop\n        /* \"#utility.yul\":3679:3764   */\n      swap5\n      pop\n        /* \"#utility.yul\":3871:3874   */\n      0x80\n        /* \"#utility.yul\":3856:3875   */\n      dup11\n      add\n        /* \"#utility.yul\":3843:3876   */\n      calldataload\n      swap2\n      pop\n        /* \"#utility.yul\":3888:3904   */\n      dup1\n      dup3\n      gt\n        /* \"#utility.yul\":3885:3921   */\n      iszero\n      tag_342\n      jumpi\n        /* \"#utility.yul\":3917:3918   */\n      0x00\n        /* \"#utility.yul\":3914:3915   */\n      dup1\n        /* \"#utility.yul\":3907:3919   */\n      revert\n        /* \"#utility.yul\":3885:3921   */\n    tag_342:\n      pop\n        /* \"#utility.yul\":3956:4017   */\n      tag_343\n        /* \"#utility.yul\":4009:4016   */\n      dup11\n        /* \"#utility.yul\":3998:4006   */\n      dup3\n        /* \"#utility.yul\":3987:3996   */\n      dup12\n        /* \"#utility.yul\":3983:4007   */\n      add\n        /* \"#utility.yul\":3956:4017   */\n      tag_298\n      jump\t// in\n    tag_343:\n        /* \"#utility.yul\":3132:4077   */\n      swap9\n      swap12\n      swap8\n      swap11\n      pop\n      swap6\n      swap9\n      pop\n      swap4\n      swap7\n      swap3\n      swap6\n        /* \"#utility.yul\":3930:4017   */\n      swap3\n      swap4\n      pop\n      pop\n      pop\n        /* \"#utility.yul\":3132:4077   */\n      jump\t// out\n        /* \"#utility.yul\":4082:4213   */\n    tag_299:\n      sub(shl(0x80, 0x01), 0x01)\n        /* \"#utility.yul\":4157:4188   */\n      dup2\n      and\n        /* \"#utility.yul\":4147:4189   */\n      dup2\n      eq\n        /* \"#utility.yul\":4137:4207   */\n      tag_159\n      jumpi\n        /* \"#utility.yul\":4203:4204   */\n      0x00\n        /* \"#utility.yul\":4200:4201   */\n      dup1\n        /* \"#utility.yul\":4193:4205   */\n      revert\n        /* \"#utility.yul\":4218:4465   */\n    tag_86:\n        /* \"#utility.yul\":4277:4283   */\n      0x00\n        /* \"#utility.yul\":4330:4332   */\n      0x20\n        /* \"#utility.yul\":4318:4327   */\n      dup3\n        /* \"#utility.yul\":4309:4316   */\n      dup5\n        /* \"#utility.yul\":4305:4328   */\n      sub\n        /* \"#utility.yul\":4301:4333   */\n      slt\n        /* \"#utility.yul\":4298:4350   */\n      iszero\n      tag_347\n      jumpi\n        /* \"#utility.yul\":4346:4347   */\n      0x00\n        /* \"#utility.yul\":4343:4344   */\n      dup1\n        /* \"#utility.yul\":4336:4348   */\n      revert\n        /* \"#utility.yul\":4298:4350   */\n    tag_347:\n        /* \"#utility.yul\":4385:4394   */\n      dup2\n        /* \"#utility.yul\":4372:4395   */\n      calldataload\n        /* \"#utility.yul\":4404:4435   */\n      tag_204\n        /* \"#utility.yul\":4429:4434   */\n      dup2\n        /* \"#utility.yul\":4404:4435   */\n      tag_299\n      jump\t// in\n        /* \"#utility.yul\":4779:5126   */\n    tag_92:\n        /* \"#utility.yul\":4844:4850   */\n      0x00\n        /* \"#utility.yul\":4852:4858   */\n      dup1\n        /* \"#utility.yul\":4905:4907   */\n      0x40\n        /* \"#utility.yul\":4893:4902   */\n      dup4\n        /* \"#utility.yul\":4884:4891   */\n      dup6\n        /* \"#utility.yul\":4880:4903   */\n      sub\n        /* \"#utility.yul\":4876:4908   */\n      slt\n        /* \"#utility.yul\":4873:4925   */\n      iszero\n      tag_351\n      jumpi\n        /* \"#utility.yul\":4921:4922   */\n      0x00\n        /* \"#utility.yul\":4918:4919   */\n      dup1\n        /* \"#utility.yul\":4911:4923   */\n      revert\n        /* \"#utility.yul\":4873:4925   */\n    tag_351:\n        /* \"#utility.yul\":4944:4973   */\n      tag_352\n        /* \"#utility.yul\":4963:4972   */\n      dup4\n        /* \"#utility.yul\":4944:4973   */\n      tag_297\n      jump\t// in\n    tag_352:\n        /* \"#utility.yul\":4934:4973   */\n      swap2\n      pop\n        /* \"#utility.yul\":5023:5025   */\n      0x20\n        /* \"#utility.yul\":5012:5021   */\n      dup4\n        /* \"#utility.yul\":5008:5026   */\n      add\n        /* \"#utility.yul\":4995:5027   */\n      calldataload\n        /* \"#utility.yul\":5070:5075   */\n      dup1\n        /* \"#utility.yul\":5063:5076   */\n      iszero\n        /* \"#utility.yul\":5056:5077   */\n      iszero\n        /* \"#utility.yul\":5049:5054   */\n      dup2\n        /* \"#utility.yul\":5046:5078   */\n      eq\n        /* \"#utility.yul\":5036:5096   */\n      tag_353\n      jumpi\n        /* \"#utility.yul\":5092:5093   */\n      0x00\n        /* \"#utility.yul\":5089:5090   */\n      dup1\n        /* \"#utility.yul\":5082:5094   */\n      revert\n        /* \"#utility.yul\":5036:5096   */\n    tag_353:\n        /* \"#utility.yul\":5115:5120   */\n      dup1\n        /* \"#utility.yul\":5105:5120   */\n      swap2\n      pop\n      pop\n        /* \"#utility.yul\":4779:5126   */\n      swap3\n      pop\n      swap3\n      swap1\n      pop\n      jump\t// out\n        /* \"#utility.yul\":5131:5758   */\n    tag_102:\n        /* \"#utility.yul\":5228:5234   */\n      0x00\n        /* \"#utility.yul\":5236:5242   */\n      dup1\n        /* \"#utility.yul\":5244:5250   */\n      0x00\n        /* \"#utility.yul\":5252:5258   */\n      dup1\n        /* \"#utility.yul\":5260:5266   */\n      0x00\n        /* \"#utility.yul\":5313:5316   */\n      0x80\n        /* \"#utility.yul\":5301:5310   */\n      dup7\n        /* \"#utility.yul\":5292:5299   */\n      dup9\n        /* \"#utility.yul\":5288:5311   */\n      sub\n        /* \"#utility.yul\":5284:5317   */\n      slt\n        /* \"#utility.yul\":5281:5334   */\n      iszero\n      tag_355\n      jumpi\n        /* \"#utility.yul\":5330:5331   */\n      0x00\n        /* \"#utility.yul\":5327:5328   */\n      dup1\n        /* \"#utility.yul\":5320:5332   */\n      revert\n        /* \"#utility.yul\":5281:5334   */\n    tag_355:\n        /* \"#utility.yul\":5353:5382   */\n      tag_356\n        /* \"#utility.yul\":5372:5381   */\n      dup7\n        /* \"#utility.yul\":5353:5382   */\n      tag_297\n      jump\t// in\n    tag_356:\n        /* \"#utility.yul\":5343:5382   */\n      swap5\n      pop\n        /* \"#utility.yul\":5401:5439   */\n      tag_357\n        /* \"#utility.yul\":5435:5437   */\n      0x20\n        /* \"#utility.yul\":5424:5433   */\n      dup8\n        /* \"#utility.yul\":5420:5438   */\n      add\n        /* \"#utility.yul\":5401:5439   */\n      tag_297\n      jump\t// in\n    tag_357:\n        /* \"#utility.yul\":5391:5439   */\n      swap4\n      pop\n        /* \"#utility.yul\":5486:5488   */\n      0x40\n        /* \"#utility.yul\":5475:5484   */\n      dup7\n        /* \"#utility.yul\":5471:5489   */\n      add\n        /* \"#utility.yul\":5458:5490   */\n      calldataload\n        /* \"#utility.yul\":5448:5490   */\n      swap3\n      pop\n        /* \"#utility.yul\":5541:5543   */\n      0x60\n        /* \"#utility.yul\":5530:5539   */\n      dup7\n        /* \"#utility.yul\":5526:5544   */\n      add\n        /* \"#utility.yul\":5513:5545   */\n      calldataload\n        /* \"#utility.yul\":5568:5586   */\n      0xffffffffffffffff\n        /* \"#utility.yul\":5560:5566   */\n      dup2\n        /* \"#utility.yul\":5557:5587   */\n      gt\n        /* \"#utility.yul\":5554:5604   */\n      iszero\n      tag_358\n      jumpi\n        /* \"#utility.yul\":5600:5601   */\n      0x00\n        /* \"#utility.yul\":5597:5598   */\n      dup1\n        /* \"#utility.yul\":5590:5602   */\n      revert\n        /* \"#utility.yul\":5554:5604   */\n    tag_358:\n        /* \"#utility.yul\":5639:5698   */\n      tag_359\n        /* \"#utility.yul\":5690:5697   */\n      dup9\n        /* \"#utility.yul\":5681:5687   */\n      dup3\n        /* \"#utility.yul\":5670:5679   */\n      dup10\n        /* \"#utility.yul\":5666:5688   */\n      add\n        /* \"#utility.yul\":5639:5698   */\n      tag_298\n      jump\t// in\n    tag_359:\n        /* \"#utility.yul\":5131:5758   */\n      swap7\n      swap10\n      swap6\n      swap9\n      pop\n      swap4\n      swap7\n      pop\n        /* \"#utility.yul\":5717:5725   */\n      swap3\n      swap5\n        /* \"#utility.yul\":5613:5698   */\n      swap4\n        /* \"#utility.yul\":5131:5758   */\n      swap3\n      pop\n      pop\n      pop\n      jump\t// out\n        /* \"#utility.yul\":5763:6023   */\n    tag_113:\n        /* \"#utility.yul\":5831:5837   */\n      0x00\n        /* \"#utility.yul\":5839:5845   */\n      dup1\n        /* \"#utility.yul\":5892:5894   */\n      0x40\n        /* \"#utility.yul\":5880:5889   */\n      dup4\n        /* \"#utility.yul\":5871:5878   */\n      dup6\n        /* \"#utility.yul\":5867:5890   */\n      sub\n        /* \"#utility.yul\":5863:5895   */\n      slt\n        /* \"#utility.yul\":5860:5912   */\n      iszero\n      tag_361\n      jumpi\n        /* \"#utility.yul\":5908:5909   */\n      0x00\n        /* \"#utility.yul\":5905:5906   */\n      dup1\n        /* \"#utility.yul\":5898:5910   */\n      revert\n        /* \"#utility.yul\":5860:5912   */\n    tag_361:\n        /* \"#utility.yul\":5931:5960   */\n      tag_362\n        /* \"#utility.yul\":5950:5959   */\n      dup4\n        /* \"#utility.yul\":5931:5960   */\n      tag_297\n      jump\t// in\n    tag_362:\n        /* \"#utility.yul\":5921:5960   */\n      swap2\n      pop\n        /* \"#utility.yul\":5979:6017   */\n      tag_363\n        /* \"#utility.yul\":6013:6015   */\n      0x20\n        /* \"#utility.yul\":6002:6011   */\n      dup5\n        /* \"#utility.yul\":5998:6016   */\n      add\n        /* \"#utility.yul\":5979:6017   */\n      tag_297\n      jump\t// in\n    tag_363:\n        /* \"#utility.yul\":5969:6017   */\n      swap1\n      pop\n        /* \"#utility.yul\":5763:6023   */\n      swap3\n      pop\n      swap3\n      swap1\n      pop\n      jump\t// out\n        /* \"#utility.yul\":6028:6408   */\n    tag_120:\n        /* \"#utility.yul\":6107:6108   */\n      0x01\n        /* \"#utility.yul\":6103:6115   */\n      dup2\n      dup2\n      shr\n      swap1\n        /* \"#utility.yul\":6150:6162   */\n      dup3\n      and\n      dup1\n        /* \"#utility.yul\":6171:6232   */\n      tag_365\n      jumpi\n        /* \"#utility.yul\":6225:6229   */\n      0x7f\n        /* \"#utility.yul\":6217:6223   */\n      dup3\n        /* \"#utility.yul\":6213:6230   */\n      and\n        /* \"#utility.yul\":6203:6230   */\n      swap2\n      pop\n        /* \"#utility.yul\":6171:6232   */\n    tag_365:\n        /* \"#utility.yul\":6278:6280   */\n      0x20\n        /* \"#utility.yul\":6270:6276   */\n      dup3\n        /* \"#utility.yul\":6267:6281   */\n      lt\n        /* \"#utility.yul\":6247:6265   */\n      dup2\n        /* \"#utility.yul\":6244:6282   */\n      eq\n        /* \"#utility.yul\":6241:6402   */\n      iszero\n      tag_366\n      jumpi\n        /* \"#utility.yul\":6324:6334   */\n      0x4e487b71\n        /* \"#utility.yul\":6319:6322   */\n      0xe0\n        /* \"#utility.yul\":6315:6335   */\n      shl\n        /* \"#utility.yul\":6312:6313   */\n      0x00\n        /* \"#utility.yul\":6305:6336   */\n      mstore\n        /* \"#utility.yul\":6359:6363   */\n      0x22\n        /* \"#utility.yul\":6356:6357   */\n      0x04\n        /* \"#utility.yul\":6349:6364   */\n      mstore\n        /* \"#utility.yul\":6387:6391   */\n      0x24\n        /* \"#utility.yul\":6384:6385   */\n      0x00\n        /* \"#utility.yul\":6377:6392   */\n      revert\n        /* \"#utility.yul\":6241:6402   */\n    tag_366:\n      pop\n        /* \"#utility.yul\":6028:6408   */\n      swap2\n      swap1\n      pop\n      jump\t// out\n        /* \"#utility.yul\":6413:6751   */\n    tag_129:\n        /* \"#utility.yul\":6615:6617   */\n      0x20\n        /* \"#utility.yul\":6597:6618   */\n      dup1\n      dup3\n      mstore\n        /* \"#utility.yul\":6654:6656   */\n      0x0e\n        /* \"#utility.yul\":6634:6652   */\n      swap1\n      dup3\n      add\n        /* \"#utility.yul\":6627:6657   */\n      mstore\n      shl(0x92, 0x1393d517d055551213d492569151)\n        /* \"#utility.yul\":6688:6690   */\n      0x40\n        /* \"#utility.yul\":6673:6691   */\n      dup3\n      add\n        /* \"#utility.yul\":6666:6710   */\n      mstore\n        /* \"#utility.yul\":6742:6744   */\n      0x60\n        /* \"#utility.yul\":6727:6745   */\n      add\n      swap1\n        /* \"#utility.yul\":6413:6751   */\n      jump\t// out\n        /* \"#utility.yul\":7095:7436   */\n    tag_136:\n        /* \"#utility.yul\":7297:7299   */\n      0x20\n        /* \"#utility.yul\":7279:7300   */\n      dup1\n      dup3\n      mstore\n        /* \"#utility.yul\":7336:7338   */\n      0x11\n        /* \"#utility.yul\":7316:7334   */\n      swap1\n      dup3\n      add\n        /* \"#utility.yul\":7309:7339   */\n      mstore\n      shl(0x7a, 0x1253959053125117d49150d25412515395)\n        /* \"#utility.yul\":7370:7372   */\n      0x40\n        /* \"#utility.yul\":7355:7373   */\n      dup3\n      add\n        /* \"#utility.yul\":7348:7395   */\n      mstore\n        /* \"#utility.yul\":7427:7429   */\n      0x60\n        /* \"#utility.yul\":7412:7430   */\n      add\n      swap1\n        /* \"#utility.yul\":7095:7436   */\n      jump\t// out\n        /* \"#utility.yul\":8001:8250   */\n    tag_153:\n        /* \"#utility.yul\":8070:8076   */\n      0x00\n        /* \"#utility.yul\":8123:8125   */\n      0x20\n        /* \"#utility.yul\":8111:8120   */\n      dup3\n        /* \"#utility.yul\":8102:8109   */\n      dup5\n        /* \"#utility.yul\":8098:8121   */\n      sub\n        /* \"#utility.yul\":8094:8126   */\n      slt\n        /* \"#utility.yul\":8091:8143   */\n      iszero\n      tag_372\n      jumpi\n        /* \"#utility.yul\":8139:8140   */\n      0x00\n        /* \"#utility.yul\":8136:8137   */\n      dup1\n        /* \"#utility.yul\":8129:8141   */\n      revert\n        /* \"#utility.yul\":8091:8143   */\n    tag_372:\n        /* \"#utility.yul\":8171:8180   */\n      dup2\n        /* \"#utility.yul\":8165:8181   */\n      mload\n        /* \"#utility.yul\":8190:8220   */\n      tag_204\n        /* \"#utility.yul\":8214:8219   */\n      dup2\n        /* \"#utility.yul\":8190:8220   */\n      tag_295\n      jump\t// in\n        /* \"#utility.yul\":8255:8595   */\n    tag_156:\n        /* \"#utility.yul\":8457:8459   */\n      0x20\n        /* \"#utility.yul\":8439:8460   */\n      dup1\n      dup3\n      mstore\n        /* \"#utility.yul\":8496:8498   */\n      0x10\n        /* \"#utility.yul\":8476:8494   */\n      swap1\n      dup3\n      add\n        /* \"#utility.yul\":8469:8499   */\n      mstore\n      shl(0x82, 0x155394d0519157d49150d25412515395)\n        /* \"#utility.yul\":8530:8532   */\n      0x40\n        /* \"#utility.yul\":8515:8533   */\n      dup3\n      add\n        /* \"#utility.yul\":8508:8554   */\n      mstore\n        /* \"#utility.yul\":8586:8588   */\n      0x60\n        /* \"#utility.yul\":8571:8589   */\n      add\n      swap1\n        /* \"#utility.yul\":8255:8595   */\n      jump\t// out\n        /* \"#utility.yul\":8600:8934   */\n    tag_164:\n        /* \"#utility.yul\":8802:8804   */\n      0x20\n        /* \"#utility.yul\":8784:8805   */\n      dup1\n      dup3\n      mstore\n        /* \"#utility.yul\":8841:8843   */\n      0x0a\n        /* \"#utility.yul\":8821:8839   */\n      swap1\n      dup3\n      add\n        /* \"#utility.yul\":8814:8844   */\n      mstore\n      shl(0xb2, 0x1393d517d35253951151)\n        /* \"#utility.yul\":8875:8877   */\n      0x40\n        /* \"#utility.yul\":8860:8878   */\n      dup3\n      add\n        /* \"#utility.yul\":8853:8893   */\n      mstore\n        /* \"#utility.yul\":8925:8927   */\n      0x60\n        /* \"#utility.yul\":8910:8928   */\n      add\n      swap1\n        /* \"#utility.yul\":8600:8934   */\n      jump\t// out\n        /* \"#utility.yul\":9488:9873   */\n    tag_186:\n        /* \"#utility.yul\":9567:9573   */\n      0x00\n        /* \"#utility.yul\":9575:9581   */\n      dup1\n        /* \"#utility.yul\":9628:9630   */\n      0x40\n        /* \"#utility.yul\":9616:9625   */\n      dup4\n        /* \"#utility.yul\":9607:9614   */\n      dup6\n        /* \"#utility.yul\":9603:9626   */\n      sub\n        /* \"#utility.yul\":9599:9631   */\n      slt\n        /* \"#utility.yul\":9596:9648   */\n      iszero\n      tag_379\n      jumpi\n        /* \"#utility.yul\":9644:9645   */\n      0x00\n        /* \"#utility.yul\":9641:9642   */\n      dup1\n        /* \"#utility.yul\":9634:9646   */\n      revert\n        /* \"#utility.yul\":9596:9648   */\n    tag_379:\n        /* \"#utility.yul\":9676:9685   */\n      dup3\n        /* \"#utility.yul\":9670:9686   */\n      mload\n        /* \"#utility.yul\":9695:9726   */\n      tag_380\n        /* \"#utility.yul\":9720:9725   */\n      dup2\n        /* \"#utility.yul\":9695:9726   */\n      tag_299\n      jump\t// in\n    tag_380:\n        /* \"#utility.yul\":9795:9797   */\n      0x20\n        /* \"#utility.yul\":9780:9798   */\n      dup5\n      add\n        /* \"#utility.yul\":9774:9799   */\n      mload\n        /* \"#utility.yul\":9745:9750   */\n      swap1\n      swap3\n      pop\n        /* \"#utility.yul\":9808:9841   */\n      tag_353\n        /* \"#utility.yul\":9774:9799   */\n      dup2\n        /* \"#utility.yul\":9808:9841   */\n      tag_299\n      jump\t// in\n        /* \"#utility.yul\":9878:10540   */\n    tag_193:\n      sub(shl(0xa0, 0x01), 0x01)\n        /* \"#utility.yul\":10157:10172   */\n      dup7\n      dup2\n      and\n        /* \"#utility.yul\":10139:10173   */\n      dup3\n      mstore\n        /* \"#utility.yul\":10209:10224   */\n      dup6\n      and\n        /* \"#utility.yul\":10204:10206   */\n      0x20\n        /* \"#utility.yul\":10189:10207   */\n      dup3\n      add\n        /* \"#utility.yul\":10182:10225   */\n      mstore\n        /* \"#utility.yul\":10256:10258   */\n      0x40\n        /* \"#utility.yul\":10241:10259   */\n      dup2\n      add\n        /* \"#utility.yul\":10234:10268   */\n      dup5\n      swap1\n      mstore\n        /* \"#utility.yul\":10304:10307   */\n      0x80\n        /* \"#utility.yul\":10299:10301   */\n      0x60\n        /* \"#utility.yul\":10284:10302   */\n      dup3\n      add\n        /* \"#utility.yul\":10277:10308   */\n      dup2\n      swap1\n      mstore\n        /* \"#utility.yul\":10324:10343   */\n      dup2\n      add\n        /* \"#utility.yul\":10317:10352   */\n      dup3\n      swap1\n      mstore\n        /* \"#utility.yul\":10082:10086   */\n      0x00\n        /* \"#utility.yul\":10345:10351   */\n      dup3\n        /* \"#utility.yul\":10395:10401   */\n      dup5\n        /* \"#utility.yul\":10119:10122   */\n      0xa0\n        /* \"#utility.yul\":10374:10393   */\n      dup5\n      add\n        /* \"#utility.yul\":10361:10410   */\n      calldatacopy\n        /* \"#utility.yul\":10460:10461   */\n      0x00\n        /* \"#utility.yul\":10454:10457   */\n      0xa0\n        /* \"#utility.yul\":10445:10451   */\n      dup5\n        /* \"#utility.yul\":10434:10443   */\n      dup5\n        /* \"#utility.yul\":10430:10452   */\n      add\n        /* \"#utility.yul\":10426:10458   */\n      add\n        /* \"#utility.yul\":10419:10462   */\n      mstore\n        /* \"#utility.yul\":10530:10533   */\n      0xa0\n        /* \"#utility.yul\":10523:10525   */\n      0x1f\n        /* \"#utility.yul\":10519:10526   */\n      not\n        /* \"#utility.yul\":10514:10516   */\n      0x1f\n        /* \"#utility.yul\":10506:10512   */\n      dup6\n        /* \"#utility.yul\":10502:10517   */\n      add\n        /* \"#utility.yul\":10498:10527   */\n      and\n        /* \"#utility.yul\":10487:10496   */\n      dup4\n        /* \"#utility.yul\":10483:10528   */\n      add\n        /* \"#utility.yul\":10479:10534   */\n      add\n        /* \"#utility.yul\":10471:10534   */\n      swap1\n      pop\n        /* \"#utility.yul\":9878:10540   */\n      swap7\n      swap6\n      pop\n      pop\n      pop\n      pop\n      pop\n      pop\n      jump\t// out\n        /* \"#utility.yul\":10545:11699   */\n    tag_211:\n        /* \"#utility.yul\":11022:11025   */\n      0x00\n        /* \"#utility.yul\":11060:11066   */\n      dup6\n        /* \"#utility.yul\":11054:11067   */\n      mload\n        /* \"#utility.yul\":11076:11129   */\n      tag_384\n        /* \"#utility.yul\":11122:11128   */\n      dup2\n        /* \"#utility.yul\":11117:11120   */\n      dup5\n        /* \"#utility.yul\":11110:11114   */\n      0x20\n        /* \"#utility.yul\":11102:11108   */\n      dup11\n        /* \"#utility.yul\":11098:11115   */\n      add\n        /* \"#utility.yul\":11076:11129   */\n      tag_296\n      jump\t// in\n    tag_384:\n        /* \"#utility.yul\":11192:11205   */\n      dup6\n      mload\n        /* \"#utility.yul\":11151:11167   */\n      swap1\n      dup4\n      add\n      swap1\n        /* \"#utility.yul\":11214:11271   */\n      tag_385\n        /* \"#utility.yul\":11192:11205   */\n      dup2\n        /* \"#utility.yul\":11151:11167   */\n      dup4\n        /* \"#utility.yul\":11248:11252   */\n      0x20\n        /* \"#utility.yul\":11236:11253   */\n      dup11\n      add\n        /* \"#utility.yul\":11214:11271   */\n      tag_296\n      jump\t// in\n    tag_385:\n      shl(0xf8, 0x2f)\n        /* \"#utility.yul\":11293:11313   */\n      swap2\n      add\n        /* \"#utility.yul\":11344:11361   */\n      dup2\n      dup2\n      mstore\n        /* \"#utility.yul\":11386:11399   */\n      dup6\n      mload\n        /* \"#utility.yul\":11293:11313   */\n      swap1\n      swap2\n        /* \"#utility.yul\":11332:11335   */\n      swap1\n        /* \"#utility.yul\":11408:11473   */\n      tag_386\n        /* \"#utility.yul\":11386:11399   */\n      dup2\n        /* \"#utility.yul\":11460:11461   */\n      0x01\n        /* \"#utility.yul\":11449:11462   */\n      dup6\n      add\n        /* \"#utility.yul\":11442:11446   */\n      0x20\n        /* \"#utility.yul\":11430:11447   */\n      dup11\n      add\n        /* \"#utility.yul\":11408:11473   */\n      tag_296\n      jump\t// in\n    tag_386:\n        /* \"#utility.yul\":11536:11537   */\n      0x01\n        /* \"#utility.yul\":11492:11512   */\n      swap3\n      add\n        /* \"#utility.yul\":11528:11538   */\n      swap2\n      dup3\n      add\n        /* \"#utility.yul\":11521:11543   */\n      mstore\n        /* \"#utility.yul\":11568:11581   */\n      dup4\n      mload\n        /* \"#utility.yul\":11590:11652   */\n      tag_387\n        /* \"#utility.yul\":11568:11581   */\n      dup2\n        /* \"#utility.yul\":11639:11640   */\n      0x02\n        /* \"#utility.yul\":11631:11641   */\n      dup5\n      add\n        /* \"#utility.yul\":11624:11628   */\n      0x20\n        /* \"#utility.yul\":11612:11629   */\n      dup9\n      add\n        /* \"#utility.yul\":11590:11652   */\n      tag_296\n      jump\t// in\n    tag_387:\n        /* \"#utility.yul\":11672:11689   */\n      add\n        /* \"#utility.yul\":11691:11692   */\n      0x02\n        /* \"#utility.yul\":11668:11693   */\n      add\n      swap7\n        /* \"#utility.yul\":10545:11699   */\n      swap6\n      pop\n      pop\n      pop\n      pop\n      pop\n      pop\n      jump\t// out\n        /* \"#utility.yul\":12047:12174   */\n    tag_230:\n        /* \"#utility.yul\":12108:12118   */\n      0x4e487b71\n        /* \"#utility.yul\":12103:12106   */\n      0xe0\n        /* \"#utility.yul\":12099:12119   */\n      shl\n        /* \"#utility.yul\":12096:12097   */\n      0x00\n        /* \"#utility.yul\":12089:12120   */\n      mstore\n        /* \"#utility.yul\":12139:12143   */\n      0x41\n        /* \"#utility.yul\":12136:12137   */\n      0x04\n        /* \"#utility.yul\":12129:12144   */\n      mstore\n        /* \"#utility.yul\":12163:12167   */\n      0x24\n        /* \"#utility.yul\":12160:12161   */\n      0x00\n        /* \"#utility.yul\":12153:12168   */\n      revert\n        /* \"#utility.yul\":12311:12438   */\n    tag_300:\n        /* \"#utility.yul\":12372:12382   */\n      0x4e487b71\n        /* \"#utility.yul\":12367:12370   */\n      0xe0\n        /* \"#utility.yul\":12363:12383   */\n      shl\n        /* \"#utility.yul\":12360:12361   */\n      0x00\n        /* \"#utility.yul\":12353:12384   */\n      mstore\n        /* \"#utility.yul\":12403:12407   */\n      0x11\n        /* \"#utility.yul\":12400:12401   */\n      0x04\n        /* \"#utility.yul\":12393:12408   */\n      mstore\n        /* \"#utility.yul\":12427:12431   */\n      0x24\n        /* \"#utility.yul\":12424:12425   */\n      0x00\n        /* \"#utility.yul\":12417:12432   */\n      revert\n        /* \"#utility.yul\":12443:12611   */\n    tag_240:\n        /* \"#utility.yul\":12483:12490   */\n      0x00\n        /* \"#utility.yul\":12549:12550   */\n      dup2\n        /* \"#utility.yul\":12545:12546   */\n      0x00\n        /* \"#utility.yul\":12541:12547   */\n      not\n        /* \"#utility.yul\":12537:12551   */\n      div\n        /* \"#utility.yul\":12534:12535   */\n      dup4\n        /* \"#utility.yul\":12531:12552   */\n      gt\n        /* \"#utility.yul\":12526:12527   */\n      dup3\n        /* \"#utility.yul\":12519:12528   */\n      iszero\n        /* \"#utility.yul\":12512:12529   */\n      iszero\n        /* \"#utility.yul\":12508:12553   */\n      and\n        /* \"#utility.yul\":12505:12576   */\n      iszero\n      tag_394\n      jumpi\n        /* \"#utility.yul\":12556:12574   */\n      tag_394\n      tag_300\n      jump\t// in\n    tag_394:\n      pop\n        /* \"#utility.yul\":12596:12605   */\n      mul\n      swap1\n        /* \"#utility.yul\":12443:12611   */\n      jump\t// out\n        /* \"#utility.yul\":12616:12744   */\n    tag_242:\n        /* \"#utility.yul\":12656:12659   */\n      0x00\n        /* \"#utility.yul\":12687:12688   */\n      dup3\n        /* \"#utility.yul\":12683:12689   */\n      not\n        /* \"#utility.yul\":12680:12681   */\n      dup3\n        /* \"#utility.yul\":12677:12690   */\n      gt\n        /* \"#utility.yul\":12674:12713   */\n      iszero\n      tag_397\n      jumpi\n        /* \"#utility.yul\":12693:12711   */\n      tag_397\n      tag_300\n      jump\t// in\n    tag_397:\n      pop\n        /* \"#utility.yul\":12729:12738   */\n      add\n      swap1\n        /* \"#utility.yul\":12616:12744   */\n      jump\t// out\n        /* \"#utility.yul\":12749:12876   */\n    tag_248:\n        /* \"#utility.yul\":12810:12820   */\n      0x4e487b71\n        /* \"#utility.yul\":12805:12808   */\n      0xe0\n        /* \"#utility.yul\":12801:12821   */\n      shl\n        /* \"#utility.yul\":12798:12799   */\n      0x00\n        /* \"#utility.yul\":12791:12822   */\n      mstore\n        /* \"#utility.yul\":12841:12845   */\n      0x32\n        /* \"#utility.yul\":12838:12839   */\n      0x04\n        /* \"#utility.yul\":12831:12846   */\n      mstore\n        /* \"#utility.yul\":12865:12869   */\n      0x24\n        /* \"#utility.yul\":12862:12863   */\n      0x00\n        /* \"#utility.yul\":12855:12870   */\n      revert\n        /* \"#utility.yul\":12881:13017   */\n    tag_261:\n        /* \"#utility.yul\":12920:12923   */\n      0x00\n        /* \"#utility.yul\":12948:12953   */\n      dup2\n        /* \"#utility.yul\":12938:12977   */\n      tag_401\n      jumpi\n        /* \"#utility.yul\":12957:12975   */\n      tag_401\n      tag_300\n      jump\t// in\n    tag_401:\n      pop\n      not(0x00)\n        /* \"#utility.yul\":12993:13011   */\n      add\n      swap1\n        /* \"#utility.yul\":12881:13017   */\n      jump\t// out\n    stop\n    data_ada389e1fc24a8587c776340efb91b36e675792ab631816100d55df0b5cf3cbc ddf252ad1be2c89b69c2b068fc378daa952ba7f163c4a11628f55a4df523b3ef\n\n    auxdata: 0xa2646970667358221220ff1d3caeccbc6ac232289188f06c56d5ad692c1bb52bf2a4f2e4913b60a01a1f64736f6c634300080a0033\n}\n",
				"bytecode": {
					"linkReferences": {},
					"object": "60a060405234801561001057600080fd5b5060405161178b38038061178b83398101604081905261002f9161004d565b6001600160a01b03166080526008805460ff60a01b1916905561007d565b60006020828403121561005f57600080fd5b81516001600160a01b038116811461007657600080fd5b9392505050565b6080516116ec61009f60003960008181610320015261086101526116ec6000f3fe608060405234801561001057600080fd5b50600436106101425760003560e01c806370a08231116100b8578063a8aa1b311161007c578063a8aa1b31146102e2578063b7d19fc4146102f5578063b88d4fde14610308578063c45a01551461031b578063c87b56dd14610342578063e985e9c51461035557600080fd5b806370a082311461026057806383b435891461028157806395d89b41146102945780639abe9dfb1461029c578063a22cb465146102cf57600080fd5b806316dc165b1161010a57806316dc165b146101ee57806323b872dd1461020157806340c10f191461021457806342842e0e1461022757806342966c681461023a5780636352211e1461024d57600080fd5b806301ffc9a71461014757806306fdde031461016f578063081812fc14610184578063095ea7b3146101c5578063158ef93e146101da575b600080fd5b61015a6101553660046110ef565b610383565b60405190151581526020015b60405180910390f35b6101776103d5565b604051610166919061113c565b6101ad61019236600461116f565b6002602052600090815260409020546001600160a01b031681565b6040516001600160a01b039091168152602001610166565b6101d86101d336600461119f565b610463565b005b60085461015a90600160a01b900460ff1681565b6007546101ad906001600160a01b031681565b6101d861020f3660046111c9565b61052d565b6101d861022236600461119f565b61069c565b6101d86102353660046111c9565b6106c1565b6101d861024836600461116f565b610796565b6101ad61025b36600461116f565b6107b9565b61027361026e366004611205565b6107f3565b604051908152602001610166565b6101d861028f366004611269565b610856565b610177610915565b6102af6102aa366004611320565b610922565b604080516001600160801b03938416815292909116602083015201610166565b6101d86102dd36600461133d565b6109a5565b6006546101ad906001600160a01b031681565b6008546101ad906001600160a01b031681565b6101d8610316366004611379565b610a11565b6101ad7f000000000000000000000000000000000000000000000000000000000000000081565b61017761035036600461116f565b610ad6565b61015a6103633660046113e8565b600360209081526000928352604080842090915290825290205460ff1681565b60006301ffc9a760e01b6001600160e01b0319831614806103b457506380ac58cd60e01b6001600160e01b03198316145b806103cf5750635b5e139f60e01b6001600160e01b03198316145b92915050565b600480546103e29061141b565b80601f016020809104026020016040519081016040528092919081815260200182805461040e9061141b565b801561045b5780601f106104305761010080835404028352916020019161045b565b820191906000526020600020905b81548152906001019060200180831161043e57829003601f168201915b505050505081565b6000818152602081905260409020546001600160a01b0316338114806104ac57506001600160a01b038116600090815260036020908152604080832033845290915290205460ff165b6104d15760405162461bcd60e51b81526004016104c890611456565b60405180910390fd5b60008281526002602052604080822080546001600160a01b0319166001600160a01b0387811691821790925591518593918516917f8c5be1e5ebec7d5bd14f71427d1e84f3dd0314c0f7b2291e5b200ac8c7c3b92591a4505050565b6000818152602081905260409020546001600160a01b038481169116146105835760405162461bcd60e51b815260206004820152600a60248201526957524f4e475f46524f4d60b01b60448201526064016104c8565b6001600160a01b0382166105a95760405162461bcd60e51b81526004016104c89061147e565b336001600160a01b03841614806105e357506001600160a01b038316600090815260036020908152604080832033845290915290205460ff165b8061060457506000818152600260205260409020546001600160a01b031633145b6106205760405162461bcd60e51b81526004016104c890611456565b6001600160a01b0380841660008181526001602081815260408084208054600019019055948716808452858420805490930190925585835282815284832080546001600160a01b0319908116841790915560029091528483208054909116905592518493929160008051602061169783398151915291a4505050565b6006546001600160a01b031633146106b357600080fd5b6106bd8282610ba9565b5050565b6106cc83838361052d565b6001600160a01b0382163b15806107755750604051630a85bd0160e11b8082523360048301526001600160a01b03858116602484015260448301849052608060648401526000608484015290919084169063150b7a029060a4016020604051808303816000875af1158015610745573d6000803e3d6000fd5b505050506040513d601f19601f8201168201806040525081019061076991906114a9565b6001600160e01b031916145b6107915760405162461bcd60e51b81526004016104c8906114c6565b505050565b6006546001600160a01b031633146107ad57600080fd5b6107b681610c7d565b50565b6000818152602081905260409020546001600160a01b0316806107ee5760405162461bcd60e51b81526004016104c8906114f0565b919050565b60006001600160a01b03821661083a5760405162461bcd60e51b815260206004820152600c60248201526b5a45524f5f4144445245535360a01b60448201526064016104c8565b506001600160a01b031660009081526001602052604090205490565b336001600160a01b037f0000000000000000000000000000000000000000000000000000000000000000161461088b57600080fd5b600854600160a01b900460ff16156108a257600080fd5b600680546001600160a01b03808a166001600160a01b0319928316179092556007805489841690831617905560088054928816929091169190911790556108eb60048585611040565b506108f860058383611040565b50506008805460ff60a01b1916600160a01b179055505050505050565b600580546103e29061141b565b60065460405163eef1c5f560e01b81526001600160801b038316600482015260009182916001600160a01b039091169063eef1c5f5906024016040805180830381865afa158015610977573d6000803e3d6000fd5b505050506040513d601f19601f8201168201806040525081019061099b9190611514565b9094909350915050565b3360008181526003602090815260408083206001600160a01b03871680855290835292819020805460ff191686151590811790915590519081529192917f17307eab39ab6107e8899845ad3d59bd9653f200f220920489ca2b5937696c31910160405180910390a35050565b610a1c85858561052d565b6001600160a01b0384163b1580610ab35750604051630a85bd0160e11b808252906001600160a01b0386169063150b7a0290610a649033908a90899089908990600401611543565b6020604051808303816000875af1158015610a83573d6000803e3d6000fd5b505050506040513d601f19601f82011682018060405250810190610aa791906114a9565b6001600160e01b031916145b610acf5760405162461bcd60e51b81526004016104c8906114c6565b5050505050565b6000818152602081905260409020546060906001600160a01b0316610afa57600080fd5b6000610b2a6040805180820190915260118152707777772e6d696461737761702e6f72672f60781b602082015290565b90506000815111610b4a5760405180602001604052806000815250610ba2565b6007548190610b61906001600160a01b0316610d1a565b600854610b76906001600160a01b0316610d1a565b610b7f86610d30565b604051602001610b929493929190611597565b6040516020818303038152906040525b9392505050565b6001600160a01b038216610bcf5760405162461bcd60e51b81526004016104c89061147e565b6000818152602081905260409020546001600160a01b031615610c255760405162461bcd60e51b815260206004820152600e60248201526d1053149150511657d3525395115160921b60448201526064016104c8565b6001600160a01b0382166000818152600160208181526040808420805490930190925584835282905280822080546001600160a01b031916841790555183929190600080516020611697833981519152908290a45050565b6000818152602081905260409020546001600160a01b031680610cb25760405162461bcd60e51b81526004016104c8906114f0565b6001600160a01b0381166000818152600160209081526040808320805460001901905585835282825280832080546001600160a01b03199081169091556002909252808320805490921690915551849290600080516020611697833981519152908390a45050565b60606103cf6001600160a01b0383166014610dcd565b60606000610d3d83610f68565b600101905060608167ffffffffffffffff811115610d5d57610d5d611606565b6040519080825280601f01601f191660200182016040528015610d87576020820181803683370190505b5090508181016020015b600019016f181899199a1a9b1b9c1cb0b131b232b360811b600a86061a8153600a8504945084610dc057610dc5565b610d91565b509392505050565b606080610ddb836002611632565b610de6906002611651565b67ffffffffffffffff811115610dfe57610dfe611606565b6040519080825280601f01601f191660200182016040528015610e28576020820181803683370190505b509050600360fc1b81600081518110610e4357610e43611669565b60200101906001600160f81b031916908160001a905350600f60fb1b81600181518110610e7257610e72611669565b60200101906001600160f81b031916908160001a9053506000610e96846002611632565b610ea1906001611651565b90505b6001811115610f19576f181899199a1a9b1b9c1cb0b131b232b360811b85600f1660108110610ed557610ed5611669565b1a60f81b828281518110610eeb57610eeb611669565b60200101906001600160f81b031916908160001a90535060049490941c93610f128161167f565b9050610ea4565b508315610ba25760405162461bcd60e51b815260206004820181905260248201527f537472696e67733a20686578206c656e67746820696e73756666696369656e7460448201526064016104c8565b60008072184f03e93ff9f4daa797ed6e38ed64bf6a1f0160401b8310610fa75772184f03e93ff9f4daa797ed6e38ed64bf6a1f0160401b830492506040015b6d04ee2d6d415b85acef81000000008310610fd3576d04ee2d6d415b85acef8100000000830492506020015b662386f26fc100008310610ff157662386f26fc10000830492506010015b6305f5e1008310611009576305f5e100830492506008015b612710831061101d57612710830492506004015b6064831061102f576064830492506002015b600a83106103cf5760010192915050565b82805461104c9061141b565b90600052602060002090601f01602090048101928261106e57600085556110b4565b82601f106110875782800160ff198235161785556110b4565b828001600101855582156110b4579182015b828111156110b4578235825591602001919060010190611099565b506110c09291506110c4565b5090565b5b808211156110c057600081556001016110c5565b6001600160e01b0319811681146107b657600080fd5b60006020828403121561110157600080fd5b8135610ba2816110d9565b60005b8381101561112757818101518382015260200161110f565b83811115611136576000848401525b50505050565b602081526000825180602084015261115b81604085016020870161110c565b601f01601f19169190910160400192915050565b60006020828403121561118157600080fd5b5035919050565b80356001600160a01b03811681146107ee57600080fd5b600080604083850312156111b257600080fd5b6111bb83611188565b946020939093013593505050565b6000806000606084860312156111de57600080fd5b6111e784611188565b92506111f560208501611188565b9150604084013590509250925092565b60006020828403121561121757600080fd5b610ba282611188565b60008083601f84011261123257600080fd5b50813567ffffffffffffffff81111561124a57600080fd5b60208301915083602082850101111561126257600080fd5b9250929050565b600080600080600080600060a0888a03121561128457600080fd5b61128d88611188565b965061129b60208901611188565b95506112a960408901611188565b9450606088013567ffffffffffffffff808211156112c657600080fd5b6112d28b838c01611220565b909650945060808a01359150808211156112eb57600080fd5b506112f88a828b01611220565b989b979a50959850939692959293505050565b6001600160801b03811681146107b657600080fd5b60006020828403121561133257600080fd5b8135610ba28161130b565b6000806040838503121561135057600080fd5b61135983611188565b91506020830135801515811461136e57600080fd5b809150509250929050565b60008060008060006080868803121561139157600080fd5b61139a86611188565b94506113a860208701611188565b935060408601359250606086013567ffffffffffffffff8111156113cb57600080fd5b6113d788828901611220565b969995985093965092949392505050565b600080604083850312156113fb57600080fd5b61140483611188565b915061141260208401611188565b90509250929050565b600181811c9082168061142f57607f821691505b6020821081141561145057634e487b7160e01b600052602260045260246000fd5b50919050565b6020808252600e908201526d1393d517d055551213d49256915160921b604082015260600190565b6020808252601190820152701253959053125117d49150d25412515395607a1b604082015260600190565b6000602082840312156114bb57600080fd5b8151610ba2816110d9565b60208082526010908201526f155394d0519157d49150d2541251539560821b604082015260600190565b6020808252600a90820152691393d517d3525395115160b21b604082015260600190565b6000806040838503121561152757600080fd5b82516115328161130b565b602084015190925061136e8161130b565b6001600160a01b038681168252851660208201526040810184905260806060820181905281018290526000828460a0840137600060a0848401015260a0601f19601f85011683010190509695505050505050565b600085516115a9818460208a0161110c565b8551908301906115bd818360208a0161110c565b602f60f81b910181815285519091906115dd816001850160208a0161110c565b600192019182015283516115f881600284016020880161110c565b016002019695505050505050565b634e487b7160e01b600052604160045260246000fd5b634e487b7160e01b600052601160045260246000fd5b600081600019048311821515161561164c5761164c61161c565b500290565b600082198211156116645761166461161c565b500190565b634e487b7160e01b600052603260045260246000fd5b60008161168e5761168e61161c565b50600019019056feddf252ad1be2c89b69c2b068fc378daa952ba7f163c4a11628f55a4df523b3efa2646970667358221220ff1d3caeccbc6ac232289188f06c56d5ad692c1bb52bf2a4f2e4913b60a01a1f64736f6c634300080a0033",
					"opcodes": "PUSH1 0xA0 PUSH1 0x40 MSTORE CALLVALUE DUP1 ISZERO PUSH2 0x10 JUMPI PUSH1 0x0 DUP1 REVERT JUMPDEST POP PUSH1 0x40 MLOAD PUSH2 0x178B CODESIZE SUB DUP1 PUSH2 0x178B DUP4 CODECOPY DUP2 ADD PUSH1 0x40 DUP2 SWAP1 MSTORE PUSH2 0x2F SWAP2 PUSH2 0x4D JUMP JUMPDEST PUSH1 0x1 PUSH1 0x1 PUSH1 0xA0 SHL SUB AND PUSH1 0x80 MSTORE PUSH1 0x8 DUP1 SLOAD PUSH1 0xFF PUSH1 0xA0 SHL NOT AND SWAP1 SSTORE PUSH2 0x7D JUMP JUMPDEST PUSH1 0x0 PUSH1 0x20 DUP3 DUP5 SUB SLT ISZERO PUSH2 0x5F JUMPI PUSH1 0x0 DUP1 REVERT JUMPDEST DUP2 MLOAD PUSH1 0x1 PUSH1 0x1 PUSH1 0xA0 SHL SUB DUP2 AND DUP2 EQ PUSH2 0x76 JUMPI PUSH1 0x0 DUP1 REVERT JUMPDEST SWAP4 SWAP3 POP POP POP JUMP JUMPDEST PUSH1 0x80 MLOAD PUSH2 0x16EC PUSH2 0x9F PUSH1 0x0 CODECOPY PUSH1 0x0 DUP2 DUP2 PUSH2 0x320 ADD MSTORE PUSH2 0x861 ADD MSTORE PUSH2 0x16EC PUSH1 0x0 RETURN INVALID PUSH1 0x80 PUSH1 0x40 MSTORE CALLVALUE DUP1 ISZERO PUSH2 0x10 JUMPI PUSH1 0x0 DUP1 REVERT JUMPDEST POP PUSH1 0x4 CALLDATASIZE LT PUSH2 0x142 JUMPI PUSH1 0x0 CALLDATALOAD PUSH1 0xE0 SHR DUP1 PUSH4 0x70A08231 GT PUSH2 0xB8 JUMPI DUP1 PUSH4 0xA8AA1B31 GT PUSH2 0x7C JUMPI DUP1 PUSH4 0xA8AA1B31 EQ PUSH2 0x2E2 JUMPI DUP1 PUSH4 0xB7D19FC4 EQ PUSH2 0x2F5 JUMPI DUP1 PUSH4 0xB88D4FDE EQ PUSH2 0x308 JUMPI DUP1 PUSH4 0xC45A0155 EQ PUSH2 0x31B JUMPI DUP1 PUSH4 0xC87B56DD EQ PUSH2 0x342 JUMPI DUP1 PUSH4 0xE985E9C5 EQ PUSH2 0x355 JUMPI PUSH1 0x0 DUP1 REVERT JUMPDEST DUP1 PUSH4 0x70A08231 EQ PUSH2 0x260 JUMPI DUP1 PUSH4 0x83B43589 EQ PUSH2 0x281 JUMPI DUP1 PUSH4 0x95D89B41 EQ PUSH2 0x294 JUMPI DUP1 PUSH4 0x9ABE9DFB EQ PUSH2 0x29C JUMPI DUP1 PUSH4 0xA22CB465 EQ PUSH2 0x2CF JUMPI PUSH1 0x0 DUP1 REVERT JUMPDEST DUP1 PUSH4 0x16DC165B GT PUSH2 0x10A JUMPI DUP1 PUSH4 0x16DC165B EQ PUSH2 0x1EE JUMPI DUP1 PUSH4 0x23B872DD EQ PUSH2 0x201 JUMPI DUP1 PUSH4 0x40C10F19 EQ PUSH2 0x214 JUMPI DUP1 PUSH4 0x42842E0E EQ PUSH2 0x227 JUMPI DUP1 PUSH4 0x42966C68 EQ PUSH2 0x23A JUMPI DUP1 PUSH4 0x6352211E EQ PUSH2 0x24D JUMPI PUSH1 0x0 DUP1 REVERT JUMPDEST DUP1 PUSH4 0x1FFC9A7 EQ PUSH2 0x147 JUMPI DUP1 PUSH4 0x6FDDE03 EQ PUSH2 0x16F JUMPI DUP1 PUSH4 0x81812FC EQ PUSH2 0x184 JUMPI DUP1 PUSH4 0x95EA7B3 EQ PUSH2 0x1C5 JUMPI DUP1 PUSH4 0x158EF93E EQ PUSH2 0x1DA JUMPI JUMPDEST PUSH1 0x0 DUP1 REVERT JUMPDEST PUSH2 0x15A PUSH2 0x155 CALLDATASIZE PUSH1 0x4 PUSH2 0x10EF JUMP JUMPDEST PUSH2 0x383 JUMP JUMPDEST PUSH1 0x40 MLOAD SWAP1 ISZERO ISZERO DUP2 MSTORE PUSH1 0x20 ADD JUMPDEST PUSH1 0x40 MLOAD DUP1 SWAP2 SUB SWAP1 RETURN JUMPDEST PUSH2 0x177 PUSH2 0x3D5 JUMP JUMPDEST PUSH1 0x40 MLOAD PUSH2 0x166 SWAP2 SWAP1 PUSH2 0x113C JUMP JUMPDEST PUSH2 0x1AD PUSH2 0x192 CALLDATASIZE PUSH1 0x4 PUSH2 0x116F JUMP JUMPDEST PUSH1 0x2 PUSH1 0x20 MSTORE PUSH1 0x0 SWAP1 DUP2 MSTORE PUSH1 0x40 SWAP1 KECCAK256 SLOAD PUSH1 0x1 PUSH1 0x1 PUSH1 0xA0 SHL SUB AND DUP2 JUMP JUMPDEST PUSH1 0x40 MLOAD PUSH1 0x1 PUSH1 0x1 PUSH1 0xA0 SHL SUB SWAP1 SWAP2 AND DUP2 MSTORE PUSH1 0x20 ADD PUSH2 0x166 JUMP JUMPDEST PUSH2 0x1D8 PUSH2 0x1D3 CALLDATASIZE PUSH1 0x4 PUSH2 0x119F JUMP JUMPDEST PUSH2 0x463 JUMP JUMPDEST STOP JUMPDEST PUSH1 0x8 SLOAD PUSH2 0x15A SWAP1 PUSH1 0x1 PUSH1 0xA0 SHL SWAP1 DIV PUSH1 0xFF AND DUP2 JUMP JUMPDEST PUSH1 0x7 SLOAD PUSH2 0x1AD SWAP1 PUSH1 0x1 PUSH1 0x1 PUSH1 0xA0 SHL SUB AND DUP2 JUMP JUMPDEST PUSH2 0x1D8 PUSH2 0x20F CALLDATASIZE PUSH1 0x4 PUSH2 0x11C9 JUMP JUMPDEST PUSH2 0x52D JUMP JUMPDEST PUSH2 0x1D8 PUSH2 0x222 CALLDATASIZE PUSH1 0x4 PUSH2 0x119F JUMP JUMPDEST PUSH2 0x69C JUMP JUMPDEST PUSH2 0x1D8 PUSH2 0x235 CALLDATASIZE PUSH1 0x4 PUSH2 0x11C9 JUMP JUMPDEST PUSH2 0x6C1 JUMP JUMPDEST PUSH2 0x1D8 PUSH2 0x248 CALLDATASIZE PUSH1 0x4 PUSH2 0x116F JUMP JUMPDEST PUSH2 0x796 JUMP JUMPDEST PUSH2 0x1AD PUSH2 0x25B CALLDATASIZE PUSH1 0x4 PUSH2 0x116F JUMP JUMPDEST PUSH2 0x7B9 JUMP JUMPDEST PUSH2 0x273 PUSH2 0x26E CALLDATASIZE PUSH1 0x4 PUSH2 0x1205 JUMP JUMPDEST PUSH2 0x7F3 JUMP JUMPDEST PUSH1 0x40 MLOAD SWAP1 DUP2 MSTORE PUSH1 0x20 ADD PUSH2 0x166 JUMP JUMPDEST PUSH2 0x1D8 PUSH2 0x28F CALLDATASIZE PUSH1 0x4 PUSH2 0x1269 JUMP JUMPDEST PUSH2 0x856 JUMP JUMPDEST PUSH2 0x177 PUSH2 0x915 JUMP JUMPDEST PUSH2 0x2AF PUSH2 0x2AA CALLDATASIZE PUSH1 0x4 PUSH2 0x1320 JUMP JUMPDEST PUSH2 0x922 JUMP JUMPDEST PUSH1 0x40 DUP1 MLOAD PUSH1 0x1 PUSH1 0x1 PUSH1 0x80 SHL SUB SWAP4 DUP5 AND DUP2 MSTORE SWAP3 SWAP1 SWAP2 AND PUSH1 0x20 DUP4 ADD MSTORE ADD PUSH2 0x166 JUMP JUMPDEST PUSH2 0x1D8 PUSH2 0x2DD CALLDATASIZE PUSH1 0x4 PUSH2 0x133D JUMP JUMPDEST PUSH2 0x9A5 JUMP JUMPDEST PUSH1 0x6 SLOAD PUSH2 0x1AD SWAP1 PUSH1 0x1 PUSH1 0x1 PUSH1 0xA0 SHL SUB AND DUP2 JUMP JUMPDEST PUSH1 0x8 SLOAD PUSH2 0x1AD SWAP1 PUSH1 0x1 PUSH1 0x1 PUSH1 0xA0 SHL SUB AND DUP2 JUMP JUMPDEST PUSH2 0x1D8 PUSH2 0x316 CALLDATASIZE PUSH1 0x4 PUSH2 0x1379 JUMP JUMPDEST PUSH2 0xA11 JUMP JUMPDEST PUSH2 0x1AD PUSH32 0x0 DUP2 JUMP JUMPDEST PUSH2 0x177 PUSH2 0x350 CALLDATASIZE PUSH1 0x4 PUSH2 0x116F JUMP JUMPDEST PUSH2 0xAD6 JUMP JUMPDEST PUSH2 0x15A PUSH2 0x363 CALLDATASIZE PUSH1 0x4 PUSH2 0x13E8 JUMP JUMPDEST PUSH1 0x3 PUSH1 0x20 SWAP1 DUP2 MSTORE PUSH1 0x0 SWAP3 DUP4 MSTORE PUSH1 0x40 DUP1 DUP5 KECCAK256 SWAP1 SWAP2 MSTORE SWAP1 DUP3 MSTORE SWAP1 KECCAK256 SLOAD PUSH1 0xFF AND DUP2 JUMP JUMPDEST PUSH1 0x0 PUSH4 0x1FFC9A7 PUSH1 0xE0 SHL PUSH1 0x1 PUSH1 0x1 PUSH1 0xE0 SHL SUB NOT DUP4 AND EQ DUP1 PUSH2 0x3B4 JUMPI POP PUSH4 0x80AC58CD PUSH1 0xE0 SHL PUSH1 0x1 PUSH1 0x1 PUSH1 0xE0 SHL SUB NOT DUP4 AND EQ JUMPDEST DUP1 PUSH2 0x3CF JUMPI POP PUSH4 0x5B5E139F PUSH1 0xE0 SHL PUSH1 0x1 PUSH1 0x1 PUSH1 0xE0 SHL SUB NOT DUP4 AND EQ JUMPDEST SWAP3 SWAP2 POP POP JUMP JUMPDEST PUSH1 0x4 DUP1 SLOAD PUSH2 0x3E2 SWAP1 PUSH2 0x141B JUMP JUMPDEST DUP1 PUSH1 0x1F ADD PUSH1 0x20 DUP1 SWAP2 DIV MUL PUSH1 0x20 ADD PUSH1 0x40 MLOAD SWAP1 DUP2 ADD PUSH1 0x40 MSTORE DUP1 SWAP3 SWAP2 SWAP1 DUP2 DUP2 MSTORE PUSH1 0x20 ADD DUP3 DUP1 SLOAD PUSH2 0x40E SWAP1 PUSH2 0x141B JUMP JUMPDEST DUP1 ISZERO PUSH2 0x45B JUMPI DUP1 PUSH1 0x1F LT PUSH2 0x430 JUMPI PUSH2 0x100 DUP1 DUP4 SLOAD DIV MUL DUP4 MSTORE SWAP2 PUSH1 0x20 ADD SWAP2 PUSH2 0x45B JUMP JUMPDEST DUP3 ADD SWAP2 SWAP1 PUSH1 0x0 MSTORE PUSH1 0x20 PUSH1 0x0 KECCAK256 SWAP1 JUMPDEST DUP2 SLOAD DUP2 MSTORE SWAP1 PUSH1 0x1 ADD SWAP1 PUSH1 0x20 ADD DUP1 DUP4 GT PUSH2 0x43E JUMPI DUP3 SWAP1 SUB PUSH1 0x1F AND DUP3 ADD SWAP2 JUMPDEST POP POP POP POP POP DUP2 JUMP JUMPDEST PUSH1 0x0 DUP2 DUP2 MSTORE PUSH1 0x20 DUP2 SWAP1 MSTORE PUSH1 0x40 SWAP1 KECCAK256 SLOAD PUSH1 0x1 PUSH1 0x1 PUSH1 0xA0 SHL SUB AND CALLER DUP2 EQ DUP1 PUSH2 0x4AC JUMPI POP PUSH1 0x1 PUSH1 0x1 PUSH1 0xA0 SHL SUB DUP2 AND PUSH1 0x0 SWAP1 DUP2 MSTORE PUSH1 0x3 PUSH1 0x20 SWAP1 DUP2 MSTORE PUSH1 0x40 DUP1 DUP4 KECCAK256 CALLER DUP5 MSTORE SWAP1 SWAP2 MSTORE SWAP1 KECCAK256 SLOAD PUSH1 0xFF AND JUMPDEST PUSH2 0x4D1 JUMPI PUSH1 0x40 MLOAD PUSH3 0x461BCD PUSH1 0xE5 SHL DUP2 MSTORE PUSH1 0x4 ADD PUSH2 0x4C8 SWAP1 PUSH2 0x1456 JUMP JUMPDEST PUSH1 0x40 MLOAD DUP1 SWAP2 SUB SWAP1 REVERT JUMPDEST PUSH1 0x0 DUP3 DUP2 MSTORE PUSH1 0x2 PUSH1 0x20 MSTORE PUSH1 0x40 DUP1 DUP3 KECCAK256 DUP1 SLOAD PUSH1 0x1 PUSH1 0x1 PUSH1 0xA0 SHL SUB NOT AND PUSH1 0x1 PUSH1 0x1 PUSH1 0xA0 SHL SUB DUP8 DUP2 AND SWAP2 DUP3 OR SWAP1 SWAP3 SSTORE SWAP2 MLOAD DUP6 SWAP4 SWAP2 DUP6 AND SWAP2 PUSH32 0x8C5BE1E5EBEC7D5BD14F71427D1E84F3DD0314C0F7B2291E5B200AC8C7C3B925 SWAP2 LOG4 POP POP POP JUMP JUMPDEST PUSH1 0x0 DUP2 DUP2 MSTORE PUSH1 0x20 DUP2 SWAP1 MSTORE PUSH1 0x40 SWAP1 KECCAK256 SLOAD PUSH1 0x1 PUSH1 0x1 PUSH1 0xA0 SHL SUB DUP5 DUP2 AND SWAP2 AND EQ PUSH2 0x583 JUMPI PUSH1 0x40 MLOAD PUSH3 0x461BCD PUSH1 0xE5 SHL DUP2 MSTORE PUSH1 0x20 PUSH1 0x4 DUP3 ADD MSTORE PUSH1 0xA PUSH1 0x24 DUP3 ADD MSTORE PUSH10 0x57524F4E475F46524F4D PUSH1 0xB0 SHL PUSH1 0x44 DUP3 ADD MSTORE PUSH1 0x64 ADD PUSH2 0x4C8 JUMP JUMPDEST PUSH1 0x1 PUSH1 0x1 PUSH1 0xA0 SHL SUB DUP3 AND PUSH2 0x5A9 JUMPI PUSH1 0x40 MLOAD PUSH3 0x461BCD PUSH1 0xE5 SHL DUP2 MSTORE PUSH1 0x4 ADD PUSH2 0x4C8 SWAP1 PUSH2 0x147E JUMP JUMPDEST CALLER PUSH1 0x1 PUSH1 0x1 PUSH1 0xA0 SHL SUB DUP5 AND EQ DUP1 PUSH2 0x5E3 JUMPI POP PUSH1 0x1 PUSH1 0x1 PUSH1 0xA0 SHL SUB DUP4 AND PUSH1 0x0 SWAP1 DUP2 MSTORE PUSH1 0x3 PUSH1 0x20 SWAP1 DUP2 MSTORE PUSH1 0x40 DUP1 DUP4 KECCAK256 CALLER DUP5 MSTORE SWAP1 SWAP2 MSTORE SWAP1 KECCAK256 SLOAD PUSH1 0xFF AND JUMPDEST DUP1 PUSH2 0x604 JUMPI POP PUSH1 0x0 DUP2 DUP2 MSTORE PUSH1 0x2 PUSH1 0x20 MSTORE PUSH1 0x40 SWAP1 KECCAK256 SLOAD PUSH1 0x1 PUSH1 0x1 PUSH1 0xA0 SHL SUB AND CALLER EQ JUMPDEST PUSH2 0x620 JUMPI PUSH1 0x40 MLOAD PUSH3 0x461BCD PUSH1 0xE5 SHL DUP2 MSTORE PUSH1 0x4 ADD PUSH2 0x4C8 SWAP1 PUSH2 0x1456 JUMP JUMPDEST PUSH1 0x1 PUSH1 0x1 PUSH1 0xA0 SHL SUB DUP1 DUP5 AND PUSH1 0x0 DUP2 DUP2 MSTORE PUSH1 0x1 PUSH1 0x20 DUP2 DUP2 MSTORE PUSH1 0x40 DUP1 DUP5 KECCAK256 DUP1 SLOAD PUSH1 0x0 NOT ADD SWAP1 SSTORE SWAP5 DUP8 AND DUP1 DUP5 MSTORE DUP6 DUP5 KECCAK256 DUP1 SLOAD SWAP1 SWAP4 ADD SWAP1 SWAP3 SSTORE DUP6 DUP4 MSTORE DUP3 DUP2 MSTORE DUP5 DUP4 KECCAK256 DUP1 SLOAD PUSH1 0x1 PUSH1 0x1 PUSH1 0xA0 SHL SUB NOT SWAP1 DUP2 AND DUP5 OR SWAP1 SWAP2 SSTORE PUSH1 0x2 SWAP1 SWAP2 MSTORE DUP5 DUP4 KECCAK256 DUP1 SLOAD SWAP1 SWAP2 AND SWAP1 SSTORE SWAP3 MLOAD DUP5 SWAP4 SWAP3 SWAP2 PUSH1 0x0 DUP1 MLOAD PUSH1 0x20 PUSH2 0x1697 DUP4 CODECOPY DUP2 MLOAD SWAP2 MSTORE SWAP2 LOG4 POP POP POP JUMP JUMPDEST PUSH1 0x6 SLOAD PUSH1 0x1 PUSH1 0x1 PUSH1 0xA0 SHL SUB AND CALLER EQ PUSH2 0x6B3 JUMPI PUSH1 0x0 DUP1 REVERT JUMPDEST PUSH2 0x6BD DUP3 DUP3 PUSH2 0xBA9 JUMP JUMPDEST POP POP JUMP JUMPDEST PUSH2 0x6CC DUP4 DUP4 DUP4 PUSH2 0x52D JUMP JUMPDEST PUSH1 0x1 PUSH1 0x1 PUSH1 0xA0 SHL SUB DUP3 AND EXTCODESIZE ISZERO DUP1 PUSH2 0x775 JUMPI POP PUSH1 0x40 MLOAD PUSH4 0xA85BD01 PUSH1 0xE1 SHL DUP1 DUP3 MSTORE CALLER PUSH1 0x4 DUP4 ADD MSTORE PUSH1 0x1 PUSH1 0x1 PUSH1 0xA0 SHL SUB DUP6 DUP2 AND PUSH1 0x24 DUP5 ADD MSTORE PUSH1 0x44 DUP4 ADD DUP5 SWAP1 MSTORE PUSH1 0x80 PUSH1 0x64 DUP5 ADD MSTORE PUSH1 0x0 PUSH1 0x84 DUP5 ADD MSTORE SWAP1 SWAP2 SWAP1 DUP5 AND SWAP1 PUSH4 0x150B7A02 SWAP1 PUSH1 0xA4 ADD PUSH1 0x20 PUSH1 0x40 MLOAD DUP1 DUP4 SUB DUP2 PUSH1 0x0 DUP8 GAS CALL ISZERO DUP1 ISZERO PUSH2 0x745 JUMPI RETURNDATASIZE PUSH1 0x0 DUP1 RETURNDATACOPY RETURNDATASIZE PUSH1 0x0 REVERT JUMPDEST POP POP POP POP PUSH1 0x40 MLOAD RETURNDATASIZE PUSH1 0x1F NOT PUSH1 0x1F DUP3 ADD AND DUP3 ADD DUP1 PUSH1 0x40 MSTORE POP DUP2 ADD SWAP1 PUSH2 0x769 SWAP2 SWAP1 PUSH2 0x14A9 JUMP JUMPDEST PUSH1 0x1 PUSH1 0x1 PUSH1 0xE0 SHL SUB NOT AND EQ JUMPDEST PUSH2 0x791 JUMPI PUSH1 0x40 MLOAD PUSH3 0x461BCD PUSH1 0xE5 SHL DUP2 MSTORE PUSH1 0x4 ADD PUSH2 0x4C8 SWAP1 PUSH2 0x14C6 JUMP JUMPDEST POP POP POP JUMP JUMPDEST PUSH1 0x6 SLOAD PUSH1 0x1 PUSH1 0x1 PUSH1 0xA0 SHL SUB AND CALLER EQ PUSH2 0x7AD JUMPI PUSH1 0x0 DUP1 REVERT JUMPDEST PUSH2 0x7B6 DUP2 PUSH2 0xC7D JUMP JUMPDEST POP JUMP JUMPDEST PUSH1 0x0 DUP2 DUP2 MSTORE PUSH1 0x20 DUP2 SWAP1 MSTORE PUSH1 0x40 SWAP1 KECCAK256 SLOAD PUSH1 0x1 PUSH1 0x1 PUSH1 0xA0 SHL SUB AND DUP1 PUSH2 0x7EE JUMPI PUSH1 0x40 MLOAD PUSH3 0x461BCD PUSH1 0xE5 SHL DUP2 MSTORE PUSH1 0x4 ADD PUSH2 0x4C8 SWAP1 PUSH2 0x14F0 JUMP JUMPDEST SWAP2 SWAP1 POP JUMP JUMPDEST PUSH1 0x0 PUSH1 0x1 PUSH1 0x1 PUSH1 0xA0 SHL SUB DUP3 AND PUSH2 0x83A JUMPI PUSH1 0x40 MLOAD PUSH3 0x461BCD PUSH1 0xE5 SHL DUP2 MSTORE PUSH1 0x20 PUSH1 0x4 DUP3 ADD MSTORE PUSH1 0xC PUSH1 0x24 DUP3 ADD MSTORE PUSH12 0x5A45524F5F41444452455353 PUSH1 0xA0 SHL PUSH1 0x44 DUP3 ADD MSTORE PUSH1 0x64 ADD PUSH2 0x4C8 JUMP JUMPDEST POP PUSH1 0x1 PUSH1 0x1 PUSH1 0xA0 SHL SUB AND PUSH1 0x0 SWAP1 DUP2 MSTORE PUSH1 0x1 PUSH1 0x20 MSTORE PUSH1 0x40 SWAP1 KECCAK256 SLOAD SWAP1 JUMP JUMPDEST CALLER PUSH1 0x1 PUSH1 0x1 PUSH1 0xA0 SHL SUB PUSH32 0x0 AND EQ PUSH2 0x88B JUMPI PUSH1 0x0 DUP1 REVERT JUMPDEST PUSH1 0x8 SLOAD PUSH1 0x1 PUSH1 0xA0 SHL SWAP1 DIV PUSH1 0xFF AND ISZERO PUSH2 0x8A2 JUMPI PUSH1 0x0 DUP1 REVERT JUMPDEST PUSH1 0x6 DUP1 SLOAD PUSH1 0x1 PUSH1 0x1 PUSH1 0xA0 SHL SUB DUP1 DUP11 AND PUSH1 0x1 PUSH1 0x1 PUSH1 0xA0 SHL SUB NOT SWAP3 DUP4 AND OR SWAP1 SWAP3 SSTORE PUSH1 0x7 DUP1 SLOAD DUP10 DUP5 AND SWAP1 DUP4 AND OR SWAP1 SSTORE PUSH1 0x8 DUP1 SLOAD SWAP3 DUP9 AND SWAP3 SWAP1 SWAP2 AND SWAP2 SWAP1 SWAP2 OR SWAP1 SSTORE PUSH2 0x8EB PUSH1 0x4 DUP6 DUP6 PUSH2 0x1040 JUMP JUMPDEST POP PUSH2 0x8F8 PUSH1 0x5 DUP4 DUP4 PUSH2 0x1040 JUMP JUMPDEST POP POP PUSH1 0x8 DUP1 SLOAD PUSH1 0xFF PUSH1 0xA0 SHL NOT AND PUSH1 0x1 PUSH1 0xA0 SHL OR SWAP1 SSTORE POP POP POP POP POP POP JUMP JUMPDEST PUSH1 0x5 DUP1 SLOAD PUSH2 0x3E2 SWAP1 PUSH2 0x141B JUMP JUMPDEST PUSH1 0x6 SLOAD PUSH1 0x40 MLOAD PUSH4 0xEEF1C5F5 PUSH1 0xE0 SHL DUP2 MSTORE PUSH1 0x1 PUSH1 0x1 PUSH1 0x80 SHL SUB DUP4 AND PUSH1 0x4 DUP3 ADD MSTORE PUSH1 0x0 SWAP2 DUP3 SWAP2 PUSH1 0x1 PUSH1 0x1 PUSH1 0xA0 SHL SUB SWAP1 SWAP2 AND SWAP1 PUSH4 0xEEF1C5F5 SWAP1 PUSH1 0x24 ADD PUSH1 0x40 DUP1 MLOAD DUP1 DUP4 SUB DUP2 DUP7 GAS STATICCALL ISZERO DUP1 ISZERO PUSH2 0x977 JUMPI RETURNDATASIZE PUSH1 0x0 DUP1 RETURNDATACOPY RETURNDATASIZE PUSH1 0x0 REVERT JUMPDEST POP POP POP POP PUSH1 0x40 MLOAD RETURNDATASIZE PUSH1 0x1F NOT PUSH1 0x1F DUP3 ADD AND DUP3 ADD DUP1 PUSH1 0x40 MSTORE POP DUP2 ADD SWAP1 PUSH2 0x99B SWAP2 SWAP1 PUSH2 0x1514 JUMP JUMPDEST SWAP1 SWAP5 SWAP1 SWAP4 POP SWAP2 POP POP JUMP JUMPDEST CALLER PUSH1 0x0 DUP2 DUP2 MSTORE PUSH1 0x3 PUSH1 0x20 SWAP1 DUP2 MSTORE PUSH1 0x40 DUP1 DUP4 KECCAK256 PUSH1 0x1 PUSH1 0x1 PUSH1 0xA0 SHL SUB DUP8 AND DUP1 DUP6 MSTORE SWAP1 DUP4 MSTORE SWAP3 DUP2 SWAP1 KECCAK256 DUP1 SLOAD PUSH1 0xFF NOT AND DUP7 ISZERO ISZERO SWAP1 DUP2 OR SWAP1 SWAP2 SSTORE SWAP1 MLOAD SWAP1 DUP2 MSTORE SWAP2 SWAP3 SWAP2 PUSH32 0x17307EAB39AB6107E8899845AD3D59BD9653F200F220920489CA2B5937696C31 SWAP2 ADD PUSH1 0x40 MLOAD DUP1 SWAP2 SUB SWAP1 LOG3 POP POP JUMP JUMPDEST PUSH2 0xA1C DUP6 DUP6 DUP6 PUSH2 0x52D JUMP JUMPDEST PUSH1 0x1 PUSH1 0x1 PUSH1 0xA0 SHL SUB DUP5 AND EXTCODESIZE ISZERO DUP1 PUSH2 0xAB3 JUMPI POP PUSH1 0x40 MLOAD PUSH4 0xA85BD01 PUSH1 0xE1 SHL DUP1 DUP3 MSTORE SWAP1 PUSH1 0x1 PUSH1 0x1 PUSH1 0xA0 SHL SUB DUP7 AND SWAP1 PUSH4 0x150B7A02 SWAP1 PUSH2 0xA64 SWAP1 CALLER SWAP1 DUP11 SWAP1 DUP10 SWAP1 DUP10 SWAP1 DUP10 SWAP1 PUSH1 0x4 ADD PUSH2 0x1543 JUMP JUMPDEST PUSH1 0x20 PUSH1 0x40 MLOAD DUP1 DUP4 SUB DUP2 PUSH1 0x0 DUP8 GAS CALL ISZERO DUP1 ISZERO PUSH2 0xA83 JUMPI RETURNDATASIZE PUSH1 0x0 DUP1 RETURNDATACOPY RETURNDATASIZE PUSH1 0x0 REVERT JUMPDEST POP POP POP POP PUSH1 0x40 MLOAD RETURNDATASIZE PUSH1 0x1F NOT PUSH1 0x1F DUP3 ADD AND DUP3 ADD DUP1 PUSH1 0x40 MSTORE POP DUP2 ADD SWAP1 PUSH2 0xAA7 SWAP2 SWAP1 PUSH2 0x14A9 JUMP JUMPDEST PUSH1 0x1 PUSH1 0x1 PUSH1 0xE0 SHL SUB NOT AND EQ JUMPDEST PUSH2 0xACF JUMPI PUSH1 0x40 MLOAD PUSH3 0x461BCD PUSH1 0xE5 SHL DUP2 MSTORE PUSH1 0x4 ADD PUSH2 0x4C8 SWAP1 PUSH2 0x14C6 JUMP JUMPDEST POP POP POP POP POP JUMP JUMPDEST PUSH1 0x0 DUP2 DUP2 MSTORE PUSH1 0x20 DUP2 SWAP1 MSTORE PUSH1 0x40 SWAP1 KECCAK256 SLOAD PUSH1 0x60 SWAP1 PUSH1 0x1 PUSH1 0x1 PUSH1 0xA0 SHL SUB AND PUSH2 0xAFA JUMPI PUSH1 0x0 DUP1 REVERT JUMPDEST PUSH1 0x0 PUSH2 0xB2A PUSH1 0x40 DUP1 MLOAD DUP1 DUP3 ADD SWAP1 SWAP2 MSTORE PUSH1 0x11 DUP2 MSTORE PUSH17 0x7777772E6D696461737761702E6F72672F PUSH1 0x78 SHL PUSH1 0x20 DUP3 ADD MSTORE SWAP1 JUMP JUMPDEST SWAP1 POP PUSH1 0x0 DUP2 MLOAD GT PUSH2 0xB4A JUMPI PUSH1 0x40 MLOAD DUP1 PUSH1 0x20 ADD PUSH1 0x40 MSTORE DUP1 PUSH1 0x0 DUP2 MSTORE POP PUSH2 0xBA2 JUMP JUMPDEST PUSH1 0x7 SLOAD DUP2 SWAP1 PUSH2 0xB61 SWAP1 PUSH1 0x1 PUSH1 0x1 PUSH1 0xA0 SHL SUB AND PUSH2 0xD1A JUMP JUMPDEST PUSH1 0x8 SLOAD PUSH2 0xB76 SWAP1 PUSH1 0x1 PUSH1 0x1 PUSH1 0xA0 SHL SUB AND PUSH2 0xD1A JUMP JUMPDEST PUSH2 0xB7F DUP7 PUSH2 0xD30 JUMP JUMPDEST PUSH1 0x40 MLOAD PUSH1 0x20 ADD PUSH2 0xB92 SWAP5 SWAP4 SWAP3 SWAP2 SWAP1 PUSH2 0x1597 JUMP JUMPDEST PUSH1 0x40 MLOAD PUSH1 0x20 DUP2 DUP4 SUB SUB DUP2 MSTORE SWAP1 PUSH1 0x40 MSTORE JUMPDEST SWAP4 SWAP3 POP POP POP JUMP JUMPDEST PUSH1 0x1 PUSH1 0x1 PUSH1 0xA0 SHL SUB DUP3 AND PUSH2 0xBCF JUMPI PUSH1 0x40 MLOAD PUSH3 0x461BCD PUSH1 0xE5 SHL DUP2 MSTORE PUSH1 0x4 ADD PUSH2 0x4C8 SWAP1 PUSH2 0x147E JUMP JUMPDEST PUSH1 0x0 DUP2 DUP2 MSTORE PUSH1 0x20 DUP2 SWAP1 MSTORE PUSH1 0x40 SWAP1 KECCAK256 SLOAD PUSH1 0x1 PUSH1 0x1 PUSH1 0xA0 SHL SUB AND ISZERO PUSH2 0xC25 JUMPI PUSH1 0x40 MLOAD PUSH3 0x461BCD PUSH1 0xE5 SHL DUP2 MSTORE PUSH1 0x20 PUSH1 0x4 DUP3 ADD MSTORE PUSH1 0xE PUSH1 0x24 DUP3 ADD MSTORE PUSH14 0x1053149150511657D35253951151 PUSH1 0x92 SHL PUSH1 0x44 DUP3 ADD MSTORE PUSH1 0x64 ADD PUSH2 0x4C8 JUMP JUMPDEST PUSH1 0x1 PUSH1 0x1 PUSH1 0xA0 SHL SUB DUP3 AND PUSH1 0x0 DUP2 DUP2 MSTORE PUSH1 0x1 PUSH1 0x20 DUP2 DUP2 MSTORE PUSH1 0x40 DUP1 DUP5 KECCAK256 DUP1 SLOAD SWAP1 SWAP4 ADD SWAP1 SWAP3 SSTORE DUP5 DUP4 MSTORE DUP3 SWAP1 MSTORE DUP1 DUP3 KECCAK256 DUP1 SLOAD PUSH1 0x1 PUSH1 0x1 PUSH1 0xA0 SHL SUB NOT AND DUP5 OR SWAP1 SSTORE MLOAD DUP4 SWAP3 SWAP2 SWAP1 PUSH1 0x0 DUP1 MLOAD PUSH1 0x20 PUSH2 0x1697 DUP4 CODECOPY DUP2 MLOAD SWAP2 MSTORE SWAP1 DUP3 SWAP1 LOG4 POP POP JUMP JUMPDEST PUSH1 0x0 DUP2 DUP2 MSTORE PUSH1 0x20 DUP2 SWAP1 MSTORE PUSH1 0x40 SWAP1 KECCAK256 SLOAD PUSH1 0x1 PUSH1 0x1 PUSH1 0xA0 SHL SUB AND DUP1 PUSH2 0xCB2 JUMPI PUSH1 0x40 MLOAD PUSH3 0x461BCD PUSH1 0xE5 SHL DUP2 MSTORE PUSH1 0x4 ADD PUSH2 0x4C8 SWAP1 PUSH2 0x14F0 JUMP JUMPDEST PUSH1 0x1 PUSH1 0x1 PUSH1 0xA0 SHL SUB DUP2 AND PUSH1 0x0 DUP2 DUP2 MSTORE PUSH1 0x1 PUSH1 0x20 SWAP1 DUP2 MSTORE PUSH1 0x40 DUP1 DUP4 KECCAK256 DUP1 SLOAD PUSH1 0x0 NOT ADD SWAP1 SSTORE DUP6 DUP4 MSTORE DUP3 DUP3 MSTORE DUP1 DUP4 KECCAK256 DUP1 SLOAD PUSH1 0x1 PUSH1 0x1 PUSH1 0xA0 SHL SUB NOT SWAP1 DUP2 AND SWAP1 SWAP2 SSTORE PUSH1 0x2 SWAP1 SWAP3 MSTORE DUP1 DUP4 KECCAK256 DUP1 SLOAD SWAP1 SWAP3 AND SWAP1 SWAP2 SSTORE MLOAD DUP5 SWAP3 SWAP1 PUSH1 0x0 DUP1 MLOAD PUSH1 0x20 PUSH2 0x1697 DUP4 CODECOPY DUP2 MLOAD SWAP2 MSTORE SWAP1 DUP4 SWAP1 LOG4 POP POP JUMP JUMPDEST PUSH1 0x60 PUSH2 0x3CF PUSH1 0x1 PUSH1 0x1 PUSH1 0xA0 SHL SUB DUP4 AND PUSH1 0x14 PUSH2 0xDCD JUMP JUMPDEST PUSH1 0x60 PUSH1 0x0 PUSH2 0xD3D DUP4 PUSH2 0xF68 JUMP JUMPDEST PUSH1 0x1 ADD SWAP1 POP PUSH1 0x60 DUP2 PUSH8 0xFFFFFFFFFFFFFFFF DUP2 GT ISZERO PUSH2 0xD5D JUMPI PUSH2 0xD5D PUSH2 0x1606 JUMP JUMPDEST PUSH1 0x40 MLOAD SWAP1 DUP1 DUP3 MSTORE DUP1 PUSH1 0x1F ADD PUSH1 0x1F NOT AND PUSH1 0x20 ADD DUP3 ADD PUSH1 0x40 MSTORE DUP1 ISZERO PUSH2 0xD87 JUMPI PUSH1 0x20 DUP3 ADD DUP2 DUP1 CALLDATASIZE DUP4 CALLDATACOPY ADD SWAP1 POP JUMPDEST POP SWAP1 POP DUP2 DUP2 ADD PUSH1 0x20 ADD JUMPDEST PUSH1 0x0 NOT ADD PUSH16 0x181899199A1A9B1B9C1CB0B131B232B3 PUSH1 0x81 SHL PUSH1 0xA DUP7 MOD BYTE DUP2 MSTORE8 PUSH1 0xA DUP6 DIV SWAP5 POP DUP5 PUSH2 0xDC0 JUMPI PUSH2 0xDC5 JUMP JUMPDEST PUSH2 0xD91 JUMP JUMPDEST POP SWAP4 SWAP3 POP POP POP JUMP JUMPDEST PUSH1 0x60 DUP1 PUSH2 0xDDB DUP4 PUSH1 0x2 PUSH2 0x1632 JUMP JUMPDEST PUSH2 0xDE6 SWAP1 PUSH1 0x2 PUSH2 0x1651 JUMP JUMPDEST PUSH8 0xFFFFFFFFFFFFFFFF DUP2 GT ISZERO PUSH2 0xDFE JUMPI PUSH2 0xDFE PUSH2 0x1606 JUMP JUMPDEST PUSH1 0x40 MLOAD SWAP1 DUP1 DUP3 MSTORE DUP1 PUSH1 0x1F ADD PUSH1 0x1F NOT AND PUSH1 0x20 ADD DUP3 ADD PUSH1 0x40 MSTORE DUP1 ISZERO PUSH2 0xE28 JUMPI PUSH1 0x20 DUP3 ADD DUP2 DUP1 CALLDATASIZE DUP4 CALLDATACOPY ADD SWAP1 POP JUMPDEST POP SWAP1 POP PUSH1 0x3 PUSH1 0xFC SHL DUP2 PUSH1 0x0 DUP2 MLOAD DUP2 LT PUSH2 0xE43 JUMPI PUSH2 0xE43 PUSH2 0x1669 JUMP JUMPDEST PUSH1 0x20 ADD ADD SWAP1 PUSH1 0x1 PUSH1 0x1 PUSH1 0xF8 SHL SUB NOT AND SWAP1 DUP2 PUSH1 0x0 BYTE SWAP1 MSTORE8 POP PUSH1 0xF PUSH1 0xFB SHL DUP2 PUSH1 0x1 DUP2 MLOAD DUP2 LT PUSH2 0xE72 JUMPI PUSH2 0xE72 PUSH2 0x1669 JUMP JUMPDEST PUSH1 0x20 ADD ADD SWAP1 PUSH1 0x1 PUSH1 0x1 PUSH1 0xF8 SHL SUB NOT AND SWAP1 DUP2 PUSH1 0x0 BYTE SWAP1 MSTORE8 POP PUSH1 0x0 PUSH2 0xE96 DUP5 PUSH1 0x2 PUSH2 0x1632 JUMP JUMPDEST PUSH2 0xEA1 SWAP1 PUSH1 0x1 PUSH2 0x1651 JUMP JUMPDEST SWAP1 POP JUMPDEST PUSH1 0x1 DUP2 GT ISZERO PUSH2 0xF19 JUMPI PUSH16 0x181899199A1A9B1B9C1CB0B131B232B3 PUSH1 0x81 SHL DUP6 PUSH1 0xF AND PUSH1 0x10 DUP2 LT PUSH2 0xED5 JUMPI PUSH2 0xED5 PUSH2 0x1669 JUMP JUMPDEST BYTE PUSH1 0xF8 SHL DUP3 DUP3 DUP2 MLOAD DUP2 LT PUSH2 0xEEB JUMPI PUSH2 0xEEB PUSH2 0x1669 JUMP JUMPDEST PUSH1 0x20 ADD ADD SWAP1 PUSH1 0x1 PUSH1 0x1 PUSH1 0xF8 SHL SUB NOT AND SWAP1 DUP2 PUSH1 0x0 BYTE SWAP1 MSTORE8 POP PUSH1 0x4 SWAP5 SWAP1 SWAP5 SHR SWAP4 PUSH2 0xF12 DUP2 PUSH2 0x167F JUMP JUMPDEST SWAP1 POP PUSH2 0xEA4 JUMP JUMPDEST POP DUP4 ISZERO PUSH2 0xBA2 JUMPI PUSH1 0x40 MLOAD PUSH3 0x461BCD PUSH1 0xE5 SHL DUP2 MSTORE PUSH1 0x20 PUSH1 0x4 DUP3 ADD DUP2 SWAP1 MSTORE PUSH1 0x24 DUP3 ADD MSTORE PUSH32 0x537472696E67733A20686578206C656E67746820696E73756666696369656E74 PUSH1 0x44 DUP3 ADD MSTORE PUSH1 0x64 ADD PUSH2 0x4C8 JUMP JUMPDEST PUSH1 0x0 DUP1 PUSH19 0x184F03E93FF9F4DAA797ED6E38ED64BF6A1F01 PUSH1 0x40 SHL DUP4 LT PUSH2 0xFA7 JUMPI PUSH19 0x184F03E93FF9F4DAA797ED6E38ED64BF6A1F01 PUSH1 0x40 SHL DUP4 DIV SWAP3 POP PUSH1 0x40 ADD JUMPDEST PUSH14 0x4EE2D6D415B85ACEF8100000000 DUP4 LT PUSH2 0xFD3 JUMPI PUSH14 0x4EE2D6D415B85ACEF8100000000 DUP4 DIV SWAP3 POP PUSH1 0x20 ADD JUMPDEST PUSH7 0x2386F26FC10000 DUP4 LT PUSH2 0xFF1 JUMPI PUSH7 0x2386F26FC10000 DUP4 DIV SWAP3 POP PUSH1 0x10 ADD JUMPDEST PUSH4 0x5F5E100 DUP4 LT PUSH2 0x1009 JUMPI PUSH4 0x5F5E100 DUP4 DIV SWAP3 POP PUSH1 0x8 ADD JUMPDEST PUSH2 0x2710 DUP4 LT PUSH2 0x101D JUMPI PUSH2 0x2710 DUP4 DIV SWAP3 POP PUSH1 0x4 ADD JUMPDEST PUSH1 0x64 DUP4 LT PUSH2 0x102F JUMPI PUSH1 0x64 DUP4 DIV SWAP3 POP PUSH1 0x2 ADD JUMPDEST PUSH1 0xA DUP4 LT PUSH2 0x3CF JUMPI PUSH1 0x1 ADD SWAP3 SWAP2 POP POP JUMP JUMPDEST DUP3 DUP1 SLOAD PUSH2 0x104C SWAP1 PUSH2 0x141B JUMP JUMPDEST SWAP1 PUSH1 0x0 MSTORE PUSH1 0x20 PUSH1 0x0 KECCAK256 SWAP1 PUSH1 0x1F ADD PUSH1 0x20 SWAP1 DIV DUP2 ADD SWAP3 DUP3 PUSH2 0x106E JUMPI PUSH1 0x0 DUP6 SSTORE PUSH2 0x10B4 JUMP JUMPDEST DUP3 PUSH1 0x1F LT PUSH2 0x1087 JUMPI DUP3 DUP1 ADD PUSH1 0xFF NOT DUP3 CALLDATALOAD AND OR DUP6 SSTORE PUSH2 0x10B4 JUMP JUMPDEST DUP3 DUP1 ADD PUSH1 0x1 ADD DUP6 SSTORE DUP3 ISZERO PUSH2 0x10B4 JUMPI SWAP2 DUP3 ADD JUMPDEST DUP3 DUP2 GT ISZERO PUSH2 0x10B4 JUMPI DUP3 CALLDATALOAD DUP3 SSTORE SWAP2 PUSH1 0x20 ADD SWAP2 SWAP1 PUSH1 0x1 ADD SWAP1 PUSH2 0x1099 JUMP JUMPDEST POP PUSH2 0x10C0 SWAP3 SWAP2 POP PUSH2 0x10C4 JUMP JUMPDEST POP SWAP1 JUMP JUMPDEST JUMPDEST DUP1 DUP3 GT ISZERO PUSH2 0x10C0 JUMPI PUSH1 0x0 DUP2 SSTORE PUSH1 0x1 ADD PUSH2 0x10C5 JUMP JUMPDEST PUSH1 0x1 PUSH1 0x1 PUSH1 0xE0 SHL SUB NOT DUP2 AND DUP2 EQ PUSH2 0x7B6 JUMPI PUSH1 0x0 DUP1 REVERT JUMPDEST PUSH1 0x0 PUSH1 0x20 DUP3 DUP5 SUB SLT ISZERO PUSH2 0x1101 JUMPI PUSH1 0x0 DUP1 REVERT JUMPDEST DUP2 CALLDATALOAD PUSH2 0xBA2 DUP2 PUSH2 0x10D9 JUMP JUMPDEST PUSH1 0x0 JUMPDEST DUP4 DUP2 LT ISZERO PUSH2 0x1127 JUMPI DUP2 DUP2 ADD MLOAD DUP4 DUP3 ADD MSTORE PUSH1 0x20 ADD PUSH2 0x110F JUMP JUMPDEST DUP4 DUP2 GT ISZERO PUSH2 0x1136 JUMPI PUSH1 0x0 DUP5 DUP5 ADD MSTORE JUMPDEST POP POP POP POP JUMP JUMPDEST PUSH1 0x20 DUP2 MSTORE PUSH1 0x0 DUP3 MLOAD DUP1 PUSH1 0x20 DUP5 ADD MSTORE PUSH2 0x115B DUP2 PUSH1 0x40 DUP6 ADD PUSH1 0x20 DUP8 ADD PUSH2 0x110C JUMP JUMPDEST PUSH1 0x1F ADD PUSH1 0x1F NOT AND SWAP2 SWAP1 SWAP2 ADD PUSH1 0x40 ADD SWAP3 SWAP2 POP POP JUMP JUMPDEST PUSH1 0x0 PUSH1 0x20 DUP3 DUP5 SUB SLT ISZERO PUSH2 0x1181 JUMPI PUSH1 0x0 DUP1 REVERT JUMPDEST POP CALLDATALOAD SWAP2 SWAP1 POP JUMP JUMPDEST DUP1 CALLDATALOAD PUSH1 0x1 PUSH1 0x1 PUSH1 0xA0 SHL SUB DUP2 AND DUP2 EQ PUSH2 0x7EE JUMPI PUSH1 0x0 DUP1 REVERT JUMPDEST PUSH1 0x0 DUP1 PUSH1 0x40 DUP4 DUP6 SUB SLT ISZERO PUSH2 0x11B2 JUMPI PUSH1 0x0 DUP1 REVERT JUMPDEST PUSH2 0x11BB DUP4 PUSH2 0x1188 JUMP JUMPDEST SWAP5 PUSH1 0x20 SWAP4 SWAP1 SWAP4 ADD CALLDATALOAD SWAP4 POP POP POP JUMP JUMPDEST PUSH1 0x0 DUP1 PUSH1 0x0 PUSH1 0x60 DUP5 DUP7 SUB SLT ISZERO PUSH2 0x11DE JUMPI PUSH1 0x0 DUP1 REVERT JUMPDEST PUSH2 0x11E7 DUP5 PUSH2 0x1188 JUMP JUMPDEST SWAP3 POP PUSH2 0x11F5 PUSH1 0x20 DUP6 ADD PUSH2 0x1188 JUMP JUMPDEST SWAP2 POP PUSH1 0x40 DUP5 ADD CALLDATALOAD SWAP1 POP SWAP3 POP SWAP3 POP SWAP3 JUMP JUMPDEST PUSH1 0x0 PUSH1 0x20 DUP3 DUP5 SUB SLT ISZERO PUSH2 0x1217 JUMPI PUSH1 0x0 DUP1 REVERT JUMPDEST PUSH2 0xBA2 DUP3 PUSH2 0x1188 JUMP JUMPDEST PUSH1 0x0 DUP1 DUP4 PUSH1 0x1F DUP5 ADD SLT PUSH2 0x1232 JUMPI PUSH1 0x0 DUP1 REVERT JUMPDEST POP DUP2 CALLDATALOAD PUSH8 0xFFFFFFFFFFFFFFFF DUP2 GT ISZERO PUSH2 0x124A JUMPI PUSH1 0x0 DUP1 REVERT JUMPDEST PUSH1 0x20 DUP4 ADD SWAP2 POP DUP4 PUSH1 0x20 DUP3 DUP6 ADD ADD GT ISZERO PUSH2 0x1262 JUMPI PUSH1 0x0 DUP1 REVERT JUMPDEST SWAP3 POP SWAP3 SWAP1 POP JUMP JUMPDEST PUSH1 0x0 DUP1 PUSH1 0x0 DUP1 PUSH1 0x0 DUP1 PUSH1 0x0 PUSH1 0xA0 DUP9 DUP11 SUB SLT ISZERO PUSH2 0x1284 JUMPI PUSH1 0x0 DUP1 REVERT JUMPDEST PUSH2 0x128D DUP9 PUSH2 0x1188 JUMP JUMPDEST SWAP7 POP PUSH2 0x129B PUSH1 0x20 DUP10 ADD PUSH2 0x1188 JUMP JUMPDEST SWAP6 POP PUSH2 0x12A9 PUSH1 0x40 DUP10 ADD PUSH2 0x1188 JUMP JUMPDEST SWAP5 POP PUSH1 0x60 DUP9 ADD CALLDATALOAD PUSH8 0xFFFFFFFFFFFFFFFF DUP1 DUP3 GT ISZERO PUSH2 0x12C6 JUMPI PUSH1 0x0 DUP1 REVERT JUMPDEST PUSH2 0x12D2 DUP12 DUP4 DUP13 ADD PUSH2 0x1220 JUMP JUMPDEST SWAP1 SWAP7 POP SWAP5 POP PUSH1 0x80 DUP11 ADD CALLDATALOAD SWAP2 POP DUP1 DUP3 GT ISZERO PUSH2 0x12EB JUMPI PUSH1 0x0 DUP1 REVERT JUMPDEST POP PUSH2 0x12F8 DUP11 DUP3 DUP12 ADD PUSH2 0x1220 JUMP JUMPDEST SWAP9 SWAP12 SWAP8 SWAP11 POP SWAP6 SWAP9 POP SWAP4 SWAP7 SWAP3 SWAP6 SWAP3 SWAP4 POP POP POP JUMP JUMPDEST PUSH1 0x1 PUSH1 0x1 PUSH1 0x80 SHL SUB DUP2 AND DUP2 EQ PUSH2 0x7B6 JUMPI PUSH1 0x0 DUP1 REVERT JUMPDEST PUSH1 0x0 PUSH1 0x20 DUP3 DUP5 SUB SLT ISZERO PUSH2 0x1332 JUMPI PUSH1 0x0 DUP1 REVERT JUMPDEST DUP2 CALLDATALOAD PUSH2 0xBA2 DUP2 PUSH2 0x130B JUMP JUMPDEST PUSH1 0x0 DUP1 PUSH1 0x40 DUP4 DUP6 SUB SLT ISZERO PUSH2 0x1350 JUMPI PUSH1 0x0 DUP1 REVERT JUMPDEST PUSH2 0x1359 DUP4 PUSH2 0x1188 JUMP JUMPDEST SWAP2 POP PUSH1 0x20 DUP4 ADD CALLDATALOAD DUP1 ISZERO ISZERO DUP2 EQ PUSH2 0x136E JUMPI PUSH1 0x0 DUP1 REVERT JUMPDEST DUP1 SWAP2 POP POP SWAP3 POP SWAP3 SWAP1 POP JUMP JUMPDEST PUSH1 0x0 DUP1 PUSH1 0x0 DUP1 PUSH1 0x0 PUSH1 0x80 DUP7 DUP9 SUB SLT ISZERO PUSH2 0x1391 JUMPI PUSH1 0x0 DUP1 REVERT JUMPDEST PUSH2 0x139A DUP7 PUSH2 0x1188 JUMP JUMPDEST SWAP5 POP PUSH2 0x13A8 PUSH1 0x20 DUP8 ADD PUSH2 0x1188 JUMP JUMPDEST SWAP4 POP PUSH1 0x40 DUP7 ADD CALLDATALOAD SWAP3 POP PUSH1 0x60 DUP7 ADD CALLDATALOAD PUSH8 0xFFFFFFFFFFFFFFFF DUP2 GT ISZERO PUSH2 0x13CB JUMPI PUSH1 0x0 DUP1 REVERT JUMPDEST PUSH2 0x13D7 DUP9 DUP3 DUP10 ADD PUSH2 0x1220 JUMP JUMPDEST SWAP7 SWAP10 SWAP6 SWAP9 POP SWAP4 SWAP7 POP SWAP3 SWAP5 SWAP4 SWAP3 POP POP POP JUMP JUMPDEST PUSH1 0x0 DUP1 PUSH1 0x40 DUP4 DUP6 SUB SLT ISZERO PUSH2 0x13FB JUMPI PUSH1 0x0 DUP1 REVERT JUMPDEST PUSH2 0x1404 DUP4 PUSH2 0x1188 JUMP JUMPDEST SWAP2 POP PUSH2 0x1412 PUSH1 0x20 DUP5 ADD PUSH2 0x1188 JUMP JUMPDEST SWAP1 POP SWAP3 POP SWAP3 SWAP1 POP JUMP JUMPDEST PUSH1 0x1 DUP2 DUP2 SHR SWAP1 DUP3 AND DUP1 PUSH2 0x142F JUMPI PUSH1 0x7F DUP3 AND SWAP2 POP JUMPDEST PUSH1 0x20 DUP3 LT DUP2 EQ ISZERO PUSH2 0x1450 JUMPI PUSH4 0x4E487B71 PUSH1 0xE0 SHL PUSH1 0x0 MSTORE PUSH1 0x22 PUSH1 0x4 MSTORE PUSH1 0x24 PUSH1 0x0 REVERT JUMPDEST POP SWAP2 SWAP1 POP JUMP JUMPDEST PUSH1 0x20 DUP1 DUP3 MSTORE PUSH1 0xE SWAP1 DUP3 ADD MSTORE PUSH14 0x1393D517D055551213D492569151 PUSH1 0x92 SHL PUSH1 0x40 DUP3 ADD MSTORE PUSH1 0x60 ADD SWAP1 JUMP JUMPDEST PUSH1 0x20 DUP1 DUP3 MSTORE PUSH1 0x11 SWAP1 DUP3 ADD MSTORE PUSH17 0x1253959053125117D49150D25412515395 PUSH1 0x7A SHL PUSH1 0x40 DUP3 ADD MSTORE PUSH1 0x60 ADD SWAP1 JUMP JUMPDEST PUSH1 0x0 PUSH1 0x20 DUP3 DUP5 SUB SLT ISZERO PUSH2 0x14BB JUMPI PUSH1 0x0 DUP1 REVERT JUMPDEST DUP2 MLOAD PUSH2 0xBA2 DUP2 PUSH2 0x10D9 JUMP JUMPDEST PUSH1 0x20 DUP1 DUP3 MSTORE PUSH1 0x10 SWAP1 DUP3 ADD MSTORE PUSH16 0x155394D0519157D49150D25412515395 PUSH1 0x82 SHL PUSH1 0x40 DUP3 ADD MSTORE PUSH1 0x60 ADD SWAP1 JUMP JUMPDEST PUSH1 0x20 DUP1 DUP3 MSTORE PUSH1 0xA SWAP1 DUP3 ADD MSTORE PUSH10 0x1393D517D35253951151 PUSH1 0xB2 SHL PUSH1 0x40 DUP3 ADD MSTORE PUSH1 0x60 ADD SWAP1 JUMP JUMPDEST PUSH1 0x0 DUP1 PUSH1 0x40 DUP4 DUP6 SUB SLT ISZERO PUSH2 0x1527 JUMPI PUSH1 0x0 DUP1 REVERT JUMPDEST DUP3 MLOAD PUSH2 0x1532 DUP2 PUSH2 0x130B JUMP JUMPDEST PUSH1 0x20 DUP5 ADD MLOAD SWAP1 SWAP3 POP PUSH2 0x136E DUP2 PUSH2 0x130B JUMP JUMPDEST PUSH1 0x1 PUSH1 0x1 PUSH1 0xA0 SHL SUB DUP7 DUP2 AND DUP3 MSTORE DUP6 AND PUSH1 0x20 DUP3 ADD MSTORE PUSH1 0x40 DUP2 ADD DUP5 SWAP1 MSTORE PUSH1 0x80 PUSH1 0x60 DUP3 ADD DUP2 SWAP1 MSTORE DUP2 ADD DUP3 SWAP1 MSTORE PUSH1 0x0 DUP3 DUP5 PUSH1 0xA0 DUP5 ADD CALLDATACOPY PUSH1 0x0 PUSH1 0xA0 DUP5 DUP5 ADD ADD MSTORE PUSH1 0xA0 PUSH1 0x1F NOT PUSH1 0x1F DUP6 ADD AND DUP4 ADD ADD SWAP1 POP SWAP7 SWAP6 POP POP POP POP POP POP JUMP JUMPDEST PUSH1 0x0 DUP6 MLOAD PUSH2 0x15A9 DUP2 DUP5 PUSH1 0x20 DUP11 ADD PUSH2 0x110C JUMP JUMPDEST DUP6 MLOAD SWAP1 DUP4 ADD SWAP1 PUSH2 0x15BD DUP2 DUP4 PUSH1 0x20 DUP11 ADD PUSH2 0x110C JUMP JUMPDEST PUSH1 0x2F PUSH1 0xF8 SHL SWAP2 ADD DUP2 DUP2 MSTORE DUP6 MLOAD SWAP1 SWAP2 SWAP1 PUSH2 0x15DD DUP2 PUSH1 0x1 DUP6 ADD PUSH1 0x20 DUP11 ADD PUSH2 0x110C JUMP JUMPDEST PUSH1 0x1 SWAP3 ADD SWAP2 DUP3 ADD MSTORE DUP4 MLOAD PUSH2 0x15F8 DUP2 PUSH1 0x2 DUP5 ADD PUSH1 0x20 DUP9 ADD PUSH2 0x110C JUMP JUMPDEST ADD PUSH1 0x2 ADD SWAP7 SWAP6 POP POP POP POP POP POP JUMP JUMPDEST PUSH4 0x4E487B71 PUSH1 0xE0 SHL PUSH1 0x0 MSTORE PUSH1 0x41 PUSH1 0x4 MSTORE PUSH1 0x24 PUSH1 0x0 REVERT JUMPDEST PUSH4 0x4E487B71 PUSH1 0xE0 SHL PUSH1 0x0 MSTORE PUSH1 0x11 PUSH1 0x4 MSTORE PUSH1 0x24 PUSH1 0x0 REVERT JUMPDEST PUSH1 0x0 DUP2 PUSH1 0x0 NOT DIV DUP4 GT DUP3 ISZERO ISZERO AND ISZERO PUSH2 0x164C JUMPI PUSH2 0x164C PUSH2 0x161C JUMP JUMPDEST POP MUL SWAP1 JUMP JUMPDEST PUSH1 0x0 DUP3 NOT DUP3 GT ISZERO PUSH2 0x1664 JUMPI PUSH2 0x1664 PUSH2 0x161C JUMP JUMPDEST POP ADD SWAP1 JUMP JUMPDEST PUSH4 0x4E487B71 PUSH1 0xE0 SHL PUSH1 0x0 MSTORE PUSH1 0x32 PUSH1 0x4 MSTORE PUSH1 0x24 PUSH1 0x0 REVERT JUMPDEST PUSH1 0x0 DUP2 PUSH2 0x168E JUMPI PUSH2 0x168E PUSH2 0x161C JUMP JUMPDEST POP PUSH1 0x0 NOT ADD SWAP1 JUMP INVALID 0xDD CALLCODE MSTORE 0xAD SHL 0xE2 0xC8 SWAP12 PUSH10 0xC2B068FC378DAA952BA7 CALL PUSH4 0xC4A11628 CREATE2 GAS 0x4D CREATE2 0x23 0xB3 0xEF LOG2 PUSH5 0x6970667358 0x22 SLT KECCAK256 SELFDESTRUCT SAR EXTCODECOPY 0xAE 0xCC 0xBC PUSH11 0xC232289188F06C56D5AD69 0x2C SHL 0xB5 0x2B CALLCODE LOG4 CALLCODE 0xE4 SWAP2 EXTCODESIZE PUSH1 0xA0 BYTE 0x1F PUSH5 0x736F6C6343 STOP ADDMOD EXP STOP CALLER "
				},
				"gasEstimates": {
					"creation": {
						"codeDepositCost": "1173600",
						"executionCost": "infinite",
						"totalCost": "infinite"
					},
					"external": {
						"approve(address,uint256)": "31157",
						"balanceOf(address)": "2612",
						"burn(uint256)": "79538",
						"factory()": "infinite",
						"getApproved(uint256)": "2545",
						"getReserves(uint128)": "infinite",
						"initialize(address,address,address,string,string)": "infinite",
						"initialized()": "2428",
						"isApprovedForAll(address,address)": "infinite",
						"mint(address,uint256)": "55361",
						"name()": "infinite",
						"ownerOf(uint256)": "2695",
						"pair()": "2359",
						"safeTransferFrom(address,address,uint256)": "infinite",
						"safeTransferFrom(address,address,uint256,bytes)": "infinite",
						"setApprovalForAll(address,bool)": "26696",
						"supportsInterface(bytes4)": "534",
						"symbol()": "infinite",
						"tokenURI(uint256)": "infinite",
						"tokenX()": "2360",
						"tokenY()": "2381",
						"transferFrom(address,address,uint256)": "infinite"
					},
					"internal": {
						"_baseURI()": "infinite"
					}
				},
				"methodIdentifiers": {
					"approve(address,uint256)": "095ea7b3",
					"balanceOf(address)": "70a08231",
					"burn(uint256)": "42966c68",
					"factory()": "c45a0155",
					"getApproved(uint256)": "081812fc",
					"getReserves(uint128)": "9abe9dfb",
					"initialize(address,address,address,string,string)": "83b43589",
					"initialized()": "158ef93e",
					"isApprovedForAll(address,address)": "e985e9c5",
					"mint(address,uint256)": "40c10f19",
					"name()": "06fdde03",
					"ownerOf(uint256)": "6352211e",
					"pair()": "a8aa1b31",
					"safeTransferFrom(address,address,uint256)": "42842e0e",
					"safeTransferFrom(address,address,uint256,bytes)": "b88d4fde",
					"setApprovalForAll(address,bool)": "a22cb465",
					"supportsInterface(bytes4)": "01ffc9a7",
					"symbol()": "95d89b41",
					"tokenURI(uint256)": "c87b56dd",
					"tokenX()": "16dc165b",
					"tokenY()": "b7d19fc4",
					"transferFrom(address,address,uint256)": "23b872dd"
				}
			},
			"storageLayout": {
				"storage": [
					{
						"astId": 849,
						"contract": "Midas_V1.2/LPToken.sol:LPToken",
						"label": "_ownerOf",
						"offset": 0,
						"slot": "0",
						"type": "t_mapping(t_uint256,t_address)"
					},
					{
						"astId": 853,
						"contract": "Midas_V1.2/LPToken.sol:LPToken",
						"label": "_balanceOf",
						"offset": 0,
						"slot": "1",
						"type": "t_mapping(t_address,t_uint256)"
					},
					{
						"astId": 902,
						"contract": "Midas_V1.2/LPToken.sol:LPToken",
						"label": "getApproved",
						"offset": 0,
						"slot": "2",
						"type": "t_mapping(t_uint256,t_address)"
					},
					{
						"astId": 908,
						"contract": "Midas_V1.2/LPToken.sol:LPToken",
						"label": "isApprovedForAll",
						"offset": 0,
						"slot": "3",
						"type": "t_mapping(t_address,t_mapping(t_address,t_bool))"
					},
					{
						"astId": 218,
						"contract": "Midas_V1.2/LPToken.sol:LPToken",
						"label": "name",
						"offset": 0,
						"slot": "4",
						"type": "t_string_storage"
					},
					{
						"astId": 220,
						"contract": "Midas_V1.2/LPToken.sol:LPToken",
						"label": "symbol",
						"offset": 0,
						"slot": "5",
						"type": "t_string_storage"
					},
					{
						"astId": 230,
						"contract": "Midas_V1.2/LPToken.sol:LPToken",
						"label": "pair",
						"offset": 0,
						"slot": "6",
						"type": "t_address"
					},
					{
						"astId": 232,
						"contract": "Midas_V1.2/LPToken.sol:LPToken",
						"label": "tokenX",
						"offset": 0,
						"slot": "7",
						"type": "t_address"
					},
					{
						"astId": 234,
						"contract": "Midas_V1.2/LPToken.sol:LPToken",
						"label": "tokenY",
						"offset": 0,
						"slot": "8",
						"type": "t_address"
					},
					{
						"astId": 236,
						"contract": "Midas_V1.2/LPToken.sol:LPToken",
						"label": "initialized",
						"offset": 20,
						"slot": "8",
						"type": "t_bool"
					}
				],
				"types": {
					"t_address": {
						"encoding": "inplace",
						"label": "address",
						"numberOfBytes": "20"
					},
					"t_bool": {
						"encoding": "inplace",
						"label": "bool",
						"numberOfBytes": "1"
					},
					"t_mapping(t_address,t_bool)": {
						"encoding": "mapping",
						"key": "t_address",
						"label": "mapping(address => bool)",
						"numberOfBytes": "32",
						"value": "t_bool"
					},
					"t_mapping(t_address,t_mapping(t_address,t_bool))": {
						"encoding": "mapping",
						"key": "t_address",
						"label": "mapping(address => mapping(address => bool))",
						"numberOfBytes": "32",
						"value": "t_mapping(t_address,t_bool)"
					},
					"t_mapping(t_address,t_uint256)": {
						"encoding": "mapping",
						"key": "t_address",
						"label": "mapping(address => uint256)",
						"numberOfBytes": "32",
						"value": "t_uint256"
					},
					"t_mapping(t_uint256,t_address)": {
						"encoding": "mapping",
						"key": "t_uint256",
						"label": "mapping(uint256 => address)",
						"numberOfBytes": "32",
						"value": "t_address"
					},
					"t_string_storage": {
						"encoding": "bytes",
						"label": "string",
						"numberOfBytes": "32"
					},
					"t_uint256": {
						"encoding": "inplace",
						"label": "uint256",
						"numberOfBytes": "32"
					}
				}
			},
			"userdoc": {
				"kind": "user",
				"methods": {},
				"notice": "Non-fungible token which wraps the positions of LPs",
				"version": 1
			}
		}
	}
}