{
	"Midas_testV1.1/src/libraries/PositionHelper.sol": {
		"PositionHelper": {
			"abi": [
				{
					"inputs": [
						{
							"internalType": "uint256[]",
							"name": "arr",
							"type": "uint256[]"
						}
					],
					"name": "_removeFirstItem",
					"outputs": [
						{
							"internalType": "uint256[]",
							"name": "",
							"type": "uint256[]"
						}
					],
					"stateMutability": "pure",
					"type": "function"
				}
			],
			"devdoc": {
				"kind": "dev",
				"methods": {},
				"version": 1
			},
			"evm": {
				"assembly": "    /* \"Midas_testV1.1/src/libraries/PositionHelper.sol\":88:2085  library PositionHelper {... */\n  dataSize(sub_0)\n  dataOffset(sub_0)\n  0x0b\n  dup3\n  dup3\n  dup3\n  codecopy\n  dup1\n  mload\n  0x00\n  byte\n  0x73\n  eq\n  tag_1\n  jumpi\n  mstore(0x00, 0x4e487b7100000000000000000000000000000000000000000000000000000000)\n  mstore(0x04, 0x00)\n  revert(0x00, 0x24)\ntag_1:\n  mstore(0x00, address)\n  0x73\n  dup2\n  mstore8\n  dup3\n  dup2\n  return\nstop\n\nsub_0: assembly {\n        /* \"Midas_testV1.1/src/libraries/PositionHelper.sol\":88:2085  library PositionHelper {... */\n      eq(address, deployTimeAddress())\n      mstore(0x40, 0x80)\n      jumpi(tag_1, lt(calldatasize, 0x04))\n      shr(0xe0, calldataload(0x00))\n      dup1\n      0x1e2cdcf7\n      eq\n      tag_2\n      jumpi\n    tag_1:\n      0x00\n      dup1\n      revert\n        /* \"Midas_testV1.1/src/libraries/PositionHelper.sol\":573:934  function _removeFirstItem(... */\n    tag_2:\n      tag_3\n      0x04\n      dup1\n      calldatasize\n      sub\n      dup2\n      add\n      swap1\n      tag_4\n      swap2\n      swap1\n      tag_5\n      jump\t// in\n    tag_4:\n      tag_6\n      jump\t// in\n    tag_3:\n      mload(0x40)\n      tag_7\n      swap2\n      swap1\n      tag_8\n      jump\t// in\n    tag_7:\n      mload(0x40)\n      dup1\n      swap2\n      sub\n      swap1\n      return\n    tag_6:\n        /* \"Midas_testV1.1/src/libraries/PositionHelper.sol\":656:672  uint256[] memory */\n      0x60\n        /* \"Midas_testV1.1/src/libraries/PositionHelper.sol\":684:707  uint256[] memory newArr */\n      0x00\n        /* \"Midas_testV1.1/src/libraries/PositionHelper.sol\":737:738  1 */\n      0x01\n        /* \"Midas_testV1.1/src/libraries/PositionHelper.sol\":724:727  arr */\n      dup4\n        /* \"Midas_testV1.1/src/libraries/PositionHelper.sol\":724:734  arr.length */\n      mload\n        /* \"Midas_testV1.1/src/libraries/PositionHelper.sol\":724:738  arr.length - 1 */\n      tag_10\n      swap2\n      swap1\n      tag_11\n      jump\t// in\n    tag_10:\n        /* \"Midas_testV1.1/src/libraries/PositionHelper.sol\":710:739  new uint256[](arr.length - 1) */\n      0xffffffffffffffff\n      dup2\n      gt\n      iszero\n      tag_12\n      jumpi\n      tag_13\n      tag_14\n      jump\t// in\n    tag_13:\n    tag_12:\n      mload(0x40)\n      swap1\n      dup1\n      dup3\n      mstore\n      dup1\n      0x20\n      mul\n      0x20\n      add\n      dup3\n      add\n      0x40\n      mstore\n      dup1\n      iszero\n      tag_15\n      jumpi\n      dup2\n      0x20\n      add\n      0x20\n      dup3\n      mul\n      dup1\n      calldatasize\n      dup4\n      calldatacopy\n      dup1\n      dup3\n      add\n      swap2\n      pop\n      pop\n      swap1\n      pop\n    tag_15:\n      pop\n        /* \"Midas_testV1.1/src/libraries/PositionHelper.sol\":684:739  uint256[] memory newArr = new uint256[](arr.length - 1) */\n      swap1\n      pop\n        /* \"Midas_testV1.1/src/libraries/PositionHelper.sol\":754:760  uint i */\n      0x00\n        /* \"Midas_testV1.1/src/libraries/PositionHelper.sol\":749:905  for (uint i ; i < newArr.length; ) {... */\n    tag_16:\n        /* \"Midas_testV1.1/src/libraries/PositionHelper.sol\":767:773  newArr */\n      dup2\n        /* \"Midas_testV1.1/src/libraries/PositionHelper.sol\":767:780  newArr.length */\n      mload\n        /* \"Midas_testV1.1/src/libraries/PositionHelper.sol\":763:764  i */\n      dup2\n        /* \"Midas_testV1.1/src/libraries/PositionHelper.sol\":763:780  i < newArr.length */\n      lt\n        /* \"Midas_testV1.1/src/libraries/PositionHelper.sol\":749:905  for (uint i ; i < newArr.length; ) {... */\n      iszero\n      tag_17\n      jumpi\n        /* \"Midas_testV1.1/src/libraries/PositionHelper.sol\":814:817  arr */\n      dup4\n        /* \"Midas_testV1.1/src/libraries/PositionHelper.sol\":822:823  1 */\n      0x01\n        /* \"Midas_testV1.1/src/libraries/PositionHelper.sol\":818:819  i */\n      dup3\n        /* \"Midas_testV1.1/src/libraries/PositionHelper.sol\":818:823  i + 1 */\n      tag_19\n      swap2\n      swap1\n      tag_20\n      jump\t// in\n    tag_19:\n        /* \"Midas_testV1.1/src/libraries/PositionHelper.sol\":814:824  arr[i + 1] */\n      dup2\n      mload\n      dup2\n      lt\n      tag_21\n      jumpi\n      tag_22\n      tag_23\n      jump\t// in\n    tag_22:\n    tag_21:\n      0x20\n      mul\n      0x20\n      add\n      add\n      mload\n        /* \"Midas_testV1.1/src/libraries/PositionHelper.sol\":802:808  newArr */\n      dup3\n        /* \"Midas_testV1.1/src/libraries/PositionHelper.sol\":809:810  i */\n      dup3\n        /* \"Midas_testV1.1/src/libraries/PositionHelper.sol\":802:811  newArr[i] */\n      dup2\n      mload\n      dup2\n      lt\n      tag_24\n      jumpi\n      tag_25\n      tag_23\n      jump\t// in\n    tag_25:\n    tag_24:\n      0x20\n      mul\n      0x20\n      add\n      add\n        /* \"Midas_testV1.1/src/libraries/PositionHelper.sol\":802:824  newArr[i] = arr[i + 1] */\n      dup2\n      dup2\n      mstore\n      pop\n      pop\n        /* \"Midas_testV1.1/src/libraries/PositionHelper.sol\":873:876  ++i */\n      dup1\n      0x01\n      add\n      swap1\n      pop\n        /* \"Midas_testV1.1/src/libraries/PositionHelper.sol\":749:905  for (uint i ; i < newArr.length; ) {... */\n      jump(tag_16)\n    tag_17:\n      pop\n        /* \"Midas_testV1.1/src/libraries/PositionHelper.sol\":921:927  newArr */\n      dup1\n        /* \"Midas_testV1.1/src/libraries/PositionHelper.sol\":914:927  return newArr */\n      swap2\n      pop\n      pop\n        /* \"Midas_testV1.1/src/libraries/PositionHelper.sol\":573:934  function _removeFirstItem(... */\n      swap2\n      swap1\n      pop\n      jump\t// out\n        /* \"#utility.yul\":7:82   */\n    tag_26:\n        /* \"#utility.yul\":40:46   */\n      0x00\n        /* \"#utility.yul\":73:75   */\n      0x40\n        /* \"#utility.yul\":67:76   */\n      mload\n        /* \"#utility.yul\":57:76   */\n      swap1\n      pop\n        /* \"#utility.yul\":7:82   */\n      swap1\n      jump\t// out\n        /* \"#utility.yul\":88:205   */\n    tag_27:\n        /* \"#utility.yul\":197:198   */\n      0x00\n        /* \"#utility.yul\":194:195   */\n      dup1\n        /* \"#utility.yul\":187:199   */\n      revert\n        /* \"#utility.yul\":211:328   */\n    tag_28:\n        /* \"#utility.yul\":320:321   */\n      0x00\n        /* \"#utility.yul\":317:318   */\n      dup1\n        /* \"#utility.yul\":310:322   */\n      revert\n        /* \"#utility.yul\":334:451   */\n    tag_29:\n        /* \"#utility.yul\":443:444   */\n      0x00\n        /* \"#utility.yul\":440:441   */\n      dup1\n        /* \"#utility.yul\":433:445   */\n      revert\n        /* \"#utility.yul\":457:559   */\n    tag_30:\n        /* \"#utility.yul\":498:504   */\n      0x00\n        /* \"#utility.yul\":549:551   */\n      0x1f\n        /* \"#utility.yul\":545:552   */\n      not\n        /* \"#utility.yul\":540:542   */\n      0x1f\n        /* \"#utility.yul\":533:538   */\n      dup4\n        /* \"#utility.yul\":529:543   */\n      add\n        /* \"#utility.yul\":525:553   */\n      and\n        /* \"#utility.yul\":515:553   */\n      swap1\n      pop\n        /* \"#utility.yul\":457:559   */\n      swap2\n      swap1\n      pop\n      jump\t// out\n        /* \"#utility.yul\":565:745   */\n    tag_14:\n        /* \"#utility.yul\":613:690   */\n      0x4e487b7100000000000000000000000000000000000000000000000000000000\n        /* \"#utility.yul\":610:611   */\n      0x00\n        /* \"#utility.yul\":603:691   */\n      mstore\n        /* \"#utility.yul\":710:714   */\n      0x41\n        /* \"#utility.yul\":707:708   */\n      0x04\n        /* \"#utility.yul\":700:715   */\n      mstore\n        /* \"#utility.yul\":734:738   */\n      0x24\n        /* \"#utility.yul\":731:732   */\n      0x00\n        /* \"#utility.yul\":724:739   */\n      revert\n        /* \"#utility.yul\":751:1032   */\n    tag_31:\n        /* \"#utility.yul\":834:861   */\n      tag_56\n        /* \"#utility.yul\":856:860   */\n      dup3\n        /* \"#utility.yul\":834:861   */\n      tag_30\n      jump\t// in\n    tag_56:\n        /* \"#utility.yul\":826:832   */\n      dup2\n        /* \"#utility.yul\":822:862   */\n      add\n        /* \"#utility.yul\":964:970   */\n      dup2\n        /* \"#utility.yul\":952:962   */\n      dup2\n        /* \"#utility.yul\":949:971   */\n      lt\n        /* \"#utility.yul\":928:946   */\n      0xffffffffffffffff\n        /* \"#utility.yul\":916:926   */\n      dup3\n        /* \"#utility.yul\":913:947   */\n      gt\n        /* \"#utility.yul\":910:972   */\n      or\n        /* \"#utility.yul\":907:995   */\n      iszero\n      tag_57\n      jumpi\n        /* \"#utility.yul\":975:993   */\n      tag_58\n      tag_14\n      jump\t// in\n    tag_58:\n        /* \"#utility.yul\":907:995   */\n    tag_57:\n        /* \"#utility.yul\":1015:1025   */\n      dup1\n        /* \"#utility.yul\":1011:1013   */\n      0x40\n        /* \"#utility.yul\":1004:1026   */\n      mstore\n        /* \"#utility.yul\":794:1032   */\n      pop\n        /* \"#utility.yul\":751:1032   */\n      pop\n      pop\n      jump\t// out\n        /* \"#utility.yul\":1038:1167   */\n    tag_32:\n        /* \"#utility.yul\":1072:1078   */\n      0x00\n        /* \"#utility.yul\":1099:1119   */\n      tag_60\n      tag_26\n      jump\t// in\n    tag_60:\n        /* \"#utility.yul\":1089:1119   */\n      swap1\n      pop\n        /* \"#utility.yul\":1128:1161   */\n      tag_61\n        /* \"#utility.yul\":1156:1160   */\n      dup3\n        /* \"#utility.yul\":1148:1154   */\n      dup3\n        /* \"#utility.yul\":1128:1161   */\n      tag_31\n      jump\t// in\n    tag_61:\n        /* \"#utility.yul\":1038:1167   */\n      swap2\n      swap1\n      pop\n      jump\t// out\n        /* \"#utility.yul\":1173:1484   */\n    tag_33:\n        /* \"#utility.yul\":1250:1254   */\n      0x00\n        /* \"#utility.yul\":1340:1358   */\n      0xffffffffffffffff\n        /* \"#utility.yul\":1332:1338   */\n      dup3\n        /* \"#utility.yul\":1329:1359   */\n      gt\n        /* \"#utility.yul\":1326:1382   */\n      iszero\n      tag_63\n      jumpi\n        /* \"#utility.yul\":1362:1380   */\n      tag_64\n      tag_14\n      jump\t// in\n    tag_64:\n        /* \"#utility.yul\":1326:1382   */\n    tag_63:\n        /* \"#utility.yul\":1412:1416   */\n      0x20\n        /* \"#utility.yul\":1404:1410   */\n      dup3\n        /* \"#utility.yul\":1400:1417   */\n      mul\n        /* \"#utility.yul\":1392:1417   */\n      swap1\n      pop\n        /* \"#utility.yul\":1472:1476   */\n      0x20\n        /* \"#utility.yul\":1466:1470   */\n      dup2\n        /* \"#utility.yul\":1462:1477   */\n      add\n        /* \"#utility.yul\":1454:1477   */\n      swap1\n      pop\n        /* \"#utility.yul\":1173:1484   */\n      swap2\n      swap1\n      pop\n      jump\t// out\n        /* \"#utility.yul\":1490:1607   */\n    tag_34:\n        /* \"#utility.yul\":1599:1600   */\n      0x00\n        /* \"#utility.yul\":1596:1597   */\n      dup1\n        /* \"#utility.yul\":1589:1601   */\n      revert\n        /* \"#utility.yul\":1613:1690   */\n    tag_35:\n        /* \"#utility.yul\":1650:1657   */\n      0x00\n        /* \"#utility.yul\":1679:1684   */\n      dup2\n        /* \"#utility.yul\":1668:1684   */\n      swap1\n      pop\n        /* \"#utility.yul\":1613:1690   */\n      swap2\n      swap1\n      pop\n      jump\t// out\n        /* \"#utility.yul\":1696:1818   */\n    tag_36:\n        /* \"#utility.yul\":1769:1793   */\n      tag_68\n        /* \"#utility.yul\":1787:1792   */\n      dup2\n        /* \"#utility.yul\":1769:1793   */\n      tag_35\n      jump\t// in\n    tag_68:\n        /* \"#utility.yul\":1762:1767   */\n      dup2\n        /* \"#utility.yul\":1759:1794   */\n      eq\n        /* \"#utility.yul\":1749:1812   */\n      tag_69\n      jumpi\n        /* \"#utility.yul\":1808:1809   */\n      0x00\n        /* \"#utility.yul\":1805:1806   */\n      dup1\n        /* \"#utility.yul\":1798:1810   */\n      revert\n        /* \"#utility.yul\":1749:1812   */\n    tag_69:\n        /* \"#utility.yul\":1696:1818   */\n      pop\n      jump\t// out\n        /* \"#utility.yul\":1824:1963   */\n    tag_37:\n        /* \"#utility.yul\":1870:1875   */\n      0x00\n        /* \"#utility.yul\":1908:1914   */\n      dup2\n        /* \"#utility.yul\":1895:1915   */\n      calldataload\n        /* \"#utility.yul\":1886:1915   */\n      swap1\n      pop\n        /* \"#utility.yul\":1924:1957   */\n      tag_71\n        /* \"#utility.yul\":1951:1956   */\n      dup2\n        /* \"#utility.yul\":1924:1957   */\n      tag_36\n      jump\t// in\n    tag_71:\n        /* \"#utility.yul\":1824:1963   */\n      swap3\n      swap2\n      pop\n      pop\n      jump\t// out\n        /* \"#utility.yul\":1986:2696   */\n    tag_38:\n        /* \"#utility.yul\":2082:2087   */\n      0x00\n        /* \"#utility.yul\":2107:2188   */\n      tag_73\n        /* \"#utility.yul\":2123:2187   */\n      tag_74\n        /* \"#utility.yul\":2180:2186   */\n      dup5\n        /* \"#utility.yul\":2123:2187   */\n      tag_33\n      jump\t// in\n    tag_74:\n        /* \"#utility.yul\":2107:2188   */\n      tag_32\n      jump\t// in\n    tag_73:\n        /* \"#utility.yul\":2098:2188   */\n      swap1\n      pop\n        /* \"#utility.yul\":2208:2213   */\n      dup1\n        /* \"#utility.yul\":2237:2243   */\n      dup4\n        /* \"#utility.yul\":2230:2235   */\n      dup3\n        /* \"#utility.yul\":2223:2244   */\n      mstore\n        /* \"#utility.yul\":2271:2275   */\n      0x20\n        /* \"#utility.yul\":2264:2269   */\n      dup3\n        /* \"#utility.yul\":2260:2276   */\n      add\n        /* \"#utility.yul\":2253:2276   */\n      swap1\n      pop\n        /* \"#utility.yul\":2324:2328   */\n      0x20\n        /* \"#utility.yul\":2316:2322   */\n      dup5\n        /* \"#utility.yul\":2312:2329   */\n      mul\n        /* \"#utility.yul\":2304:2310   */\n      dup4\n        /* \"#utility.yul\":2300:2330   */\n      add\n        /* \"#utility.yul\":2353:2356   */\n      dup6\n        /* \"#utility.yul\":2345:2351   */\n      dup2\n        /* \"#utility.yul\":2342:2357   */\n      gt\n        /* \"#utility.yul\":2339:2461   */\n      iszero\n      tag_75\n      jumpi\n        /* \"#utility.yul\":2372:2451   */\n      tag_76\n      tag_34\n      jump\t// in\n    tag_76:\n        /* \"#utility.yul\":2339:2461   */\n    tag_75:\n        /* \"#utility.yul\":2487:2493   */\n      dup4\n        /* \"#utility.yul\":2470:2690   */\n    tag_77:\n        /* \"#utility.yul\":2504:2510   */\n      dup2\n        /* \"#utility.yul\":2499:2502   */\n      dup2\n        /* \"#utility.yul\":2496:2511   */\n      lt\n        /* \"#utility.yul\":2470:2690   */\n      iszero\n      tag_79\n      jumpi\n        /* \"#utility.yul\":2579:2582   */\n      dup1\n        /* \"#utility.yul\":2608:2645   */\n      tag_80\n        /* \"#utility.yul\":2641:2644   */\n      dup9\n        /* \"#utility.yul\":2629:2639   */\n      dup3\n        /* \"#utility.yul\":2608:2645   */\n      tag_37\n      jump\t// in\n    tag_80:\n        /* \"#utility.yul\":2603:2606   */\n      dup5\n        /* \"#utility.yul\":2596:2646   */\n      mstore\n        /* \"#utility.yul\":2675:2679   */\n      0x20\n        /* \"#utility.yul\":2670:2673   */\n      dup5\n        /* \"#utility.yul\":2666:2680   */\n      add\n        /* \"#utility.yul\":2659:2680   */\n      swap4\n      pop\n        /* \"#utility.yul\":2546:2690   */\n      pop\n        /* \"#utility.yul\":2530:2534   */\n      0x20\n        /* \"#utility.yul\":2525:2528   */\n      dup2\n        /* \"#utility.yul\":2521:2535   */\n      add\n        /* \"#utility.yul\":2514:2535   */\n      swap1\n      pop\n        /* \"#utility.yul\":2470:2690   */\n      jump(tag_77)\n    tag_79:\n        /* \"#utility.yul\":2474:2495   */\n      pop\n        /* \"#utility.yul\":2088:2696   */\n      pop\n      pop\n        /* \"#utility.yul\":1986:2696   */\n      swap4\n      swap3\n      pop\n      pop\n      pop\n      jump\t// out\n        /* \"#utility.yul\":2719:3089   */\n    tag_39:\n        /* \"#utility.yul\":2790:2795   */\n      0x00\n        /* \"#utility.yul\":2839:2842   */\n      dup3\n        /* \"#utility.yul\":2832:2836   */\n      0x1f\n        /* \"#utility.yul\":2824:2830   */\n      dup4\n        /* \"#utility.yul\":2820:2837   */\n      add\n        /* \"#utility.yul\":2816:2843   */\n      slt\n        /* \"#utility.yul\":2806:2928   */\n      tag_82\n      jumpi\n        /* \"#utility.yul\":2847:2926   */\n      tag_83\n      tag_29\n      jump\t// in\n    tag_83:\n        /* \"#utility.yul\":2806:2928   */\n    tag_82:\n        /* \"#utility.yul\":2964:2970   */\n      dup2\n        /* \"#utility.yul\":2951:2971   */\n      calldataload\n        /* \"#utility.yul\":2989:3083   */\n      tag_84\n        /* \"#utility.yul\":3079:3082   */\n      dup5\n        /* \"#utility.yul\":3071:3077   */\n      dup3\n        /* \"#utility.yul\":3064:3068   */\n      0x20\n        /* \"#utility.yul\":3056:3062   */\n      dup7\n        /* \"#utility.yul\":3052:3069   */\n      add\n        /* \"#utility.yul\":2989:3083   */\n      tag_38\n      jump\t// in\n    tag_84:\n        /* \"#utility.yul\":2980:3083   */\n      swap2\n      pop\n        /* \"#utility.yul\":2796:3089   */\n      pop\n        /* \"#utility.yul\":2719:3089   */\n      swap3\n      swap2\n      pop\n      pop\n      jump\t// out\n        /* \"#utility.yul\":3095:3634   */\n    tag_5:\n        /* \"#utility.yul\":3179:3185   */\n      0x00\n        /* \"#utility.yul\":3228:3230   */\n      0x20\n        /* \"#utility.yul\":3216:3225   */\n      dup3\n        /* \"#utility.yul\":3207:3214   */\n      dup5\n        /* \"#utility.yul\":3203:3226   */\n      sub\n        /* \"#utility.yul\":3199:3231   */\n      slt\n        /* \"#utility.yul\":3196:3315   */\n      iszero\n      tag_86\n      jumpi\n        /* \"#utility.yul\":3234:3313   */\n      tag_87\n      tag_27\n      jump\t// in\n    tag_87:\n        /* \"#utility.yul\":3196:3315   */\n    tag_86:\n        /* \"#utility.yul\":3382:3383   */\n      0x00\n        /* \"#utility.yul\":3371:3380   */\n      dup3\n        /* \"#utility.yul\":3367:3384   */\n      add\n        /* \"#utility.yul\":3354:3385   */\n      calldataload\n        /* \"#utility.yul\":3412:3430   */\n      0xffffffffffffffff\n        /* \"#utility.yul\":3404:3410   */\n      dup2\n        /* \"#utility.yul\":3401:3431   */\n      gt\n        /* \"#utility.yul\":3398:3515   */\n      iszero\n      tag_88\n      jumpi\n        /* \"#utility.yul\":3434:3513   */\n      tag_89\n      tag_28\n      jump\t// in\n    tag_89:\n        /* \"#utility.yul\":3398:3515   */\n    tag_88:\n        /* \"#utility.yul\":3539:3617   */\n      tag_90\n        /* \"#utility.yul\":3609:3616   */\n      dup5\n        /* \"#utility.yul\":3600:3606   */\n      dup3\n        /* \"#utility.yul\":3589:3598   */\n      dup6\n        /* \"#utility.yul\":3585:3607   */\n      add\n        /* \"#utility.yul\":3539:3617   */\n      tag_39\n      jump\t// in\n    tag_90:\n        /* \"#utility.yul\":3529:3617   */\n      swap2\n      pop\n        /* \"#utility.yul\":3325:3627   */\n      pop\n        /* \"#utility.yul\":3095:3634   */\n      swap3\n      swap2\n      pop\n      pop\n      jump\t// out\n        /* \"#utility.yul\":3640:3754   */\n    tag_40:\n        /* \"#utility.yul\":3707:3713   */\n      0x00\n        /* \"#utility.yul\":3741:3746   */\n      dup2\n        /* \"#utility.yul\":3735:3747   */\n      mload\n        /* \"#utility.yul\":3725:3747   */\n      swap1\n      pop\n        /* \"#utility.yul\":3640:3754   */\n      swap2\n      swap1\n      pop\n      jump\t// out\n        /* \"#utility.yul\":3760:3952   */\n    tag_41:\n        /* \"#utility.yul\":3867:3878   */\n      0x00\n        /* \"#utility.yul\":3901:3907   */\n      dup3\n        /* \"#utility.yul\":3896:3899   */\n      dup3\n        /* \"#utility.yul\":3889:3908   */\n      mstore\n        /* \"#utility.yul\":3941:3945   */\n      0x20\n        /* \"#utility.yul\":3936:3939   */\n      dup3\n        /* \"#utility.yul\":3932:3946   */\n      add\n        /* \"#utility.yul\":3917:3946   */\n      swap1\n      pop\n        /* \"#utility.yul\":3760:3952   */\n      swap3\n      swap2\n      pop\n      pop\n      jump\t// out\n        /* \"#utility.yul\":3958:4090   */\n    tag_42:\n        /* \"#utility.yul\":4025:4029   */\n      0x00\n        /* \"#utility.yul\":4048:4051   */\n      dup2\n        /* \"#utility.yul\":4040:4051   */\n      swap1\n      pop\n        /* \"#utility.yul\":4078:4082   */\n      0x20\n        /* \"#utility.yul\":4073:4076   */\n      dup3\n        /* \"#utility.yul\":4069:4083   */\n      add\n        /* \"#utility.yul\":4061:4083   */\n      swap1\n      pop\n        /* \"#utility.yul\":3958:4090   */\n      swap2\n      swap1\n      pop\n      jump\t// out\n        /* \"#utility.yul\":4096:4212   */\n    tag_43:\n        /* \"#utility.yul\":4181:4205   */\n      tag_95\n        /* \"#utility.yul\":4199:4204   */\n      dup2\n        /* \"#utility.yul\":4181:4205   */\n      tag_35\n      jump\t// in\n    tag_95:\n        /* \"#utility.yul\":4176:4179   */\n      dup3\n        /* \"#utility.yul\":4169:4206   */\n      mstore\n        /* \"#utility.yul\":4096:4212   */\n      pop\n      pop\n      jump\t// out\n        /* \"#utility.yul\":4218:4413   */\n    tag_44:\n        /* \"#utility.yul\":4295:4305   */\n      0x00\n        /* \"#utility.yul\":4316:4370   */\n      tag_97\n        /* \"#utility.yul\":4366:4369   */\n      dup4\n        /* \"#utility.yul\":4358:4364   */\n      dup4\n        /* \"#utility.yul\":4316:4370   */\n      tag_43\n      jump\t// in\n    tag_97:\n        /* \"#utility.yul\":4402:4406   */\n      0x20\n        /* \"#utility.yul\":4397:4400   */\n      dup4\n        /* \"#utility.yul\":4393:4407   */\n      add\n        /* \"#utility.yul\":4379:4407   */\n      swap1\n      pop\n        /* \"#utility.yul\":4218:4413   */\n      swap3\n      swap2\n      pop\n      pop\n      jump\t// out\n        /* \"#utility.yul\":4419:4532   */\n    tag_45:\n        /* \"#utility.yul\":4489:4493   */\n      0x00\n        /* \"#utility.yul\":4521:4525   */\n      0x20\n        /* \"#utility.yul\":4516:4519   */\n      dup3\n        /* \"#utility.yul\":4512:4526   */\n      add\n        /* \"#utility.yul\":4504:4526   */\n      swap1\n      pop\n        /* \"#utility.yul\":4419:4532   */\n      swap2\n      swap1\n      pop\n      jump\t// out\n        /* \"#utility.yul\":4568:5324   */\n    tag_46:\n        /* \"#utility.yul\":4695:4698   */\n      0x00\n        /* \"#utility.yul\":4724:4778   */\n      tag_100\n        /* \"#utility.yul\":4772:4777   */\n      dup3\n        /* \"#utility.yul\":4724:4778   */\n      tag_40\n      jump\t// in\n    tag_100:\n        /* \"#utility.yul\":4794:4888   */\n      tag_101\n        /* \"#utility.yul\":4881:4887   */\n      dup2\n        /* \"#utility.yul\":4876:4879   */\n      dup6\n        /* \"#utility.yul\":4794:4888   */\n      tag_41\n      jump\t// in\n    tag_101:\n        /* \"#utility.yul\":4787:4888   */\n      swap4\n      pop\n        /* \"#utility.yul\":4912:4968   */\n      tag_102\n        /* \"#utility.yul\":4962:4967   */\n      dup4\n        /* \"#utility.yul\":4912:4968   */\n      tag_42\n      jump\t// in\n    tag_102:\n        /* \"#utility.yul\":4991:4998   */\n      dup1\n        /* \"#utility.yul\":5022:5023   */\n      0x00\n        /* \"#utility.yul\":5007:5299   */\n    tag_103:\n        /* \"#utility.yul\":5032:5038   */\n      dup4\n        /* \"#utility.yul\":5029:5030   */\n      dup2\n        /* \"#utility.yul\":5026:5039   */\n      lt\n        /* \"#utility.yul\":5007:5299   */\n      iszero\n      tag_105\n      jumpi\n        /* \"#utility.yul\":5108:5114   */\n      dup2\n        /* \"#utility.yul\":5102:5115   */\n      mload\n        /* \"#utility.yul\":5135:5206   */\n      tag_106\n        /* \"#utility.yul\":5202:5205   */\n      dup9\n        /* \"#utility.yul\":5187:5200   */\n      dup3\n        /* \"#utility.yul\":5135:5206   */\n      tag_44\n      jump\t// in\n    tag_106:\n        /* \"#utility.yul\":5128:5206   */\n      swap8\n      pop\n        /* \"#utility.yul\":5229:5289   */\n      tag_107\n        /* \"#utility.yul\":5282:5288   */\n      dup4\n        /* \"#utility.yul\":5229:5289   */\n      tag_45\n      jump\t// in\n    tag_107:\n        /* \"#utility.yul\":5219:5289   */\n      swap3\n      pop\n        /* \"#utility.yul\":5067:5299   */\n      pop\n        /* \"#utility.yul\":5054:5055   */\n      0x01\n        /* \"#utility.yul\":5051:5052   */\n      dup2\n        /* \"#utility.yul\":5047:5056   */\n      add\n        /* \"#utility.yul\":5042:5056   */\n      swap1\n      pop\n        /* \"#utility.yul\":5007:5299   */\n      jump(tag_103)\n    tag_105:\n        /* \"#utility.yul\":5011:5025   */\n      pop\n        /* \"#utility.yul\":5315:5318   */\n      dup6\n        /* \"#utility.yul\":5308:5318   */\n      swap4\n      pop\n        /* \"#utility.yul\":4700:5324   */\n      pop\n      pop\n      pop\n        /* \"#utility.yul\":4568:5324   */\n      swap3\n      swap2\n      pop\n      pop\n      jump\t// out\n        /* \"#utility.yul\":5330:5719   */\n    tag_8:\n        /* \"#utility.yul\":5481:5485   */\n      0x00\n        /* \"#utility.yul\":5519:5521   */\n      0x20\n        /* \"#utility.yul\":5508:5517   */\n      dup3\n        /* \"#utility.yul\":5504:5522   */\n      add\n        /* \"#utility.yul\":5496:5522   */\n      swap1\n      pop\n        /* \"#utility.yul\":5568:5577   */\n      dup2\n        /* \"#utility.yul\":5562:5566   */\n      dup2\n        /* \"#utility.yul\":5558:5578   */\n      sub\n        /* \"#utility.yul\":5554:5555   */\n      0x00\n        /* \"#utility.yul\":5543:5552   */\n      dup4\n        /* \"#utility.yul\":5539:5556   */\n      add\n        /* \"#utility.yul\":5532:5579   */\n      mstore\n        /* \"#utility.yul\":5596:5712   */\n      tag_109\n        /* \"#utility.yul\":5707:5711   */\n      dup2\n        /* \"#utility.yul\":5698:5704   */\n      dup5\n        /* \"#utility.yul\":5596:5712   */\n      tag_46\n      jump\t// in\n    tag_109:\n        /* \"#utility.yul\":5588:5712   */\n      swap1\n      pop\n        /* \"#utility.yul\":5330:5719   */\n      swap3\n      swap2\n      pop\n      pop\n      jump\t// out\n        /* \"#utility.yul\":5725:5905   */\n    tag_47:\n        /* \"#utility.yul\":5773:5850   */\n      0x4e487b7100000000000000000000000000000000000000000000000000000000\n        /* \"#utility.yul\":5770:5771   */\n      0x00\n        /* \"#utility.yul\":5763:5851   */\n      mstore\n        /* \"#utility.yul\":5870:5874   */\n      0x11\n        /* \"#utility.yul\":5867:5868   */\n      0x04\n        /* \"#utility.yul\":5860:5875   */\n      mstore\n        /* \"#utility.yul\":5894:5898   */\n      0x24\n        /* \"#utility.yul\":5891:5892   */\n      0x00\n        /* \"#utility.yul\":5884:5899   */\n      revert\n        /* \"#utility.yul\":5911:6102   */\n    tag_11:\n        /* \"#utility.yul\":5951:5955   */\n      0x00\n        /* \"#utility.yul\":5971:5991   */\n      tag_112\n        /* \"#utility.yul\":5989:5990   */\n      dup3\n        /* \"#utility.yul\":5971:5991   */\n      tag_35\n      jump\t// in\n    tag_112:\n        /* \"#utility.yul\":5966:5991   */\n      swap2\n      pop\n        /* \"#utility.yul\":6005:6025   */\n      tag_113\n        /* \"#utility.yul\":6023:6024   */\n      dup4\n        /* \"#utility.yul\":6005:6025   */\n      tag_35\n      jump\t// in\n    tag_113:\n        /* \"#utility.yul\":6000:6025   */\n      swap3\n      pop\n        /* \"#utility.yul\":6044:6045   */\n      dup3\n        /* \"#utility.yul\":6041:6042   */\n      dup3\n        /* \"#utility.yul\":6038:6046   */\n      lt\n        /* \"#utility.yul\":6035:6069   */\n      iszero\n      tag_114\n      jumpi\n        /* \"#utility.yul\":6049:6067   */\n      tag_115\n      tag_47\n      jump\t// in\n    tag_115:\n        /* \"#utility.yul\":6035:6069   */\n    tag_114:\n        /* \"#utility.yul\":6094:6095   */\n      dup3\n        /* \"#utility.yul\":6091:6092   */\n      dup3\n        /* \"#utility.yul\":6087:6096   */\n      sub\n        /* \"#utility.yul\":6079:6096   */\n      swap1\n      pop\n        /* \"#utility.yul\":5911:6102   */\n      swap3\n      swap2\n      pop\n      pop\n      jump\t// out\n        /* \"#utility.yul\":6108:6413   */\n    tag_20:\n        /* \"#utility.yul\":6148:6151   */\n      0x00\n        /* \"#utility.yul\":6167:6187   */\n      tag_117\n        /* \"#utility.yul\":6185:6186   */\n      dup3\n        /* \"#utility.yul\":6167:6187   */\n      tag_35\n      jump\t// in\n    tag_117:\n        /* \"#utility.yul\":6162:6187   */\n      swap2\n      pop\n        /* \"#utility.yul\":6201:6221   */\n      tag_118\n        /* \"#utility.yul\":6219:6220   */\n      dup4\n        /* \"#utility.yul\":6201:6221   */\n      tag_35\n      jump\t// in\n    tag_118:\n        /* \"#utility.yul\":6196:6221   */\n      swap3\n      pop\n        /* \"#utility.yul\":6355:6356   */\n      dup3\n        /* \"#utility.yul\":6287:6353   */\n      0xffffffffffffffffffffffffffffffffffffffffffffffffffffffffffffffff\n        /* \"#utility.yul\":6283:6357   */\n      sub\n        /* \"#utility.yul\":6280:6281   */\n      dup3\n        /* \"#utility.yul\":6277:6358   */\n      gt\n        /* \"#utility.yul\":6274:6381   */\n      iszero\n      tag_119\n      jumpi\n        /* \"#utility.yul\":6361:6379   */\n      tag_120\n      tag_47\n      jump\t// in\n    tag_120:\n        /* \"#utility.yul\":6274:6381   */\n    tag_119:\n        /* \"#utility.yul\":6405:6406   */\n      dup3\n        /* \"#utility.yul\":6402:6403   */\n      dup3\n        /* \"#utility.yul\":6398:6407   */\n      add\n        /* \"#utility.yul\":6391:6407   */\n      swap1\n      pop\n        /* \"#utility.yul\":6108:6413   */\n      swap3\n      swap2\n      pop\n      pop\n      jump\t// out\n        /* \"#utility.yul\":6419:6599   */\n    tag_23:\n        /* \"#utility.yul\":6467:6544   */\n      0x4e487b7100000000000000000000000000000000000000000000000000000000\n        /* \"#utility.yul\":6464:6465   */\n      0x00\n        /* \"#utility.yul\":6457:6545   */\n      mstore\n        /* \"#utility.yul\":6564:6568   */\n      0x32\n        /* \"#utility.yul\":6561:6562   */\n      0x04\n        /* \"#utility.yul\":6554:6569   */\n      mstore\n        /* \"#utility.yul\":6588:6592   */\n      0x24\n        /* \"#utility.yul\":6585:6586   */\n      0x00\n        /* \"#utility.yul\":6578:6593   */\n      revert\n\n    auxdata: 0xa26469706673582212200d228d3b2d29d679d343a6197e712d90d100d63fe94255f94565148f0c178b3b64736f6c634300080a0033\n}\n",
				"bytecode": {
					"linkReferences": {},
					"object": "610517610053600b82828239805160001a607314610046577f4e487b7100000000000000000000000000000000000000000000000000000000600052600060045260246000fd5b30600052607381538281f3fe73000000000000000000000000000000000000000030146080604052600436106100355760003560e01c80631e2cdcf71461003a575b600080fd5b610054600480360381019061004f91906102d0565b61006a565b60405161006191906103d7565b60405180910390f35b606060006001835161007c9190610428565b67ffffffffffffffff81111561009557610094610157565b5b6040519080825280602002602001820160405280156100c35781602001602082028036833780820191505090505b50905060005b815181101561012357836001826100e0919061045c565b815181106100f1576100f06104b2565b5b602002602001015182828151811061010c5761010b6104b2565b5b6020026020010181815250508060010190506100c9565b5080915050919050565b6000604051905090565b600080fd5b600080fd5b600080fd5b6000601f19601f8301169050919050565b7f4e487b7100000000000000000000000000000000000000000000000000000000600052604160045260246000fd5b61018f82610146565b810181811067ffffffffffffffff821117156101ae576101ad610157565b5b80604052505050565b60006101c161012d565b90506101cd8282610186565b919050565b600067ffffffffffffffff8211156101ed576101ec610157565b5b602082029050602081019050919050565b600080fd5b6000819050919050565b61021681610203565b811461022157600080fd5b50565b6000813590506102338161020d565b92915050565b600061024c610247846101d2565b6101b7565b9050808382526020820190506020840283018581111561026f5761026e6101fe565b5b835b8181101561029857806102848882610224565b845260208401935050602081019050610271565b5050509392505050565b600082601f8301126102b7576102b6610141565b5b81356102c7848260208601610239565b91505092915050565b6000602082840312156102e6576102e5610137565b5b600082013567ffffffffffffffff8111156103045761030361013c565b5b610310848285016102a2565b91505092915050565b600081519050919050565b600082825260208201905092915050565b6000819050602082019050919050565b61034e81610203565b82525050565b60006103608383610345565b60208301905092915050565b6000602082019050919050565b600061038482610319565b61038e8185610324565b935061039983610335565b8060005b838110156103ca5781516103b18882610354565b97506103bc8361036c565b92505060018101905061039d565b5085935050505092915050565b600060208201905081810360008301526103f18184610379565b905092915050565b7f4e487b7100000000000000000000000000000000000000000000000000000000600052601160045260246000fd5b600061043382610203565b915061043e83610203565b925082821015610451576104506103f9565b5b828203905092915050565b600061046782610203565b915061047283610203565b9250827fffffffffffffffffffffffffffffffffffffffffffffffffffffffffffffffff038211156104a7576104a66103f9565b5b828201905092915050565b7f4e487b7100000000000000000000000000000000000000000000000000000000600052603260045260246000fdfea26469706673582212200d228d3b2d29d679d343a6197e712d90d100d63fe94255f94565148f0c178b3b64736f6c634300080a0033",
					"opcodes": "PUSH2 0x517 PUSH2 0x53 PUSH1 0xB DUP3 DUP3 DUP3 CODECOPY DUP1 MLOAD PUSH1 0x0 BYTE PUSH1 0x73 EQ PUSH2 0x46 JUMPI PUSH32 0x4E487B7100000000000000000000000000000000000000000000000000000000 PUSH1 0x0 MSTORE PUSH1 0x0 PUSH1 0x4 MSTORE PUSH1 0x24 PUSH1 0x0 REVERT JUMPDEST ADDRESS PUSH1 0x0 MSTORE PUSH1 0x73 DUP2 MSTORE8 DUP3 DUP2 RETURN INVALID PUSH20 0x0 ADDRESS EQ PUSH1 0x80 PUSH1 0x40 MSTORE PUSH1 0x4 CALLDATASIZE LT PUSH2 0x35 JUMPI PUSH1 0x0 CALLDATALOAD PUSH1 0xE0 SHR DUP1 PUSH4 0x1E2CDCF7 EQ PUSH2 0x3A JUMPI JUMPDEST PUSH1 0x0 DUP1 REVERT JUMPDEST PUSH2 0x54 PUSH1 0x4 DUP1 CALLDATASIZE SUB DUP2 ADD SWAP1 PUSH2 0x4F SWAP2 SWAP1 PUSH2 0x2D0 JUMP JUMPDEST PUSH2 0x6A JUMP JUMPDEST PUSH1 0x40 MLOAD PUSH2 0x61 SWAP2 SWAP1 PUSH2 0x3D7 JUMP JUMPDEST PUSH1 0x40 MLOAD DUP1 SWAP2 SUB SWAP1 RETURN JUMPDEST PUSH1 0x60 PUSH1 0x0 PUSH1 0x1 DUP4 MLOAD PUSH2 0x7C SWAP2 SWAP1 PUSH2 0x428 JUMP JUMPDEST PUSH8 0xFFFFFFFFFFFFFFFF DUP2 GT ISZERO PUSH2 0x95 JUMPI PUSH2 0x94 PUSH2 0x157 JUMP JUMPDEST JUMPDEST PUSH1 0x40 MLOAD SWAP1 DUP1 DUP3 MSTORE DUP1 PUSH1 0x20 MUL PUSH1 0x20 ADD DUP3 ADD PUSH1 0x40 MSTORE DUP1 ISZERO PUSH2 0xC3 JUMPI DUP2 PUSH1 0x20 ADD PUSH1 0x20 DUP3 MUL DUP1 CALLDATASIZE DUP4 CALLDATACOPY DUP1 DUP3 ADD SWAP2 POP POP SWAP1 POP JUMPDEST POP SWAP1 POP PUSH1 0x0 JUMPDEST DUP2 MLOAD DUP2 LT ISZERO PUSH2 0x123 JUMPI DUP4 PUSH1 0x1 DUP3 PUSH2 0xE0 SWAP2 SWAP1 PUSH2 0x45C JUMP JUMPDEST DUP2 MLOAD DUP2 LT PUSH2 0xF1 JUMPI PUSH2 0xF0 PUSH2 0x4B2 JUMP JUMPDEST JUMPDEST PUSH1 0x20 MUL PUSH1 0x20 ADD ADD MLOAD DUP3 DUP3 DUP2 MLOAD DUP2 LT PUSH2 0x10C JUMPI PUSH2 0x10B PUSH2 0x4B2 JUMP JUMPDEST JUMPDEST PUSH1 0x20 MUL PUSH1 0x20 ADD ADD DUP2 DUP2 MSTORE POP POP DUP1 PUSH1 0x1 ADD SWAP1 POP PUSH2 0xC9 JUMP JUMPDEST POP DUP1 SWAP2 POP POP SWAP2 SWAP1 POP JUMP JUMPDEST PUSH1 0x0 PUSH1 0x40 MLOAD SWAP1 POP SWAP1 JUMP JUMPDEST PUSH1 0x0 DUP1 REVERT JUMPDEST PUSH1 0x0 DUP1 REVERT JUMPDEST PUSH1 0x0 DUP1 REVERT JUMPDEST PUSH1 0x0 PUSH1 0x1F NOT PUSH1 0x1F DUP4 ADD AND SWAP1 POP SWAP2 SWAP1 POP JUMP JUMPDEST PUSH32 0x4E487B7100000000000000000000000000000000000000000000000000000000 PUSH1 0x0 MSTORE PUSH1 0x41 PUSH1 0x4 MSTORE PUSH1 0x24 PUSH1 0x0 REVERT JUMPDEST PUSH2 0x18F DUP3 PUSH2 0x146 JUMP JUMPDEST DUP2 ADD DUP2 DUP2 LT PUSH8 0xFFFFFFFFFFFFFFFF DUP3 GT OR ISZERO PUSH2 0x1AE JUMPI PUSH2 0x1AD PUSH2 0x157 JUMP JUMPDEST JUMPDEST DUP1 PUSH1 0x40 MSTORE POP POP POP JUMP JUMPDEST PUSH1 0x0 PUSH2 0x1C1 PUSH2 0x12D JUMP JUMPDEST SWAP1 POP PUSH2 0x1CD DUP3 DUP3 PUSH2 0x186 JUMP JUMPDEST SWAP2 SWAP1 POP JUMP JUMPDEST PUSH1 0x0 PUSH8 0xFFFFFFFFFFFFFFFF DUP3 GT ISZERO PUSH2 0x1ED JUMPI PUSH2 0x1EC PUSH2 0x157 JUMP JUMPDEST JUMPDEST PUSH1 0x20 DUP3 MUL SWAP1 POP PUSH1 0x20 DUP2 ADD SWAP1 POP SWAP2 SWAP1 POP JUMP JUMPDEST PUSH1 0x0 DUP1 REVERT JUMPDEST PUSH1 0x0 DUP2 SWAP1 POP SWAP2 SWAP1 POP JUMP JUMPDEST PUSH2 0x216 DUP2 PUSH2 0x203 JUMP JUMPDEST DUP2 EQ PUSH2 0x221 JUMPI PUSH1 0x0 DUP1 REVERT JUMPDEST POP JUMP JUMPDEST PUSH1 0x0 DUP2 CALLDATALOAD SWAP1 POP PUSH2 0x233 DUP2 PUSH2 0x20D JUMP JUMPDEST SWAP3 SWAP2 POP POP JUMP JUMPDEST PUSH1 0x0 PUSH2 0x24C PUSH2 0x247 DUP5 PUSH2 0x1D2 JUMP JUMPDEST PUSH2 0x1B7 JUMP JUMPDEST SWAP1 POP DUP1 DUP4 DUP3 MSTORE PUSH1 0x20 DUP3 ADD SWAP1 POP PUSH1 0x20 DUP5 MUL DUP4 ADD DUP6 DUP2 GT ISZERO PUSH2 0x26F JUMPI PUSH2 0x26E PUSH2 0x1FE JUMP JUMPDEST JUMPDEST DUP4 JUMPDEST DUP2 DUP2 LT ISZERO PUSH2 0x298 JUMPI DUP1 PUSH2 0x284 DUP9 DUP3 PUSH2 0x224 JUMP JUMPDEST DUP5 MSTORE PUSH1 0x20 DUP5 ADD SWAP4 POP POP PUSH1 0x20 DUP2 ADD SWAP1 POP PUSH2 0x271 JUMP JUMPDEST POP POP POP SWAP4 SWAP3 POP POP POP JUMP JUMPDEST PUSH1 0x0 DUP3 PUSH1 0x1F DUP4 ADD SLT PUSH2 0x2B7 JUMPI PUSH2 0x2B6 PUSH2 0x141 JUMP JUMPDEST JUMPDEST DUP2 CALLDATALOAD PUSH2 0x2C7 DUP5 DUP3 PUSH1 0x20 DUP7 ADD PUSH2 0x239 JUMP JUMPDEST SWAP2 POP POP SWAP3 SWAP2 POP POP JUMP JUMPDEST PUSH1 0x0 PUSH1 0x20 DUP3 DUP5 SUB SLT ISZERO PUSH2 0x2E6 JUMPI PUSH2 0x2E5 PUSH2 0x137 JUMP JUMPDEST JUMPDEST PUSH1 0x0 DUP3 ADD CALLDATALOAD PUSH8 0xFFFFFFFFFFFFFFFF DUP2 GT ISZERO PUSH2 0x304 JUMPI PUSH2 0x303 PUSH2 0x13C JUMP JUMPDEST JUMPDEST PUSH2 0x310 DUP5 DUP3 DUP6 ADD PUSH2 0x2A2 JUMP JUMPDEST SWAP2 POP POP SWAP3 SWAP2 POP POP JUMP JUMPDEST PUSH1 0x0 DUP2 MLOAD SWAP1 POP SWAP2 SWAP1 POP JUMP JUMPDEST PUSH1 0x0 DUP3 DUP3 MSTORE PUSH1 0x20 DUP3 ADD SWAP1 POP SWAP3 SWAP2 POP POP JUMP JUMPDEST PUSH1 0x0 DUP2 SWAP1 POP PUSH1 0x20 DUP3 ADD SWAP1 POP SWAP2 SWAP1 POP JUMP JUMPDEST PUSH2 0x34E DUP2 PUSH2 0x203 JUMP JUMPDEST DUP3 MSTORE POP POP JUMP JUMPDEST PUSH1 0x0 PUSH2 0x360 DUP4 DUP4 PUSH2 0x345 JUMP JUMPDEST PUSH1 0x20 DUP4 ADD SWAP1 POP SWAP3 SWAP2 POP POP JUMP JUMPDEST PUSH1 0x0 PUSH1 0x20 DUP3 ADD SWAP1 POP SWAP2 SWAP1 POP JUMP JUMPDEST PUSH1 0x0 PUSH2 0x384 DUP3 PUSH2 0x319 JUMP JUMPDEST PUSH2 0x38E DUP2 DUP6 PUSH2 0x324 JUMP JUMPDEST SWAP4 POP PUSH2 0x399 DUP4 PUSH2 0x335 JUMP JUMPDEST DUP1 PUSH1 0x0 JUMPDEST DUP4 DUP2 LT ISZERO PUSH2 0x3CA JUMPI DUP2 MLOAD PUSH2 0x3B1 DUP9 DUP3 PUSH2 0x354 JUMP JUMPDEST SWAP8 POP PUSH2 0x3BC DUP4 PUSH2 0x36C JUMP JUMPDEST SWAP3 POP POP PUSH1 0x1 DUP2 ADD SWAP1 POP PUSH2 0x39D JUMP JUMPDEST POP DUP6 SWAP4 POP POP POP POP SWAP3 SWAP2 POP POP JUMP JUMPDEST PUSH1 0x0 PUSH1 0x20 DUP3 ADD SWAP1 POP DUP2 DUP2 SUB PUSH1 0x0 DUP4 ADD MSTORE PUSH2 0x3F1 DUP2 DUP5 PUSH2 0x379 JUMP JUMPDEST SWAP1 POP SWAP3 SWAP2 POP POP JUMP JUMPDEST PUSH32 0x4E487B7100000000000000000000000000000000000000000000000000000000 PUSH1 0x0 MSTORE PUSH1 0x11 PUSH1 0x4 MSTORE PUSH1 0x24 PUSH1 0x0 REVERT JUMPDEST PUSH1 0x0 PUSH2 0x433 DUP3 PUSH2 0x203 JUMP JUMPDEST SWAP2 POP PUSH2 0x43E DUP4 PUSH2 0x203 JUMP JUMPDEST SWAP3 POP DUP3 DUP3 LT ISZERO PUSH2 0x451 JUMPI PUSH2 0x450 PUSH2 0x3F9 JUMP JUMPDEST JUMPDEST DUP3 DUP3 SUB SWAP1 POP SWAP3 SWAP2 POP POP JUMP JUMPDEST PUSH1 0x0 PUSH2 0x467 DUP3 PUSH2 0x203 JUMP JUMPDEST SWAP2 POP PUSH2 0x472 DUP4 PUSH2 0x203 JUMP JUMPDEST SWAP3 POP DUP3 PUSH32 0xFFFFFFFFFFFFFFFFFFFFFFFFFFFFFFFFFFFFFFFFFFFFFFFFFFFFFFFFFFFFFFFF SUB DUP3 GT ISZERO PUSH2 0x4A7 JUMPI PUSH2 0x4A6 PUSH2 0x3F9 JUMP JUMPDEST JUMPDEST DUP3 DUP3 ADD SWAP1 POP SWAP3 SWAP2 POP POP JUMP JUMPDEST PUSH32 0x4E487B7100000000000000000000000000000000000000000000000000000000 PUSH1 0x0 MSTORE PUSH1 0x32 PUSH1 0x4 MSTORE PUSH1 0x24 PUSH1 0x0 REVERT INVALID LOG2 PUSH5 0x6970667358 0x22 SLT KECCAK256 0xD 0x22 DUP14 EXTCODESIZE 0x2D 0x29 0xD6 PUSH26 0xD343A6197E712D90D100D63FE94255F94565148F0C178B3B6473 PUSH16 0x6C634300080A00330000000000000000 "
				},
				"gasEstimates": {
					"creation": {
						"codeDepositCost": "260600",
						"executionCost": "328",
						"totalCost": "260928"
					},
					"external": {
						"_removeFirstItem(uint256[])": "infinite"
					},
					"internal": {
						"_checkBinSequence(uint24[] calldata)": "infinite",
						"_findIndexAndRemove(uint256[] memory,uint256)": "infinite"
					}
				},
				"methodIdentifiers": {
					"_removeFirstItem(uint256[])": "1e2cdcf7"
				}
			},
			"storageLayout": {
				"storage": [],
				"types": null
			},
			"userdoc": {
				"kind": "user",
				"methods": {},
				"version": 1
			}
		}
	}
}