{
	"Midas_testV1.2/src/libraries/PositionHelper.sol": {
		"PositionHelper": {
			"abi": [
				{
					"inputs": [],
					"name": "MidasPair__BinSequenceWrong",
					"type": "error"
				},
				{
					"inputs": [
						{
							"internalType": "uint128[]",
							"name": "arr",
							"type": "uint128[]"
						}
					],
					"name": "_removeFirstItem",
					"outputs": [
						{
							"internalType": "uint128[]",
							"name": "",
							"type": "uint128[]"
						}
					],
					"stateMutability": "pure",
					"type": "function"
				}
			],
			"devdoc": {
				"kind": "dev",
				"methods": {},
				"version": 1
			},
			"evm": {
				"assembly": "    /* \"Midas_testV1.2/src/libraries/PositionHelper.sol\":58:1504  library PositionHelper {... */\n  dataSize(sub_0)\n  dataOffset(sub_0)\n  0x0b\n  dup3\n  dup3\n  dup3\n  codecopy\n  dup1\n  mload\n  0x00\n  byte\n  0x73\n  eq\n  tag_1\n  jumpi\n  mstore(0x00, shl(0xe0, 0x4e487b71))\n  mstore(0x04, 0x00)\n  revert(0x00, 0x24)\ntag_1:\n  mstore(0x00, address)\n  0x73\n  dup2\n  mstore8\n  dup3\n  dup2\n  return\nstop\n\nsub_0: assembly {\n        /* \"Midas_testV1.2/src/libraries/PositionHelper.sol\":58:1504  library PositionHelper {... */\n      eq(address, deployTimeAddress())\n      mstore(0x40, 0x80)\n      jumpi(tag_1, lt(calldatasize, 0x04))\n      shr(0xe0, calldataload(0x00))\n      dup1\n      0x61018a01\n      eq\n      tag_2\n      jumpi\n    tag_1:\n      0x00\n      dup1\n      revert\n        /* \"Midas_testV1.2/src/libraries/PositionHelper.sol\":585:946  function _removeFirstItem(... */\n    tag_2:\n      tag_3\n      tag_4\n      calldatasize\n      0x04\n      tag_5\n      jump\t// in\n    tag_4:\n      tag_6\n      jump\t// in\n    tag_3:\n      mload(0x40)\n      tag_7\n      swap2\n      swap1\n      tag_8\n      jump\t// in\n    tag_7:\n      mload(0x40)\n      dup1\n      swap2\n      sub\n      swap1\n      return\n    tag_6:\n        /* \"Midas_testV1.2/src/libraries/PositionHelper.sol\":668:684  uint128[] memory */\n      0x60\n        /* \"Midas_testV1.2/src/libraries/PositionHelper.sol\":696:719  uint128[] memory newArr */\n      0x00\n        /* \"Midas_testV1.2/src/libraries/PositionHelper.sol\":749:750  1 */\n      0x01\n        /* \"Midas_testV1.2/src/libraries/PositionHelper.sol\":736:739  arr */\n      dup4\n        /* \"Midas_testV1.2/src/libraries/PositionHelper.sol\":736:746  arr.length */\n      mload\n        /* \"Midas_testV1.2/src/libraries/PositionHelper.sol\":736:750  arr.length - 1 */\n      tag_10\n      swap2\n      swap1\n      tag_11\n      jump\t// in\n    tag_10:\n        /* \"Midas_testV1.2/src/libraries/PositionHelper.sol\":722:751  new uint128[](arr.length - 1) */\n      0xffffffffffffffff\n      dup2\n      gt\n      iszero\n      tag_13\n      jumpi\n      tag_13\n      tag_14\n      jump\t// in\n    tag_13:\n      mload(0x40)\n      swap1\n      dup1\n      dup3\n      mstore\n      dup1\n      0x20\n      mul\n      0x20\n      add\n      dup3\n      add\n      0x40\n      mstore\n      dup1\n      iszero\n      tag_15\n      jumpi\n      dup2\n      0x20\n      add\n      0x20\n      dup3\n      mul\n      dup1\n      calldatasize\n      dup4\n      calldatacopy\n      add\n      swap1\n      pop\n    tag_15:\n      pop\n        /* \"Midas_testV1.2/src/libraries/PositionHelper.sol\":696:751  uint128[] memory newArr = new uint128[](arr.length - 1) */\n      swap1\n      pop\n        /* \"Midas_testV1.2/src/libraries/PositionHelper.sol\":766:772  uint i */\n      0x00\n        /* \"Midas_testV1.2/src/libraries/PositionHelper.sol\":761:917  for (uint i ; i < newArr.length; ) {... */\n    tag_16:\n        /* \"Midas_testV1.2/src/libraries/PositionHelper.sol\":779:785  newArr */\n      dup2\n        /* \"Midas_testV1.2/src/libraries/PositionHelper.sol\":779:792  newArr.length */\n      mload\n        /* \"Midas_testV1.2/src/libraries/PositionHelper.sol\":775:776  i */\n      dup2\n        /* \"Midas_testV1.2/src/libraries/PositionHelper.sol\":775:792  i < newArr.length */\n      lt\n        /* \"Midas_testV1.2/src/libraries/PositionHelper.sol\":761:917  for (uint i ; i < newArr.length; ) {... */\n      iszero\n      tag_17\n      jumpi\n        /* \"Midas_testV1.2/src/libraries/PositionHelper.sol\":826:829  arr */\n      dup4\n        /* \"Midas_testV1.2/src/libraries/PositionHelper.sol\":830:835  i + 1 */\n      tag_19\n        /* \"Midas_testV1.2/src/libraries/PositionHelper.sol\":830:831  i */\n      dup3\n        /* \"Midas_testV1.2/src/libraries/PositionHelper.sol\":834:835  1 */\n      0x01\n        /* \"Midas_testV1.2/src/libraries/PositionHelper.sol\":830:835  i + 1 */\n      tag_20\n      jump\t// in\n    tag_19:\n        /* \"Midas_testV1.2/src/libraries/PositionHelper.sol\":826:836  arr[i + 1] */\n      dup2\n      mload\n      dup2\n      lt\n      tag_22\n      jumpi\n      tag_22\n      tag_23\n      jump\t// in\n    tag_22:\n      0x20\n      mul\n      0x20\n      add\n      add\n      mload\n        /* \"Midas_testV1.2/src/libraries/PositionHelper.sol\":814:820  newArr */\n      dup3\n        /* \"Midas_testV1.2/src/libraries/PositionHelper.sol\":821:822  i */\n      dup3\n        /* \"Midas_testV1.2/src/libraries/PositionHelper.sol\":814:823  newArr[i] */\n      dup2\n      mload\n      dup2\n      lt\n      tag_25\n      jumpi\n      tag_25\n      tag_23\n      jump\t// in\n    tag_25:\n      sub(shl(0x80, 0x01), 0x01)\n        /* \"Midas_testV1.2/src/libraries/PositionHelper.sol\":814:836  newArr[i] = arr[i + 1] */\n      swap1\n      swap3\n      and\n        /* \"Midas_testV1.2/src/libraries/PositionHelper.sol\":814:823  newArr[i] */\n      0x20\n      swap3\n      dup4\n      mul\n      swap2\n      swap1\n      swap2\n      add\n      swap1\n      swap2\n      add\n        /* \"Midas_testV1.2/src/libraries/PositionHelper.sol\":814:836  newArr[i] = arr[i + 1] */\n      mstore\n        /* \"Midas_testV1.2/src/libraries/PositionHelper.sol\":885:888  ++i */\n      0x01\n      add\n        /* \"Midas_testV1.2/src/libraries/PositionHelper.sol\":761:917  for (uint i ; i < newArr.length; ) {... */\n      jump(tag_16)\n    tag_17:\n      pop\n        /* \"Midas_testV1.2/src/libraries/PositionHelper.sol\":933:939  newArr */\n      swap3\n        /* \"Midas_testV1.2/src/libraries/PositionHelper.sol\":585:946  function _removeFirstItem(... */\n      swap2\n      pop\n      pop\n      jump\t// out\n        /* \"#utility.yul\":14:141   */\n    tag_14:\n        /* \"#utility.yul\":75:85   */\n      0x4e487b71\n        /* \"#utility.yul\":70:73   */\n      0xe0\n        /* \"#utility.yul\":66:86   */\n      shl\n        /* \"#utility.yul\":63:64   */\n      0x00\n        /* \"#utility.yul\":56:87   */\n      mstore\n        /* \"#utility.yul\":106:110   */\n      0x41\n        /* \"#utility.yul\":103:104   */\n      0x04\n        /* \"#utility.yul\":96:111   */\n      mstore\n        /* \"#utility.yul\":130:134   */\n      0x24\n        /* \"#utility.yul\":127:128   */\n      0x00\n        /* \"#utility.yul\":120:135   */\n      revert\n        /* \"#utility.yul\":146:319   */\n    tag_26:\n        /* \"#utility.yul\":214:234   */\n      dup1\n      calldataload\n      sub(shl(0x80, 0x01), 0x01)\n        /* \"#utility.yul\":263:294   */\n      dup2\n      and\n        /* \"#utility.yul\":253:295   */\n      dup2\n      eq\n        /* \"#utility.yul\":243:313   */\n      tag_31\n      jumpi\n        /* \"#utility.yul\":309:310   */\n      0x00\n        /* \"#utility.yul\":306:307   */\n      dup1\n        /* \"#utility.yul\":299:311   */\n      revert\n        /* \"#utility.yul\":243:313   */\n    tag_31:\n        /* \"#utility.yul\":146:319   */\n      swap2\n      swap1\n      pop\n      jump\t// out\n        /* \"#utility.yul\":324:1445   */\n    tag_5:\n        /* \"#utility.yul\":408:414   */\n      0x00\n        /* \"#utility.yul\":439:441   */\n      0x20\n        /* \"#utility.yul\":482:484   */\n      dup1\n        /* \"#utility.yul\":470:479   */\n      dup4\n        /* \"#utility.yul\":461:468   */\n      dup6\n        /* \"#utility.yul\":457:480   */\n      sub\n        /* \"#utility.yul\":453:485   */\n      slt\n        /* \"#utility.yul\":450:502   */\n      iszero\n      tag_33\n      jumpi\n        /* \"#utility.yul\":498:499   */\n      0x00\n        /* \"#utility.yul\":495:496   */\n      dup1\n        /* \"#utility.yul\":488:500   */\n      revert\n        /* \"#utility.yul\":450:502   */\n    tag_33:\n        /* \"#utility.yul\":538:547   */\n      dup3\n        /* \"#utility.yul\":525:548   */\n      calldataload\n        /* \"#utility.yul\":567:585   */\n      0xffffffffffffffff\n        /* \"#utility.yul\":608:610   */\n      dup1\n        /* \"#utility.yul\":600:606   */\n      dup3\n        /* \"#utility.yul\":597:611   */\n      gt\n        /* \"#utility.yul\":594:628   */\n      iszero\n      tag_34\n      jumpi\n        /* \"#utility.yul\":624:625   */\n      0x00\n        /* \"#utility.yul\":621:622   */\n      dup1\n        /* \"#utility.yul\":614:626   */\n      revert\n        /* \"#utility.yul\":594:628   */\n    tag_34:\n        /* \"#utility.yul\":662:668   */\n      dup2\n        /* \"#utility.yul\":651:660   */\n      dup6\n        /* \"#utility.yul\":647:669   */\n      add\n        /* \"#utility.yul\":637:669   */\n      swap2\n      pop\n        /* \"#utility.yul\":707:714   */\n      dup6\n        /* \"#utility.yul\":700:704   */\n      0x1f\n        /* \"#utility.yul\":696:698   */\n      dup4\n        /* \"#utility.yul\":692:705   */\n      add\n        /* \"#utility.yul\":688:715   */\n      slt\n        /* \"#utility.yul\":678:733   */\n      tag_35\n      jumpi\n        /* \"#utility.yul\":729:730   */\n      0x00\n        /* \"#utility.yul\":726:727   */\n      dup1\n        /* \"#utility.yul\":719:731   */\n      revert\n        /* \"#utility.yul\":678:733   */\n    tag_35:\n        /* \"#utility.yul\":765:767   */\n      dup2\n        /* \"#utility.yul\":752:768   */\n      calldataload\n        /* \"#utility.yul\":787:789   */\n      dup2\n        /* \"#utility.yul\":783:785   */\n      dup2\n        /* \"#utility.yul\":780:790   */\n      gt\n        /* \"#utility.yul\":777:813   */\n      iszero\n      tag_37\n      jumpi\n        /* \"#utility.yul\":793:811   */\n      tag_37\n      tag_14\n      jump\t// in\n    tag_37:\n        /* \"#utility.yul\":839:841   */\n      dup1\n        /* \"#utility.yul\":836:837   */\n      0x05\n        /* \"#utility.yul\":832:842   */\n      shl\n        /* \"#utility.yul\":871:873   */\n      0x40\n        /* \"#utility.yul\":865:874   */\n      mload\n        /* \"#utility.yul\":934:936   */\n      0x1f\n        /* \"#utility.yul\":930:937   */\n      not\n        /* \"#utility.yul\":925:927   */\n      0x3f\n        /* \"#utility.yul\":921:923   */\n      dup4\n        /* \"#utility.yul\":917:928   */\n      add\n        /* \"#utility.yul\":913:938   */\n      and\n        /* \"#utility.yul\":905:911   */\n      dup2\n        /* \"#utility.yul\":901:939   */\n      add\n        /* \"#utility.yul\":989:995   */\n      dup2\n        /* \"#utility.yul\":977:987   */\n      dup2\n        /* \"#utility.yul\":974:996   */\n      lt\n        /* \"#utility.yul\":969:971   */\n      dup6\n        /* \"#utility.yul\":957:967   */\n      dup3\n        /* \"#utility.yul\":954:972   */\n      gt\n        /* \"#utility.yul\":951:997   */\n      or\n        /* \"#utility.yul\":948:1020   */\n      iszero\n      tag_39\n      jumpi\n        /* \"#utility.yul\":1000:1018   */\n      tag_39\n      tag_14\n      jump\t// in\n    tag_39:\n        /* \"#utility.yul\":1036:1038   */\n      0x40\n        /* \"#utility.yul\":1029:1051   */\n      mstore\n        /* \"#utility.yul\":1086:1104   */\n      swap2\n      dup3\n      mstore\n        /* \"#utility.yul\":1120:1135   */\n      dup5\n      dup3\n      add\n      swap3\n      pop\n        /* \"#utility.yul\":1162:1173   */\n      dup4\n      dup2\n      add\n        /* \"#utility.yul\":1158:1178   */\n      dup6\n      add\n      swap2\n        /* \"#utility.yul\":1190:1209   */\n      dup9\n      dup4\n      gt\n        /* \"#utility.yul\":1187:1226   */\n      iszero\n      tag_40\n      jumpi\n        /* \"#utility.yul\":1222:1223   */\n      0x00\n        /* \"#utility.yul\":1219:1220   */\n      dup1\n        /* \"#utility.yul\":1212:1224   */\n      revert\n        /* \"#utility.yul\":1187:1226   */\n    tag_40:\n        /* \"#utility.yul\":1246:1257   */\n      swap4\n      dup6\n      add\n      swap4\n        /* \"#utility.yul\":1266:1414   */\n    tag_41:\n        /* \"#utility.yul\":1282:1288   */\n      dup3\n        /* \"#utility.yul\":1277:1280   */\n      dup6\n        /* \"#utility.yul\":1274:1289   */\n      lt\n        /* \"#utility.yul\":1266:1414   */\n      iszero\n      tag_43\n      jumpi\n        /* \"#utility.yul\":1348:1371   */\n      tag_44\n        /* \"#utility.yul\":1367:1370   */\n      dup6\n        /* \"#utility.yul\":1348:1371   */\n      tag_26\n      jump\t// in\n    tag_44:\n        /* \"#utility.yul\":1336:1372   */\n      dup5\n      mstore\n        /* \"#utility.yul\":1299:1311   */\n      swap4\n      dup6\n      add\n      swap4\n        /* \"#utility.yul\":1392:1404   */\n      swap3\n      dup6\n      add\n      swap3\n        /* \"#utility.yul\":1266:1414   */\n      jump(tag_41)\n    tag_43:\n        /* \"#utility.yul\":1433:1439   */\n      swap9\n        /* \"#utility.yul\":324:1445   */\n      swap8\n      pop\n      pop\n      pop\n      pop\n      pop\n      pop\n      pop\n      pop\n      jump\t// out\n        /* \"#utility.yul\":1450:2116   */\n    tag_8:\n        /* \"#utility.yul\":1629:1631   */\n      0x20\n        /* \"#utility.yul\":1681:1702   */\n      dup1\n      dup3\n      mstore\n        /* \"#utility.yul\":1751:1764   */\n      dup3\n      mload\n        /* \"#utility.yul\":1654:1672   */\n      dup3\n      dup3\n      add\n        /* \"#utility.yul\":1773:1795   */\n      dup2\n      swap1\n      mstore\n        /* \"#utility.yul\":1600:1604   */\n      0x00\n      swap2\n        /* \"#utility.yul\":1629:1631   */\n      swap1\n        /* \"#utility.yul\":1852:1867   */\n      dup5\n      dup3\n      add\n      swap1\n        /* \"#utility.yul\":1826:1828   */\n      0x40\n        /* \"#utility.yul\":1811:1829   */\n      dup6\n      add\n      swap1\n        /* \"#utility.yul\":1600:1604   */\n      dup5\n        /* \"#utility.yul\":1895:2090   */\n    tag_46:\n        /* \"#utility.yul\":1909:1915   */\n      dup2\n        /* \"#utility.yul\":1906:1907   */\n      dup2\n        /* \"#utility.yul\":1903:1916   */\n      lt\n        /* \"#utility.yul\":1895:2090   */\n      iszero\n      tag_48\n      jumpi\n        /* \"#utility.yul\":1974:1987   */\n      dup4\n      mload\n      sub(shl(0x80, 0x01), 0x01)\n        /* \"#utility.yul\":1970:2009   */\n      and\n        /* \"#utility.yul\":1958:2010   */\n      dup4\n      mstore\n        /* \"#utility.yul\":2065:2080   */\n      swap3\n      dup5\n      add\n      swap3\n        /* \"#utility.yul\":2030:2042   */\n      swap2\n      dup5\n      add\n      swap2\n        /* \"#utility.yul\":2006:2007   */\n      0x01\n        /* \"#utility.yul\":1924:1933   */\n      add\n        /* \"#utility.yul\":1895:2090   */\n      jump(tag_46)\n    tag_48:\n      pop\n        /* \"#utility.yul\":2107:2110   */\n      swap1\n      swap7\n        /* \"#utility.yul\":1450:2116   */\n      swap6\n      pop\n      pop\n      pop\n      pop\n      pop\n      pop\n      jump\t// out\n        /* \"#utility.yul\":2121:2248   */\n    tag_27:\n        /* \"#utility.yul\":2182:2192   */\n      0x4e487b71\n        /* \"#utility.yul\":2177:2180   */\n      0xe0\n        /* \"#utility.yul\":2173:2193   */\n      shl\n        /* \"#utility.yul\":2170:2171   */\n      0x00\n        /* \"#utility.yul\":2163:2194   */\n      mstore\n        /* \"#utility.yul\":2213:2217   */\n      0x11\n        /* \"#utility.yul\":2210:2211   */\n      0x04\n        /* \"#utility.yul\":2203:2218   */\n      mstore\n        /* \"#utility.yul\":2237:2241   */\n      0x24\n        /* \"#utility.yul\":2234:2235   */\n      0x00\n        /* \"#utility.yul\":2227:2242   */\n      revert\n        /* \"#utility.yul\":2253:2378   */\n    tag_11:\n        /* \"#utility.yul\":2293:2297   */\n      0x00\n        /* \"#utility.yul\":2321:2322   */\n      dup3\n        /* \"#utility.yul\":2318:2319   */\n      dup3\n        /* \"#utility.yul\":2315:2323   */\n      lt\n        /* \"#utility.yul\":2312:2346   */\n      iszero\n      tag_52\n      jumpi\n        /* \"#utility.yul\":2326:2344   */\n      tag_52\n      tag_27\n      jump\t// in\n    tag_52:\n      pop\n        /* \"#utility.yul\":2363:2372   */\n      sub\n      swap1\n        /* \"#utility.yul\":2253:2378   */\n      jump\t// out\n        /* \"#utility.yul\":2383:2511   */\n    tag_20:\n        /* \"#utility.yul\":2423:2426   */\n      0x00\n        /* \"#utility.yul\":2454:2455   */\n      dup3\n        /* \"#utility.yul\":2450:2456   */\n      not\n        /* \"#utility.yul\":2447:2448   */\n      dup3\n        /* \"#utility.yul\":2444:2457   */\n      gt\n        /* \"#utility.yul\":2441:2480   */\n      iszero\n      tag_55\n      jumpi\n        /* \"#utility.yul\":2460:2478   */\n      tag_55\n      tag_27\n      jump\t// in\n    tag_55:\n      pop\n        /* \"#utility.yul\":2496:2505   */\n      add\n      swap1\n        /* \"#utility.yul\":2383:2511   */\n      jump\t// out\n        /* \"#utility.yul\":2516:2643   */\n    tag_23:\n        /* \"#utility.yul\":2577:2587   */\n      0x4e487b71\n        /* \"#utility.yul\":2572:2575   */\n      0xe0\n        /* \"#utility.yul\":2568:2588   */\n      shl\n        /* \"#utility.yul\":2565:2566   */\n      0x00\n        /* \"#utility.yul\":2558:2589   */\n      mstore\n        /* \"#utility.yul\":2608:2612   */\n      0x32\n        /* \"#utility.yul\":2605:2606   */\n      0x04\n        /* \"#utility.yul\":2598:2613   */\n      mstore\n        /* \"#utility.yul\":2632:2636   */\n      0x24\n        /* \"#utility.yul\":2629:2630   */\n      0x00\n        /* \"#utility.yul\":2622:2637   */\n      revert\n\n    auxdata: 0xa2646970667358221220f964730e02f366f1fcb69458538e120b4828c5a16b541114cb50d125f003be7564736f6c634300080a0033\n}\n",
				"bytecode": {
					"linkReferences": {},
					"object": "6102f761003a600b82828239805160001a60731461002d57634e487b7160e01b600052600060045260246000fd5b30600052607381538281f3fe73000000000000000000000000000000000000000030146080604052600436106100355760003560e01c806361018a011461003a575b600080fd5b61004d610048366004610154565b610063565b60405161005a9190610219565b60405180910390f35b6060600060018351610075919061027c565b67ffffffffffffffff81111561008d5761008d610122565b6040519080825280602002602001820160405280156100b6578160200160208202803683370190505b50905060005b815181101561011b57836100d1826001610293565b815181106100e1576100e16102ab565b60200260200101518282815181106100fb576100fb6102ab565b6001600160801b03909216602092830291909101909101526001016100bc565b5092915050565b634e487b7160e01b600052604160045260246000fd5b80356001600160801b038116811461014f57600080fd5b919050565b6000602080838503121561016757600080fd5b823567ffffffffffffffff8082111561017f57600080fd5b818501915085601f83011261019357600080fd5b8135818111156101a5576101a5610122565b8060051b604051601f19603f830116810181811085821117156101ca576101ca610122565b6040529182528482019250838101850191888311156101e857600080fd5b938501935b8285101561020d576101fe85610138565b845293850193928501926101ed565b98975050505050505050565b6020808252825182820181905260009190848201906040850190845b8181101561025a5783516001600160801b031683529284019291840191600101610235565b50909695505050505050565b634e487b7160e01b600052601160045260246000fd5b60008282101561028e5761028e610266565b500390565b600082198211156102a6576102a6610266565b500190565b634e487b7160e01b600052603260045260246000fdfea2646970667358221220f964730e02f366f1fcb69458538e120b4828c5a16b541114cb50d125f003be7564736f6c634300080a0033",
					"opcodes": "PUSH2 0x2F7 PUSH2 0x3A PUSH1 0xB DUP3 DUP3 DUP3 CODECOPY DUP1 MLOAD PUSH1 0x0 BYTE PUSH1 0x73 EQ PUSH2 0x2D JUMPI PUSH4 0x4E487B71 PUSH1 0xE0 SHL PUSH1 0x0 MSTORE PUSH1 0x0 PUSH1 0x4 MSTORE PUSH1 0x24 PUSH1 0x0 REVERT JUMPDEST ADDRESS PUSH1 0x0 MSTORE PUSH1 0x73 DUP2 MSTORE8 DUP3 DUP2 RETURN INVALID PUSH20 0x0 ADDRESS EQ PUSH1 0x80 PUSH1 0x40 MSTORE PUSH1 0x4 CALLDATASIZE LT PUSH2 0x35 JUMPI PUSH1 0x0 CALLDATALOAD PUSH1 0xE0 SHR DUP1 PUSH4 0x61018A01 EQ PUSH2 0x3A JUMPI JUMPDEST PUSH1 0x0 DUP1 REVERT JUMPDEST PUSH2 0x4D PUSH2 0x48 CALLDATASIZE PUSH1 0x4 PUSH2 0x154 JUMP JUMPDEST PUSH2 0x63 JUMP JUMPDEST PUSH1 0x40 MLOAD PUSH2 0x5A SWAP2 SWAP1 PUSH2 0x219 JUMP JUMPDEST PUSH1 0x40 MLOAD DUP1 SWAP2 SUB SWAP1 RETURN JUMPDEST PUSH1 0x60 PUSH1 0x0 PUSH1 0x1 DUP4 MLOAD PUSH2 0x75 SWAP2 SWAP1 PUSH2 0x27C JUMP JUMPDEST PUSH8 0xFFFFFFFFFFFFFFFF DUP2 GT ISZERO PUSH2 0x8D JUMPI PUSH2 0x8D PUSH2 0x122 JUMP JUMPDEST PUSH1 0x40 MLOAD SWAP1 DUP1 DUP3 MSTORE DUP1 PUSH1 0x20 MUL PUSH1 0x20 ADD DUP3 ADD PUSH1 0x40 MSTORE DUP1 ISZERO PUSH2 0xB6 JUMPI DUP2 PUSH1 0x20 ADD PUSH1 0x20 DUP3 MUL DUP1 CALLDATASIZE DUP4 CALLDATACOPY ADD SWAP1 POP JUMPDEST POP SWAP1 POP PUSH1 0x0 JUMPDEST DUP2 MLOAD DUP2 LT ISZERO PUSH2 0x11B JUMPI DUP4 PUSH2 0xD1 DUP3 PUSH1 0x1 PUSH2 0x293 JUMP JUMPDEST DUP2 MLOAD DUP2 LT PUSH2 0xE1 JUMPI PUSH2 0xE1 PUSH2 0x2AB JUMP JUMPDEST PUSH1 0x20 MUL PUSH1 0x20 ADD ADD MLOAD DUP3 DUP3 DUP2 MLOAD DUP2 LT PUSH2 0xFB JUMPI PUSH2 0xFB PUSH2 0x2AB JUMP JUMPDEST PUSH1 0x1 PUSH1 0x1 PUSH1 0x80 SHL SUB SWAP1 SWAP3 AND PUSH1 0x20 SWAP3 DUP4 MUL SWAP2 SWAP1 SWAP2 ADD SWAP1 SWAP2 ADD MSTORE PUSH1 0x1 ADD PUSH2 0xBC JUMP JUMPDEST POP SWAP3 SWAP2 POP POP JUMP JUMPDEST PUSH4 0x4E487B71 PUSH1 0xE0 SHL PUSH1 0x0 MSTORE PUSH1 0x41 PUSH1 0x4 MSTORE PUSH1 0x24 PUSH1 0x0 REVERT JUMPDEST DUP1 CALLDATALOAD PUSH1 0x1 PUSH1 0x1 PUSH1 0x80 SHL SUB DUP2 AND DUP2 EQ PUSH2 0x14F JUMPI PUSH1 0x0 DUP1 REVERT JUMPDEST SWAP2 SWAP1 POP JUMP JUMPDEST PUSH1 0x0 PUSH1 0x20 DUP1 DUP4 DUP6 SUB SLT ISZERO PUSH2 0x167 JUMPI PUSH1 0x0 DUP1 REVERT JUMPDEST DUP3 CALLDATALOAD PUSH8 0xFFFFFFFFFFFFFFFF DUP1 DUP3 GT ISZERO PUSH2 0x17F JUMPI PUSH1 0x0 DUP1 REVERT JUMPDEST DUP2 DUP6 ADD SWAP2 POP DUP6 PUSH1 0x1F DUP4 ADD SLT PUSH2 0x193 JUMPI PUSH1 0x0 DUP1 REVERT JUMPDEST DUP2 CALLDATALOAD DUP2 DUP2 GT ISZERO PUSH2 0x1A5 JUMPI PUSH2 0x1A5 PUSH2 0x122 JUMP JUMPDEST DUP1 PUSH1 0x5 SHL PUSH1 0x40 MLOAD PUSH1 0x1F NOT PUSH1 0x3F DUP4 ADD AND DUP2 ADD DUP2 DUP2 LT DUP6 DUP3 GT OR ISZERO PUSH2 0x1CA JUMPI PUSH2 0x1CA PUSH2 0x122 JUMP JUMPDEST PUSH1 0x40 MSTORE SWAP2 DUP3 MSTORE DUP5 DUP3 ADD SWAP3 POP DUP4 DUP2 ADD DUP6 ADD SWAP2 DUP9 DUP4 GT ISZERO PUSH2 0x1E8 JUMPI PUSH1 0x0 DUP1 REVERT JUMPDEST SWAP4 DUP6 ADD SWAP4 JUMPDEST DUP3 DUP6 LT ISZERO PUSH2 0x20D JUMPI PUSH2 0x1FE DUP6 PUSH2 0x138 JUMP JUMPDEST DUP5 MSTORE SWAP4 DUP6 ADD SWAP4 SWAP3 DUP6 ADD SWAP3 PUSH2 0x1ED JUMP JUMPDEST SWAP9 SWAP8 POP POP POP POP POP POP POP POP JUMP JUMPDEST PUSH1 0x20 DUP1 DUP3 MSTORE DUP3 MLOAD DUP3 DUP3 ADD DUP2 SWAP1 MSTORE PUSH1 0x0 SWAP2 SWAP1 DUP5 DUP3 ADD SWAP1 PUSH1 0x40 DUP6 ADD SWAP1 DUP5 JUMPDEST DUP2 DUP2 LT ISZERO PUSH2 0x25A JUMPI DUP4 MLOAD PUSH1 0x1 PUSH1 0x1 PUSH1 0x80 SHL SUB AND DUP4 MSTORE SWAP3 DUP5 ADD SWAP3 SWAP2 DUP5 ADD SWAP2 PUSH1 0x1 ADD PUSH2 0x235 JUMP JUMPDEST POP SWAP1 SWAP7 SWAP6 POP POP POP POP POP POP JUMP JUMPDEST PUSH4 0x4E487B71 PUSH1 0xE0 SHL PUSH1 0x0 MSTORE PUSH1 0x11 PUSH1 0x4 MSTORE PUSH1 0x24 PUSH1 0x0 REVERT JUMPDEST PUSH1 0x0 DUP3 DUP3 LT ISZERO PUSH2 0x28E JUMPI PUSH2 0x28E PUSH2 0x266 JUMP JUMPDEST POP SUB SWAP1 JUMP JUMPDEST PUSH1 0x0 DUP3 NOT DUP3 GT ISZERO PUSH2 0x2A6 JUMPI PUSH2 0x2A6 PUSH2 0x266 JUMP JUMPDEST POP ADD SWAP1 JUMP JUMPDEST PUSH4 0x4E487B71 PUSH1 0xE0 SHL PUSH1 0x0 MSTORE PUSH1 0x32 PUSH1 0x4 MSTORE PUSH1 0x24 PUSH1 0x0 REVERT INVALID LOG2 PUSH5 0x6970667358 0x22 SLT KECCAK256 0xF9 PUSH5 0x730E02F366 CALL 0xFC 0xB6 SWAP5 PC MSTORE8 DUP15 SLT SIGNEXTEND BASEFEE 0x28 0xC5 LOG1 PUSH12 0x541114CB50D125F003BE7564 PUSH20 0x6F6C634300080A00330000000000000000000000 "
				},
				"gasEstimates": {
					"creation": {
						"codeDepositCost": "151800",
						"executionCost": "230",
						"totalCost": "152030"
					},
					"external": {
						"_removeFirstItem(uint128[])": "infinite"
					},
					"internal": {
						"_checkBinSequence(uint24[] calldata)": "infinite",
						"_findIndexAndRemove(uint128[] memory,uint128)": "infinite"
					}
				},
				"methodIdentifiers": {
					"_removeFirstItem(uint128[])": "61018a01"
				}
			},
			"storageLayout": {
				"storage": [],
				"types": null
			},
			"userdoc": {
				"kind": "user",
				"methods": {},
				"version": 1
			}
		}
	}
}